{
  "_format": "hh-sol-artifact-1",
  "contractName": "User",
  "sourceName": "contracts/User.sol",
  "abi": [
    {
      "inputs": [
        {
          "internalType": "address",
          "name": "owner",
          "type": "address"
        },
        {
          "internalType": "string",
          "name": "name",
          "type": "string"
        },
        {
          "internalType": "string",
          "name": "description",
          "type": "string"
        }
      ],
      "stateMutability": "nonpayable",
      "type": "constructor"
    },
    {
      "anonymous": false,
      "inputs": [
        {
          "indexed": false,
          "internalType": "address",
          "name": "contractAddress",
          "type": "address"
        },
        {
          "indexed": false,
          "internalType": "address",
          "name": "owner",
          "type": "address"
        },
        {
          "indexed": false,
          "internalType": "string",
          "name": "name",
          "type": "string"
        },
        {
          "indexed": false,
          "internalType": "string",
          "name": "description",
          "type": "string"
        }
      ],
      "name": "UserCreated",
      "type": "event"
    },
    {
      "anonymous": false,
      "inputs": [
        {
          "indexed": false,
          "internalType": "address",
          "name": "contractAddress",
          "type": "address"
        },
        {
          "indexed": false,
          "internalType": "string",
          "name": "name",
          "type": "string"
        },
        {
          "indexed": false,
          "internalType": "string",
          "name": "description",
          "type": "string"
        }
      ],
      "name": "UserUpdated",
      "type": "event"
    },
    {
      "inputs": [],
      "name": "getDetails",
      "outputs": [
        {
          "internalType": "address",
          "name": "",
          "type": "address"
        },
        {
          "internalType": "string",
          "name": "",
          "type": "string"
        },
        {
          "internalType": "string",
          "name": "",
          "type": "string"
        }
      ],
      "stateMutability": "view",
      "type": "function"
    },
    {
      "inputs": [
        {
          "internalType": "string",
          "name": "name",
          "type": "string"
        },
        {
          "internalType": "string",
          "name": "description",
          "type": "string"
        }
      ],
      "name": "update",
      "outputs": [],
      "stateMutability": "nonpayable",
      "type": "function"
    }
  ],
  "bytecode": "0x60806040523480156200001157600080fd5b50604051620008ff380380620008ff833981016040819052620000349162000261565b6001600160a01b0383166200008f5760405162461bcd60e51b815260206004820152601f60248201527f557365723a204f776e657220416464726573732063616e277420626520307800604482015260640160405180910390fd5b60018054336001600160a01b031991821617909155600080549091166001600160a01b0385161790558151620000cd9060029060208501906200012c565b508051620000e39060039060208401906200012c565b507f5f92b67971e4cef263063e8830748d8da304fa4eeab94b76845f45f0881f7fb0308484846040516200011b949392919062000315565b60405180910390a1505050620003e8565b8280546200013a9062000395565b90600052602060002090601f0160209004810192826200015e5760008555620001a9565b82601f106200017957805160ff1916838001178555620001a9565b82800160010185558215620001a9579182015b82811115620001a95782518255916020019190600101906200018c565b50620001b7929150620001bb565b5090565b5b80821115620001b75760008155600101620001bc565b600082601f830112620001e3578081fd5b81516001600160401b0380821115620002005762000200620003d2565b604051601f8301601f19908116603f011681019082821181831017156200022b576200022b620003d2565b8160405283815286602085880101111562000244578485fd5b6200025784602083016020890162000362565b9695505050505050565b60008060006060848603121562000276578283fd5b83516001600160a01b03811681146200028d578384fd5b60208501519093506001600160401b0380821115620002aa578384fd5b620002b887838801620001d2565b93506040860151915080821115620002ce578283fd5b50620002dd86828701620001d2565b9150509250925092565b600081518084526200030181602086016020860162000362565b601f01601f19169290920160200192915050565b6001600160a01b038581168252841660208201526080604082018190526000906200034390830185620002e7565b8281036060840152620003578185620002e7565b979650505050505050565b60005b838110156200037f57818101518382015260200162000365565b838111156200038f576000848401525b50505050565b600181811c90821680620003aa57607f821691505b60208210811415620003cc57634e487b7160e01b600052602260045260246000fd5b50919050565b634e487b7160e01b600052604160045260246000fd5b61050780620003f86000396000f3fe608060405234801561001057600080fd5b50600436106100365760003560e01c8063f4c84d191461003b578063fbbf93a014610050575b600080fd5b61004e610049366004610394565b610070565b005b610058610134565b60405161006793929190610440565b60405180910390f35b6000546001600160a01b0316336001600160a01b0316146100cd5760405162461bcd60e51b81526020600482015260136024820152722ab9b2b91d102737ba103a34329037bbb732b960691b604482015260640160405180910390fd5b81516100e0906002906020850190610274565b5080516100f4906003906020840190610274565b507fe5d18d6612696bff7df1db8015eac613241613297fa2ba2783993e4fd0e76f3d30838360405161012893929190610440565b60405180910390a15050565b600060608060008054906101000a90046001600160a01b03166002600381805461015d90610480565b80601f016020809104026020016040519081016040528092919081815260200182805461018990610480565b80156101d65780601f106101ab576101008083540402835291602001916101d6565b820191906000526020600020905b8154815290600101906020018083116101b957829003601f168201915b505050505091508080546101e990610480565b80601f016020809104026020016040519081016040528092919081815260200182805461021590610480565b80156102625780601f1061023757610100808354040283529160200191610262565b820191906000526020600020905b81548152906001019060200180831161024557829003601f168201915b50505050509050925092509250909192565b82805461028090610480565b90600052602060002090601f0160209004810192826102a257600085556102e8565b82601f106102bb57805160ff19168380011785556102e8565b828001600101855582156102e8579182015b828111156102e85782518255916020019190600101906102cd565b506102f49291506102f8565b5090565b5b808211156102f457600081556001016102f9565b600082601f83011261031d578081fd5b813567ffffffffffffffff80821115610338576103386104bb565b604051601f8301601f19908116603f01168101908282118183101715610360576103606104bb565b81604052838152866020858801011115610378578485fd5b8360208701602083013792830160200193909352509392505050565b600080604083850312156103a6578182fd5b823567ffffffffffffffff808211156103bd578384fd5b6103c98683870161030d565b935060208501359150808211156103de578283fd5b506103eb8582860161030d565b9150509250929050565b60008151808452815b8181101561041a576020818501810151868301820152016103fe565b8181111561042b5782602083870101525b50601f01601f19169290920160200192915050565b6001600160a01b0384168152606060208201819052600090610464908301856103f5565b828103604084015261047681856103f5565b9695505050505050565b600181811c9082168061049457607f821691505b602082108114156104b557634e487b7160e01b600052602260045260246000fd5b50919050565b634e487b7160e01b600052604160045260246000fdfea26469706673582212201681f18783205e78a576576d0471ab34278309f0ab6a199f13d6aaafd096571464736f6c63430008040033",
  "linkReferences": {},
  "deployedLinkReferences": {}
}