{
  "_format": "hh-sol-artifact-1",
  "contractName": "User",
  "sourceName": "contracts/User.sol",
  "abi": [
    {
      "inputs": [
        {
          "internalType": "address",
          "name": "owner",
          "type": "address"
        },
        {
          "internalType": "string",
          "name": "name",
          "type": "string"
        },
        {
          "internalType": "string",
          "name": "description",
          "type": "string"
        }
      ],
      "stateMutability": "nonpayable",
      "type": "constructor"
    },
    {
      "anonymous": false,
      "inputs": [
        {
          "indexed": false,
          "internalType": "address",
          "name": "itemAddress",
          "type": "address"
        },
        {
          "indexed": false,
          "internalType": "address",
          "name": "owner",
          "type": "address"
        },
        {
          "indexed": false,
          "internalType": "string",
          "name": "title",
          "type": "string"
        },
        {
          "indexed": false,
          "internalType": "string",
          "name": "description",
          "type": "string"
        },
        {
          "indexed": false,
          "internalType": "uint256",
          "name": "price",
          "type": "uint256"
        },
        {
          "indexed": false,
          "internalType": "address",
          "name": "token",
          "type": "address"
        },
        {
          "indexed": false,
          "internalType": "uint256",
          "name": "amount",
          "type": "uint256"
        },
        {
          "indexed": false,
          "internalType": "uint256",
          "name": "endPaymentDate",
          "type": "uint256"
        },
        {
          "indexed": false,
          "internalType": "string",
          "name": "uri",
          "type": "string"
        },
        {
          "indexed": false,
          "internalType": "int96",
          "name": "minFlowrate",
          "type": "int96"
        }
      ],
      "name": "ItemDeployed",
      "type": "event"
    },
    {
      "anonymous": false,
      "inputs": [
        {
          "indexed": false,
          "internalType": "address",
          "name": "contractAddress",
          "type": "address"
        },
        {
          "indexed": false,
          "internalType": "address",
          "name": "owner",
          "type": "address"
        },
        {
          "indexed": false,
          "internalType": "string",
          "name": "name",
          "type": "string"
        },
        {
          "indexed": false,
          "internalType": "string",
          "name": "description",
          "type": "string"
        }
      ],
      "name": "UserCreated",
      "type": "event"
    },
    {
      "anonymous": false,
      "inputs": [
        {
          "indexed": false,
          "internalType": "address",
          "name": "contractAddress",
          "type": "address"
        },
        {
          "indexed": false,
          "internalType": "string",
          "name": "name",
          "type": "string"
        },
        {
          "indexed": false,
          "internalType": "string",
          "name": "description",
          "type": "string"
        }
      ],
      "name": "UserUpdated",
      "type": "event"
    },
    {
      "inputs": [
        {
          "internalType": "string",
          "name": "title",
          "type": "string"
        },
        {
          "internalType": "string",
          "name": "description",
          "type": "string"
        },
        {
          "internalType": "uint256",
          "name": "price",
          "type": "uint256"
        },
        {
          "internalType": "address",
          "name": "token",
          "type": "address"
        },
        {
          "internalType": "uint256",
          "name": "amount",
          "type": "uint256"
        },
        {
          "internalType": "uint256",
          "name": "endPaymentDate",
          "type": "uint256"
        },
        {
          "internalType": "string",
          "name": "uri",
          "type": "string"
        }
      ],
      "name": "deployItem",
      "outputs": [],
      "stateMutability": "nonpayable",
      "type": "function"
    },
    {
      "inputs": [],
      "name": "getDetails",
      "outputs": [
        {
          "internalType": "address",
          "name": "",
          "type": "address"
        },
        {
          "internalType": "string",
          "name": "",
          "type": "string"
        },
        {
          "internalType": "string",
          "name": "",
          "type": "string"
        }
      ],
      "stateMutability": "view",
      "type": "function"
    },
    {
      "inputs": [
        {
          "internalType": "string",
          "name": "name",
          "type": "string"
        },
        {
          "internalType": "string",
          "name": "description",
          "type": "string"
        }
      ],
      "name": "update",
      "outputs": [],
      "stateMutability": "nonpayable",
      "type": "function"
    }
  ],
  "bytecode": "0x60806040523480156200001157600080fd5b5060405162000ef338038062000ef3833981016040819052620000349162000261565b6001600160a01b0383166200008f5760405162461bcd60e51b815260206004820152601f60248201527f557365723a204f776e657220416464726573732063616e277420626520307800604482015260640160405180910390fd5b60018054336001600160a01b031991821617909155600080549091166001600160a01b0385161790558151620000cd9060029060208501906200012c565b508051620000e39060039060208401906200012c565b507f5f92b67971e4cef263063e8830748d8da304fa4eeab94b76845f45f0881f7fb0308484846040516200011b949392919062000315565b60405180910390a1505050620003e8565b8280546200013a9062000395565b90600052602060002090601f0160209004810192826200015e5760008555620001a9565b82601f106200017957805160ff1916838001178555620001a9565b82800160010185558215620001a9579182015b82811115620001a95782518255916020019190600101906200018c565b50620001b7929150620001bb565b5090565b5b80821115620001b75760008155600101620001bc565b600082601f830112620001e3578081fd5b81516001600160401b0380821115620002005762000200620003d2565b604051601f8301601f19908116603f011681019082821181831017156200022b576200022b620003d2565b8160405283815286602085880101111562000244578485fd5b6200025784602083016020890162000362565b9695505050505050565b60008060006060848603121562000276578283fd5b83516001600160a01b03811681146200028d578384fd5b60208501519093506001600160401b0380821115620002aa578384fd5b620002b887838801620001d2565b93506040860151915080821115620002ce578283fd5b50620002dd86828701620001d2565b9150509250925092565b600081518084526200030181602086016020860162000362565b601f01601f19169290920160200192915050565b6001600160a01b038581168252841660208201526080604082018190526000906200034390830185620002e7565b8281036060840152620003578185620002e7565b979650505050505050565b60005b838110156200037f57818101518382015260200162000365565b838111156200038f576000848401525b50505050565b600181811c90821680620003aa57607f821691505b60208210811415620003cc57634e487b7160e01b600052602260045260246000fd5b50919050565b634e487b7160e01b600052604160045260246000fd5b610afb80620003f86000396000f3fe608060405234801561001057600080fd5b50600436106100415760003560e01c8063ec836cc314610046578063f4c84d191461005b578063fbbf93a01461006e575b600080fd5b6100596100543660046107ab565b61008e565b005b61005961006936600461074a565b61028f565b61007661034f565b6040516100859392919061091b565b60405180910390f35b6000546001600160a01b0316336001600160a01b0316146100ec5760405162461bcd60e51b81526020600482015260136024820152722ab9b2b91d102737ba103a34329037bbb732b960691b60448201526064015b60405180910390fd5b600154600080546040516262d73960e71b815291926001600160a01b039081169263316b9c809261012f9216908c908c908c908c908c908c908c9060040161095b565b602060405180830381600087803b15801561014957600080fd5b505af115801561015d573d6000803e3d6000fd5b505050506040513d601f19601f820116820180604052508101906101819190610727565b905061018e60048261048f565b50600080600080600080600080886001600160a01b031663fbbf93a06040518163ffffffff1660e01b815260040160006040518083038186803b1580156101d457600080fd5b505afa1580156101e8573d6000803e3d6000fd5b505050506040513d6000823e601f3d908101601f191682016040526102109190810190610653565b98509850985098509850985098509850507fc284536a0596e5087d3a8a59e2078068fff09f9bcf3bbd13dd2f2c5877cc365f8960008054906101000a90046001600160a01b03168a8a8a8a8a8a8a8a6040516102759a9998979695949392919061088d565b60405180910390a150505050505050505050505050505050565b6000546001600160a01b0316336001600160a01b0316146102e85760405162461bcd60e51b81526020600482015260136024820152722ab9b2b91d102737ba103a34329037bbb732b960691b60448201526064016100e3565b81516102fb9060029060208501906104fc565b50805161030f9060039060208401906104fc565b507fe5d18d6612696bff7df1db8015eac613241613297fa2ba2783993e4fd0e76f3d3083836040516103439392919061091b565b60405180910390a15050565b600060608060008054906101000a90046001600160a01b03166002600381805461037890610a5c565b80601f01602080910402602001604051908101604052809291908181526020018280546103a490610a5c565b80156103f15780601f106103c6576101008083540402835291602001916103f1565b820191906000526020600020905b8154815290600101906020018083116103d457829003601f168201915b5050505050915080805461040490610a5c565b80601f016020809104026020016040519081016040528092919081815260200182805461043090610a5c565b801561047d5780601f106104525761010080835404028352916020019161047d565b820191906000526020600020905b81548152906001019060200180831161046057829003601f168201915b50505050509050925092509250909192565b60006104a4836001600160a01b0384166104ad565b90505b92915050565b60008181526001830160205260408120546104f4575081546001818101845560008481526020808220909301849055845484825282860190935260409020919091556104a7565b5060006104a7565b82805461050890610a5c565b90600052602060002090601f01602090048101928261052a5760008555610570565b82601f1061054357805160ff1916838001178555610570565b82800160010185558215610570579182015b82811115610570578251825591602001919060010190610555565b5061057c929150610580565b5090565b5b8082111561057c5760008155600101610581565b80516105a081610aad565b919050565b8051600b81900b81146105a057600080fd5b600082601f8301126105c7578081fd5b81356105da6105d582610a04565b6109d3565b8181528460208386010111156105ee578283fd5b816020850160208301379081016020019190915292915050565b600082601f830112610618578081fd5b81516106266105d582610a04565b81815284602083860101111561063a578283fd5b61064b826020830160208701610a2c565b949350505050565b60008060008060008060008060006101208a8c031215610671578485fd5b61067a8a610595565b985060208a015167ffffffffffffffff80821115610696578687fd5b6106a28d838e01610608565b995060408c01519150808211156106b7578687fd5b6106c38d838e01610608565b985060608c015197506106d860808d01610595565b965060a08c0151955060c08c0151945060e08c01519150808211156106fb578384fd5b506107088c828d01610608565b9250506107186101008b016105a5565b90509295985092959850929598565b600060208284031215610738578081fd5b815161074381610aad565b9392505050565b6000806040838503121561075c578182fd5b823567ffffffffffffffff80821115610773578384fd5b61077f868387016105b7565b93506020850135915080821115610794578283fd5b506107a1858286016105b7565b9150509250929050565b600080600080600080600060e0888a0312156107c5578283fd5b873567ffffffffffffffff808211156107dc578485fd5b6107e88b838c016105b7565b985060208a01359150808211156107fd578485fd5b6108098b838c016105b7565b975060408a0135965060608a0135915061082282610aad565b9094506080890135935060a0890135925060c08901359080821115610845578283fd5b506108528a828b016105b7565b91505092959891949750929550565b60008151808452610879816020860160208601610a2c565b601f01601f19169290920160200192915050565b6001600160a01b038b811682528a81166020830152610140604083018190526000916108bb8483018d610861565b915083820360608501526108cf828c610861565b915089608085015280891660a0850152508660c08401528560e08401528281036101008401526108ff8186610861565b91505082600b0b6101208301529b9a5050505050505050505050565b6001600160a01b038416815260606020820181905260009061093f90830185610861565b82810360408401526109518185610861565b9695505050505050565b6001600160a01b038981168252610100602083018190526000916109818483018c610861565b91508382036040850152610995828b610861565b91508860608501528088166080850152508560a08401528460c084015282810360e08401526109c48185610861565b9b9a5050505050505050505050565b604051601f8201601f1916810167ffffffffffffffff811182821017156109fc576109fc610a97565b604052919050565b600067ffffffffffffffff821115610a1e57610a1e610a97565b50601f01601f191660200190565b60005b83811015610a47578181015183820152602001610a2f565b83811115610a56576000848401525b50505050565b600181811c90821680610a7057607f821691505b60208210811415610a9157634e487b7160e01b600052602260045260246000fd5b50919050565b634e487b7160e01b600052604160045260246000fd5b6001600160a01b0381168114610ac257600080fd5b5056fea2646970667358221220e99595ae14bd6f506c3942dc2dffde7016fef619bc810a1eec7ce4cfebcef25864736f6c63430008040033",
  "linkReferences": {},
  "deployedLinkReferences": {}
}