{
  "_format": "hh-sol-artifact-1",
  "contractName": "Main",
  "sourceName": "contracts/Main.sol",
  "abi": [
    {
      "inputs": [
        {
          "internalType": "address",
          "name": "itemFactory",
          "type": "address"
        },
        {
          "internalType": "address",
          "name": "sfHost",
          "type": "address"
        },
        {
          "internalType": "address",
          "name": "sfCfa",
          "type": "address"
        },
        {
          "internalType": "address",
          "name": "sfResolver",
          "type": "address"
        },
        {
          "internalType": "string",
          "name": "sfVersion",
          "type": "string"
        }
      ],
      "stateMutability": "nonpayable",
      "type": "constructor"
    },
    {
      "anonymous": false,
      "inputs": [
        {
          "indexed": false,
          "internalType": "address",
          "name": "itemAddress",
          "type": "address"
        },
        {
          "indexed": false,
          "internalType": "address",
          "name": "owner",
          "type": "address"
        },
        {
          "indexed": false,
          "internalType": "string",
          "name": "title",
          "type": "string"
        },
        {
          "indexed": false,
          "internalType": "string",
          "name": "description",
          "type": "string"
        },
        {
          "indexed": false,
          "internalType": "uint256",
          "name": "price",
          "type": "uint256"
        },
        {
          "indexed": false,
          "internalType": "address",
          "name": "token",
          "type": "address"
        },
        {
          "indexed": false,
          "internalType": "uint256",
          "name": "amount",
          "type": "uint256"
        },
        {
          "indexed": false,
          "internalType": "uint256",
          "name": "endPaymentDate",
          "type": "uint256"
        },
        {
          "indexed": false,
          "internalType": "string",
          "name": "uri",
          "type": "string"
        }
      ],
      "name": "ItemDeployed",
      "type": "event"
    },
    {
      "anonymous": false,
      "inputs": [
        {
          "indexed": false,
          "internalType": "address",
          "name": "userAddress",
          "type": "address"
        },
        {
          "indexed": false,
          "internalType": "address payable",
          "name": "relayerAddress",
          "type": "address"
        },
        {
          "indexed": false,
          "internalType": "bytes",
          "name": "functionSignature",
          "type": "bytes"
        }
      ],
      "name": "MetaTransactionExecuted",
      "type": "event"
    },
    {
      "anonymous": false,
      "inputs": [
        {
          "indexed": true,
          "internalType": "address",
          "name": "previousOwner",
          "type": "address"
        },
        {
          "indexed": true,
          "internalType": "address",
          "name": "newOwner",
          "type": "address"
        }
      ],
      "name": "OwnershipTransferred",
      "type": "event"
    },
    {
      "anonymous": false,
      "inputs": [
        {
          "indexed": false,
          "internalType": "address",
          "name": "contractAddress",
          "type": "address"
        },
        {
          "indexed": false,
          "internalType": "address",
          "name": "owner",
          "type": "address"
        },
        {
          "indexed": false,
          "internalType": "string",
          "name": "name",
          "type": "string"
        },
        {
          "indexed": false,
          "internalType": "string",
          "name": "description",
          "type": "string"
        }
      ],
      "name": "UserDeployed",
      "type": "event"
    },
    {
      "inputs": [
        {
          "internalType": "contract ERC20WithTokenInfo",
          "name": "_token",
          "type": "address"
        }
      ],
      "name": "createSuperToken",
      "outputs": [
        {
          "internalType": "contract ISuperToken",
          "name": "superToken",
          "type": "address"
        }
      ],
      "stateMutability": "nonpayable",
      "type": "function"
    },
    {
      "inputs": [
        {
          "internalType": "string",
          "name": "title",
          "type": "string"
        },
        {
          "internalType": "string",
          "name": "description",
          "type": "string"
        },
        {
          "internalType": "uint256",
          "name": "price",
          "type": "uint256"
        },
        {
          "internalType": "address",
          "name": "token",
          "type": "address"
        },
        {
          "internalType": "uint256",
          "name": "amount",
          "type": "uint256"
        },
        {
          "internalType": "uint256",
          "name": "endPaymentDate",
          "type": "uint256"
        },
        {
          "internalType": "string",
          "name": "uri",
          "type": "string"
        }
      ],
      "name": "deployItem",
      "outputs": [],
      "stateMutability": "nonpayable",
      "type": "function"
    },
    {
      "inputs": [
        {
          "internalType": "string",
          "name": "name",
          "type": "string"
        },
        {
          "internalType": "string",
          "name": "description",
          "type": "string"
        }
      ],
      "name": "deployUser",
      "outputs": [
        {
          "internalType": "contract User",
          "name": "",
          "type": "address"
        }
      ],
      "stateMutability": "nonpayable",
      "type": "function"
    },
    {
      "inputs": [
        {
          "internalType": "address",
          "name": "",
          "type": "address"
        }
      ],
      "name": "deployedUsers",
      "outputs": [
        {
          "internalType": "address",
          "name": "",
          "type": "address"
        }
      ],
      "stateMutability": "view",
      "type": "function"
    },
    {
      "inputs": [
        {
          "internalType": "address",
          "name": "userAddress",
          "type": "address"
        },
        {
          "internalType": "bytes",
          "name": "functionSignature",
          "type": "bytes"
        },
        {
          "internalType": "bytes32",
          "name": "sigR",
          "type": "bytes32"
        },
        {
          "internalType": "bytes32",
          "name": "sigS",
          "type": "bytes32"
        },
        {
          "internalType": "uint8",
          "name": "sigV",
          "type": "uint8"
        }
      ],
      "name": "executeMetaTransaction",
      "outputs": [
        {
          "internalType": "bytes",
          "name": "",
          "type": "bytes"
        }
      ],
      "stateMutability": "payable",
      "type": "function"
    },
    {
      "inputs": [
        {
          "internalType": "address",
          "name": "user",
          "type": "address"
        }
      ],
      "name": "getDeployedUser",
      "outputs": [
        {
          "internalType": "address",
          "name": "",
          "type": "address"
        }
      ],
      "stateMutability": "view",
      "type": "function"
    },
    {
      "inputs": [
        {
          "internalType": "address",
          "name": "user",
          "type": "address"
        }
      ],
      "name": "getNonce",
      "outputs": [
        {
          "internalType": "uint256",
          "name": "nonce",
          "type": "uint256"
        }
      ],
      "stateMutability": "view",
      "type": "function"
    },
    {
      "inputs": [
        {
          "internalType": "contract ERC20WithTokenInfo",
          "name": "_token",
          "type": "address"
        }
      ],
      "name": "getSuperToken",
      "outputs": [
        {
          "internalType": "address",
          "name": "tokenAddress",
          "type": "address"
        }
      ],
      "stateMutability": "view",
      "type": "function"
    },
    {
      "inputs": [
        {
          "internalType": "contract ERC20WithTokenInfo",
          "name": "_token",
          "type": "address"
        }
      ],
      "name": "isSuperToken",
      "outputs": [
        {
          "internalType": "bool",
          "name": "",
          "type": "bool"
        }
      ],
      "stateMutability": "view",
      "type": "function"
    },
    {
      "inputs": [],
      "name": "owner",
      "outputs": [
        {
          "internalType": "address",
          "name": "",
          "type": "address"
        }
      ],
      "stateMutability": "view",
      "type": "function"
    },
    {
      "inputs": [],
      "name": "renounceOwnership",
      "outputs": [],
      "stateMutability": "nonpayable",
      "type": "function"
    },
    {
      "inputs": [
        {
          "internalType": "address",
          "name": "",
          "type": "address"
        }
      ],
      "name": "superTokenRegistry",
      "outputs": [
        {
          "internalType": "address",
          "name": "",
          "type": "address"
        }
      ],
      "stateMutability": "view",
      "type": "function"
    },
    {
      "inputs": [],
      "name": "superfluidConfig",
      "outputs": [
        {
          "internalType": "contract ISuperfluid",
          "name": "",
          "type": "address"
        },
        {
          "internalType": "contract IConstantFlowAgreementV1",
          "name": "",
          "type": "address"
        },
        {
          "internalType": "contract IResolver",
          "name": "",
          "type": "address"
        },
        {
          "internalType": "string",
          "name": "",
          "type": "string"
        }
      ],
      "stateMutability": "view",
      "type": "function"
    },
    {
      "inputs": [
        {
          "internalType": "address",
          "name": "newOwner",
          "type": "address"
        }
      ],
      "name": "transferOwnership",
      "outputs": [],
      "stateMutability": "nonpayable",
      "type": "function"
    }
  ],
  "bytecode": "0x60806040523480156200001157600080fd5b5060405162002d6638038062002d668339810160408190526200003491620003b5565b6040518060400160405280600481526020016326b0b4b760e11b815250604051806040016040528060018152602001603160f81b815250818162000087620000816200029a60201b60201c565b6200029e565b6040518060800160405280604f815260200162002d17604f9139805190602001208280519060200120828051906020012030620000c9620002ee60201b60201c565b60408051602081019690965285019390935260608401919091526001600160a01b0316608083015260a082015260c00160408051601f198184030181529190528051602090910120600155505050506001600160a01b038416620001745760405162461bcd60e51b815260206004820152601e60248201527f4d61696e3a20486f737420416464726573732063616e2774206265203078000060448201526064015b60405180910390fd5b6001600160a01b038316620001cc5760405162461bcd60e51b815260206004820152601d60248201527f4d61696e3a2043464120416464726573732063616e277420626520307800000060448201526064016200016b565b6001600160a01b0382166200022f5760405162461bcd60e51b815260206004820152602260248201527f4d61696e3a205265736f6c76657220416464726573732063616e277420626520604482015261060f60f31b60648201526084016200016b565b600380546001600160a01b038088166001600160a01b0319928316179092556004805487841690831617905560058054868416908316179055600680549285169290911691909117905580516200028e906007906020840190620002f2565b5050505050506200052c565b3390565b600080546001600160a01b038381166001600160a01b0319831681178455604051919092169283917f8be0079c531659141344cd1fd0a4f28419497f9722a3daafe3b4186f6b6457e09190a35050565b4690565b8280546200030090620004d9565b90600052602060002090601f0160209004810192826200032457600085556200036f565b82601f106200033f57805160ff19168380011785556200036f565b828001600101855582156200036f579182015b828111156200036f57825182559160200191906001019062000352565b506200037d92915062000381565b5090565b5b808211156200037d576000815560010162000382565b80516001600160a01b0381168114620003b057600080fd5b919050565b600080600080600060a08688031215620003cd578081fd5b620003d88662000398565b94506020620003e981880162000398565b9450620003f96040880162000398565b9350620004096060880162000398565b60808801519093506001600160401b038082111562000426578384fd5b818901915089601f8301126200043a578384fd5b8151818111156200044f576200044f62000516565b604051601f8201601f19908116603f011681019083821181831017156200047a576200047a62000516565b816040528281528c8684870101111562000492578687fd5b8693505b82841015620004b5578484018601518185018701529285019262000496565b82841115620004c657868684830101525b8096505050505050509295509295909350565b600181811c90821680620004ee57607f821691505b602082108114156200051057634e487b7160e01b600052602260045260246000fd5b50919050565b634e487b7160e01b600052604160045260246000fd5b6127db806200053c6000396000f3fe608060405260043610620000ef5760003560e01c8063a7403a321162000089578063ce69fd6f1162000060578063ce69fd6f14620002da578063ec836cc31462000310578063f2fde38b1462000335578063f6670545146200035a57600080fd5b8063a7403a321462000256578063a8866adc146200027b578063bb0c955714620002b557600080fd5b8063625392c311620000ca578063625392c314620001a5578063715018a614620001df5780638da5cb5b14620001f9578063996d5213146200021957600080fd5b80630c08a5c414620000f45780630c53c51c14620001365780632d0335ab146200015c575b600080fd5b3480156200010157600080fd5b50620001196200011336600462001633565b62000384565b6040516001600160a01b0390911681526020015b60405180910390f35b6200014d6200014736600462001671565b620004f6565b6040516200012d919062001cb7565b3480156200016957600080fd5b50620001966200017b36600462001633565b6001600160a01b031660009081526002602052604090205490565b6040519081526020016200012d565b348015620001b257600080fd5b5062000119620001c436600462001633565b600b602052600090815260409020546001600160a01b031681565b348015620001ec57600080fd5b50620001f762000785565b005b3480156200020657600080fd5b506000546001600160a01b031662000119565b3480156200022657600080fd5b50620001196200023836600462001633565b6001600160a01b039081166000908152600b60205260409020541690565b3480156200026357600080fd5b50620001196200027536600462001633565b620007ef565b3480156200028857600080fd5b50620001196200029a36600462001633565b6008602052600090815260409020546001600160a01b031681565b348015620002c257600080fd5b5062000119620002d43660046200180f565b62000b31565b348015620002e757600080fd5b50620002ff620002f936600462001633565b62000c96565b60405190151581526020016200012d565b3480156200031d57600080fd5b50620001f76200032f36600462001877565b62000ded565b3480156200034257600080fd5b50620001f76200035436600462001633565b62001007565b3480156200036757600080fd5b5062000372620010d8565b6040516200012d949392919062001d13565b6000620003918262000c96565b156200039b575090565b60006007836001600160a01b03166395d89b416040518163ffffffff1660e01b815260040160006040518083038186803b158015620003d957600080fd5b505afa158015620003ee573d6000803e3d6000fd5b505050506040513d6000823e601f3d908101601f19168201604052620004189190810190620017d8565b6040516020016200042b92919062001ad7565b60408051601f198184030181529082905260065463349f642f60e11b83529092506001600160a01b03169063693ec85e906200046c90849060040162001cb7565b60206040518083038186803b1580156200048557600080fd5b505afa1580156200049a573d6000803e3d6000fd5b505050506040513d601f19601f82011682018060405250810190620004c0919062001652565b91506001600160a01b038216620004ef576001600160a01b038084166000908152600860205260409020541691505b505b919050565b606060006200050586620011a4565b90506000356001600160e01b03199081169082161415620005935760405162461bcd60e51b815260206004820152603d60248201527f66756e6374696f6e5369676e61747572652063616e206e6f74206265206f662060448201527f657865637574654d6574615472616e73616374696f6e206d6574686f6400000060648201526084015b60405180910390fd5b604080516060810182526001600160a01b03891660008181526002602090815290849020548352820152908101879052620005d28882888888620011c1565b6200062a5760405162461bcd60e51b815260206004820152602160248201527f5369676e657220616e64207369676e617475726520646f206e6f74206d6174636044820152600d60fb1b60648201526084016200058a565b6001600160a01b0388166000908152600260205260409020546200065090600162001da8565b6001600160a01b038916600090815260026020908152604080832093909355915190918291309162000687918c918e910162001a25565b60408051601f1981840301815290829052620006a39162001a07565b6000604051808303816000865af19150503d8060008114620006e2576040519150601f19603f3d011682016040523d82523d6000602084013e620006e7565b606091505b5091509150816200073b5760405162461bcd60e51b815260206004820152601c60248201527f46756e6374696f6e2063616c6c206e6f74207375636365737366756c0000000060448201526064016200058a565b7f5845892132946850460bff5a0083f71031bc5bf9aadcd40f1de79423eac9b10b8a338b604051620007709392919062001b67565b60405180910390a19998505050505050505050565b6000546001600160a01b03163314620007e15760405162461bcd60e51b815260206004820181905260248201527f4f776e61626c653a2063616c6c6572206973206e6f7420746865206f776e657260448201526064016200058a565b620007ed6000620012a4565b565b6000620007fc8262000c96565b15620008575760405162461bcd60e51b815260206004820152602360248201527f4d61696e3a20546f6b656e20697320616c72656164792061205375706572546f60448201526235b2b760e91b60648201526084016200058a565b6001600160a01b0382811660009081526008602052604090205416156200089757506001600160a01b039081166000908152600860205260409020541690565b6000600460009054906101000a90046001600160a01b03166001600160a01b031663731aed6e6040518163ffffffff1660e01b815260040160206040518083038186803b158015620008e857600080fd5b505afa158015620008fd573d6000803e3d6000fd5b505050506040513d601f19601f8201168201806040525081019062000923919062001652565b90506000836001600160a01b03166306fdde036040518163ffffffff1660e01b815260040160006040518083038186803b1580156200096157600080fd5b505afa15801562000976573d6000803e3d6000fd5b505050506040513d6000823e601f3d908101601f19168201604052620009a09190810190620017d8565b604051602001620009b2919062001b37565b60405160208183030381529060405290506000846001600160a01b03166395d89b416040518163ffffffff1660e01b815260040160006040518083038186803b158015620009ff57600080fd5b505afa15801562000a14573d6000803e3d6000fd5b505050506040513d6000823e601f3d908101601f1916820160405262000a3e9190810190620017d8565b60405160200162000a50919062001a5e565b60408051601f198184030181529082905263431f148160e01b825291506001600160a01b0384169063431f14819062000a959088906002908790879060040162001ccc565b602060405180830381600087803b15801562000ab057600080fd5b505af115801562000ac5573d6000803e3d6000fd5b505050506040513d601f19601f8201168201806040525081019062000aeb919062001652565b6001600160a01b03868116600090815260086020526040902080546001600160a01b031916918316919091179055935062000b28600985620012f4565b50505050919050565b600080600b8162000b4162001312565b6001600160a01b039081168252602082019290925260400160002054161462000bad5760405162461bcd60e51b815260206004820152601b60248201527f4d61696e3a205573657220616c7265616479206465706c6f796564000000000060448201526064016200058a565b600062000bb962001312565b848460405162000bc99062001561565b62000bd79392919062001c73565b604051809103906000f08015801562000bf4573d6000803e3d6000fd5b50905080600b600062000c0662001312565b6001600160a01b039081168252602082019290925260400160002080546001600160a01b0319169290911691909117905562000c44600c82620012f4565b507fc56d39a8764d7f046ab8cd558e154d3ed533bcf55188d9fe0930b41308e0d4f68162000c7162001312565b868660405162000c85949392919062001b9e565b60405180910390a190505b92915050565b600062000ca560098362001371565b62000de55760006007836001600160a01b03166395d89b416040518163ffffffff1660e01b815260040160006040518083038186803b15801562000ce857600080fd5b505afa15801562000cfd573d6000803e3d6000fd5b505050506040513d6000823e601f3d908101601f1916820160405262000d279190810190620017d8565b60405160200162000d3a92919062001a85565b60408051601f198184030181529082905260065463349f642f60e11b83529092506001600160a01b038086169291169063693ec85e9062000d8090859060040162001cb7565b60206040518083038186803b15801562000d9957600080fd5b505afa15801562000dae573d6000803e3d6000fd5b505050506040513d601f19601f8201168201806040525081019062000dd4919062001652565b6001600160a01b0316149392505050565b506001919050565b6000600b8162000dfc62001312565b6001600160a01b03908116825260208201929092526040016000205416141562000e625760405162461bcd60e51b815260206004820152601660248201527526b0b4b71d102337b93134b23232b71039b2b73232b960511b60448201526064016200058a565b6003546000906001600160a01b03166334964fe83062000e8162001312565b8b8b8b8b8b8b8b6040518a63ffffffff1660e01b815260040162000eae9998979695949392919062001beb565b602060405180830381600087803b15801562000ec957600080fd5b505af115801562000ede573d6000803e3d6000fd5b505050506040513d601f19601f8201168201806040525081019062000f04919062001652565b905062000f118162001394565b6000806000806000806000876001600160a01b031663fbbf93a06040518163ffffffff1660e01b815260040160006040518083038186803b15801562000f5657600080fd5b505afa15801562000f6b573d6000803e3d6000fd5b505050506040513d6000823e601f3d908101601f1916820160405262000f95919081019062001707565b9750975097509750975097509750507f9e3382252c81f10c9e7b057d9d2325af99ac8bc373f9ff3325a49f7c910356928862000fd062001312565b8989898989898960405162000fee9998979695949392919062001beb565b60405180910390a1505050505050505050505050505050565b6000546001600160a01b03163314620010635760405162461bcd60e51b815260206004820181905260248201527f4f776e61626c653a2063616c6c6572206973206e6f7420746865206f776e657260448201526064016200058a565b6001600160a01b038116620010ca5760405162461bcd60e51b815260206004820152602660248201527f4f776e61626c653a206e6577206f776e657220697320746865207a65726f206160448201526564647265737360d01b60648201526084016200058a565b620010d581620012a4565b50565b60045460055460065460078054600094859485946060946001600160a01b039384169492841693909116918190620011109062001e00565b80601f01602080910402602001604051908101604052809291908181526020018280546200113e9062001e00565b80156200118f5780601f1062001163576101008083540402835291602001916200118f565b820191906000526020600020905b8154815290600101906020018083116200117157829003601f168201915b50505050509050935093509350935090919293565b6000815160001415620011b957506000919050565b506020015190565b6000806001620011db620011d5886200145e565b620014dd565b6040805160008152602081018083529290925260ff861690820152606081018790526080810186905260a0016020604051602081039080840390855afa1580156200122a573d6000803e3d6000fd5b5050604051601f1901519150506001600160a01b038116620012835760405162461bcd60e51b8152602060048201526011602482015270496e76616c6964207369676e617475726560781b60448201526064016200058a565b866001600160a01b0316816001600160a01b03161491505095945050505050565b600080546001600160a01b038381166001600160a01b0319831681178455604051919092169283917f8be0079c531659141344cd1fd0a4f28419497f9722a3daafe3b4186f6b6457e09190a35050565b60006200130b836001600160a01b0384166200150f565b9392505050565b6000333014156200136b57600080368080601f0160208091040260200160405190810160405280939291908181526020018383808284376000920191909152505050503601516001600160a01b031691506200136e9050565b50335b90565b6001600160a01b038116600090815260018301602052604081205415156200130b565b6001600160a01b038116620013ec5760405162461bcd60e51b815260206004820152601e60248201527f4d61696e3a207375706572417070416464722063616e2774206265203078000060448201526064016200058a565b600480546040516379b9982960e11b81526001600160a01b0384811693820193909352600160248201819052929091169063f373305290604401600060405180830381600087803b1580156200144157600080fd5b505af115801562001456573d6000803e3d6000fd5b505050505050565b6000604051806080016040528060438152602001620027636043913980516020918201208351848301516040808701518051908601209051620014c0950193845260208401929092526001600160a01b03166040830152606082015260800190565b604051602081830303815290604052805190602001209050919050565b6000620014e960015490565b60405161190160f01b6020820152602281019190915260428101839052606201620014c0565b6000818152600183016020526040812054620015585750815460018181018455600084815260208082209093018490558454848252828601909352604090209190915562000c90565b50600062000c90565b6108ff8062001e6483390190565b600062001586620015808462001d7d565b62001d49565b90508281528383830111156200159b57600080fd5b828260208301376000602084830101529392505050565b8051620004f18162001e4d565b600082601f830112620015d0578081fd5b6200130b838335602085016200156f565b600082601f830112620015f2578081fd5b815162001603620015808262001d7d565b81815284602083860101111562001618578283fd5b6200162b82602083016020870162001dcd565b949350505050565b60006020828403121562001645578081fd5b81356200130b8162001e4d565b60006020828403121562001664578081fd5b81516200130b8162001e4d565b600080600080600060a0868803121562001689578081fd5b8535620016968162001e4d565b9450602086013567ffffffffffffffff811115620016b2578182fd5b8601601f81018813620016c3578182fd5b620016d4888235602084016200156f565b9450506040860135925060608601359150608086013560ff81168114620016f9578182fd5b809150509295509295909350565b600080600080600080600080610100898b03121562001724578283fd5b6200172f89620015b2565b9750602089015167ffffffffffffffff808211156200174c578485fd5b6200175a8c838d01620015e1565b985060408b015191508082111562001770578485fd5b6200177e8c838d01620015e1565b975060608b015196506200179560808c01620015b2565b955060a08b0151945060c08b0151935060e08b0151915080821115620017b9578283fd5b50620017c88b828c01620015e1565b9150509295985092959890939650565b600060208284031215620017ea578081fd5b815167ffffffffffffffff81111562001801578182fd5b6200162b84828501620015e1565b6000806040838503121562001822578182fd5b823567ffffffffffffffff808211156200183a578384fd5b6200184886838701620015bf565b935060208501359150808211156200185e578283fd5b506200186d85828601620015bf565b9150509250929050565b600080600080600080600060e0888a03121562001892578081fd5b873567ffffffffffffffff80821115620018aa578283fd5b620018b88b838c01620015bf565b985060208a0135915080821115620018ce578283fd5b620018dc8b838c01620015bf565b975060408a0135965060608a01359150620018f78262001e4d565b9094506080890135935060a0890135925060c089013590808211156200191b578283fd5b506200192a8a828b01620015bf565b91505092959891949750929550565b600081518084526200195381602086016020860162001dcd565b601f01601f19169290920160200192915050565b8054600090600181811c90808316806200198257607f831692505b6020808410821415620019a357634e487b7160e01b86526022600452602486fd5b818015620019ba5760018114620019cc57620019fb565b60ff19861689528489019650620019fb565b60008881526020902060005b86811015620019f35781548b820152908501908301620019d8565b505084890196505b50505050505092915050565b6000825162001a1b81846020870162001dcd565b9190910192915050565b6000835162001a3981846020880162001dcd565b60609390931b6bffffffffffffffffffffffff19169190920190815260140192915050565b6000825162001a7281846020870162001dcd565b600f60fb1b920191825250600101919050565b6a7375706572746f6b656e7360a81b81526000601760f91b80600b84015262001ab2600c84018662001967565b90815283519062001acb82600183016020880162001dcd565b01600101949350505050565b6a7375706572746f6b656e7360a81b81526000601760f91b80600b84015262001b04600c84018662001967565b90815283519062001b1d82600183016020880162001dcd565b600f60fb1b91016001810191909152600201949350505050565b65029bab832b9160d51b81526000825162001b5a81600685016020870162001dcd565b9190910160060192915050565b6001600160a01b0384811682528316602082015260606040820181905260009062001b959083018462001939565b95945050505050565b6001600160a01b0385811682528416602082015260806040820181905260009062001bcc9083018562001939565b828103606084015262001be0818562001939565b979650505050505050565b6001600160a01b038a8116825289811660208301526101206040830181905260009162001c1b8483018c62001939565b9150838203606085015262001c31828b62001939565b915088608085015280881660a0850152508560c08401528460e084015282810361010084015262001c63818562001939565b9c9b505050505050505050505050565b6001600160a01b038416815260606020820181905260009062001c999083018562001939565b828103604084015262001cad818562001939565b9695505050505050565b6020815260006200130b602083018462001939565b6001600160a01b038516815260006003851062001cf757634e487b7160e01b81526021600452602481fd5b8460208301526080604083015262001bcc608083018562001939565b6001600160a01b03858116825284811660208301528316604082015260806060820181905260009062001cad9083018462001939565b604051601f8201601f1916810167ffffffffffffffff8111828210171562001d755762001d7562001e37565b604052919050565b600067ffffffffffffffff82111562001d9a5762001d9a62001e37565b50601f01601f191660200190565b6000821982111562001dc857634e487b7160e01b81526011600452602481fd5b500190565b60005b8381101562001dea57818101518382015260200162001dd0565b8381111562001dfa576000848401525b50505050565b600181811c9082168062001e1557607f821691505b60208210811415620004ef57634e487b7160e01b600052602260045260246000fd5b634e487b7160e01b600052604160045260246000fd5b6001600160a01b0381168114620010d557600080fdfe60806040523480156200001157600080fd5b50604051620008ff380380620008ff833981016040819052620000349162000261565b6001600160a01b0383166200008f5760405162461bcd60e51b815260206004820152601f60248201527f557365723a204f776e657220416464726573732063616e277420626520307800604482015260640160405180910390fd5b60018054336001600160a01b031991821617909155600080549091166001600160a01b0385161790558151620000cd9060029060208501906200012c565b508051620000e39060039060208401906200012c565b507f5f92b67971e4cef263063e8830748d8da304fa4eeab94b76845f45f0881f7fb0308484846040516200011b949392919062000315565b60405180910390a1505050620003e8565b8280546200013a9062000395565b90600052602060002090601f0160209004810192826200015e5760008555620001a9565b82601f106200017957805160ff1916838001178555620001a9565b82800160010185558215620001a9579182015b82811115620001a95782518255916020019190600101906200018c565b50620001b7929150620001bb565b5090565b5b80821115620001b75760008155600101620001bc565b600082601f830112620001e3578081fd5b81516001600160401b0380821115620002005762000200620003d2565b604051601f8301601f19908116603f011681019082821181831017156200022b576200022b620003d2565b8160405283815286602085880101111562000244578485fd5b6200025784602083016020890162000362565b9695505050505050565b60008060006060848603121562000276578283fd5b83516001600160a01b03811681146200028d578384fd5b60208501519093506001600160401b0380821115620002aa578384fd5b620002b887838801620001d2565b93506040860151915080821115620002ce578283fd5b50620002dd86828701620001d2565b9150509250925092565b600081518084526200030181602086016020860162000362565b601f01601f19169290920160200192915050565b6001600160a01b038581168252841660208201526080604082018190526000906200034390830185620002e7565b8281036060840152620003578185620002e7565b979650505050505050565b60005b838110156200037f57818101518382015260200162000365565b838111156200038f576000848401525b50505050565b600181811c90821680620003aa57607f821691505b60208210811415620003cc57634e487b7160e01b600052602260045260246000fd5b50919050565b634e487b7160e01b600052604160045260246000fd5b61050780620003f86000396000f3fe608060405234801561001057600080fd5b50600436106100365760003560e01c8063f4c84d191461003b578063fbbf93a014610050575b600080fd5b61004e610049366004610394565b610070565b005b610058610134565b60405161006793929190610440565b60405180910390f35b6000546001600160a01b0316336001600160a01b0316146100cd5760405162461bcd60e51b81526020600482015260136024820152722ab9b2b91d102737ba103a34329037bbb732b960691b604482015260640160405180910390fd5b81516100e0906002906020850190610274565b5080516100f4906003906020840190610274565b507fe5d18d6612696bff7df1db8015eac613241613297fa2ba2783993e4fd0e76f3d30838360405161012893929190610440565b60405180910390a15050565b600060608060008054906101000a90046001600160a01b03166002600381805461015d90610480565b80601f016020809104026020016040519081016040528092919081815260200182805461018990610480565b80156101d65780601f106101ab576101008083540402835291602001916101d6565b820191906000526020600020905b8154815290600101906020018083116101b957829003601f168201915b505050505091508080546101e990610480565b80601f016020809104026020016040519081016040528092919081815260200182805461021590610480565b80156102625780601f1061023757610100808354040283529160200191610262565b820191906000526020600020905b81548152906001019060200180831161024557829003601f168201915b50505050509050925092509250909192565b82805461028090610480565b90600052602060002090601f0160209004810192826102a257600085556102e8565b82601f106102bb57805160ff19168380011785556102e8565b828001600101855582156102e8579182015b828111156102e85782518255916020019190600101906102cd565b506102f49291506102f8565b5090565b5b808211156102f457600081556001016102f9565b600082601f83011261031d578081fd5b813567ffffffffffffffff80821115610338576103386104bb565b604051601f8301601f19908116603f01168101908282118183101715610360576103606104bb565b81604052838152866020858801011115610378578485fd5b8360208701602083013792830160200193909352509392505050565b600080604083850312156103a6578182fd5b823567ffffffffffffffff808211156103bd578384fd5b6103c98683870161030d565b935060208501359150808211156103de578283fd5b506103eb8582860161030d565b9150509250929050565b60008151808452815b8181101561041a576020818501810151868301820152016103fe565b8181111561042b5782602083870101525b50601f01601f19169290920160200192915050565b6001600160a01b0384168152606060208201819052600090610464908301856103f5565b828103604084015261047681856103f5565b9695505050505050565b600181811c9082168061049457607f821691505b602082108114156104b557634e487b7160e01b600052602260045260246000fd5b50919050565b634e487b7160e01b600052604160045260246000fdfea26469706673582212202142b7ccec5498e29101fb49e07fcb8061855abc335550b75c225812f9655e2164736f6c634300080400334d6574615472616e73616374696f6e2875696e74323536206e6f6e63652c616464726573732066726f6d2c62797465732066756e6374696f6e5369676e617475726529a264697066735822122099e0729e5341a34139f343d8aeb154f47819b52f0dab103efb4994c40247d1c264736f6c63430008040033454950373132446f6d61696e28737472696e67206e616d652c737472696e672076657273696f6e2c6164647265737320766572696679696e67436f6e74726163742c627974657333322073616c7429",
  "linkReferences": {},
  "deployedLinkReferences": {}
}