{
  "_format": "hh-sol-artifact-1",
  "contractName": "Main",
  "sourceName": "contracts/Main.sol",
  "abi": [
    {
      "inputs": [
        {
          "internalType": "address",
          "name": "itemFactory",
          "type": "address"
        },
        {
          "internalType": "address",
          "name": "sfHost",
          "type": "address"
        },
        {
          "internalType": "address",
          "name": "sfCfa",
          "type": "address"
        },
        {
          "internalType": "address",
          "name": "sfResolver",
          "type": "address"
        },
        {
          "internalType": "string",
          "name": "sfVersion",
          "type": "string"
        }
      ],
      "stateMutability": "nonpayable",
      "type": "constructor"
    },
    {
      "anonymous": false,
      "inputs": [
        {
          "indexed": false,
          "internalType": "address",
          "name": "userAddress",
          "type": "address"
        },
        {
          "indexed": false,
          "internalType": "address payable",
          "name": "relayerAddress",
          "type": "address"
        },
        {
          "indexed": false,
          "internalType": "bytes",
          "name": "functionSignature",
          "type": "bytes"
        }
      ],
      "name": "MetaTransactionExecuted",
      "type": "event"
    },
    {
      "anonymous": false,
      "inputs": [
        {
          "indexed": true,
          "internalType": "address",
          "name": "previousOwner",
          "type": "address"
        },
        {
          "indexed": true,
          "internalType": "address",
          "name": "newOwner",
          "type": "address"
        }
      ],
      "name": "OwnershipTransferred",
      "type": "event"
    },
    {
      "anonymous": false,
      "inputs": [
        {
          "indexed": false,
          "internalType": "address",
          "name": "contractAddress",
          "type": "address"
        },
        {
          "indexed": false,
          "internalType": "address",
          "name": "owner",
          "type": "address"
        },
        {
          "indexed": false,
          "internalType": "string",
          "name": "name",
          "type": "string"
        },
        {
          "indexed": false,
          "internalType": "string",
          "name": "description",
          "type": "string"
        }
      ],
      "name": "UserDeployed",
      "type": "event"
    },
    {
      "inputs": [
        {
          "internalType": "contract ERC20WithTokenInfo",
          "name": "_token",
          "type": "address"
        }
      ],
      "name": "createSuperToken",
      "outputs": [
        {
          "internalType": "contract ISuperToken",
          "name": "superToken",
          "type": "address"
        }
      ],
      "stateMutability": "nonpayable",
      "type": "function"
    },
    {
      "inputs": [
        {
          "internalType": "address",
          "name": "owner",
          "type": "address"
        },
        {
          "internalType": "string",
          "name": "title",
          "type": "string"
        },
        {
          "internalType": "string",
          "name": "description",
          "type": "string"
        },
        {
          "internalType": "uint256",
          "name": "price",
          "type": "uint256"
        },
        {
          "internalType": "address",
          "name": "token",
          "type": "address"
        },
        {
          "internalType": "uint256",
          "name": "amount",
          "type": "uint256"
        },
        {
          "internalType": "uint256",
          "name": "endPaymentDate",
          "type": "uint256"
        },
        {
          "internalType": "string",
          "name": "uri",
          "type": "string"
        }
      ],
      "name": "deployItem",
      "outputs": [
        {
          "internalType": "contract Item",
          "name": "",
          "type": "address"
        }
      ],
      "stateMutability": "nonpayable",
      "type": "function"
    },
    {
      "inputs": [
        {
          "internalType": "string",
          "name": "name",
          "type": "string"
        },
        {
          "internalType": "string",
          "name": "description",
          "type": "string"
        }
      ],
      "name": "deployUser",
      "outputs": [
        {
          "internalType": "contract User",
          "name": "",
          "type": "address"
        }
      ],
      "stateMutability": "nonpayable",
      "type": "function"
    },
    {
      "inputs": [
        {
          "internalType": "address",
          "name": "",
          "type": "address"
        }
      ],
      "name": "deployedUsers",
      "outputs": [
        {
          "internalType": "address",
          "name": "",
          "type": "address"
        }
      ],
      "stateMutability": "view",
      "type": "function"
    },
    {
      "inputs": [
        {
          "internalType": "address",
          "name": "userAddress",
          "type": "address"
        },
        {
          "internalType": "bytes",
          "name": "functionSignature",
          "type": "bytes"
        },
        {
          "internalType": "bytes32",
          "name": "sigR",
          "type": "bytes32"
        },
        {
          "internalType": "bytes32",
          "name": "sigS",
          "type": "bytes32"
        },
        {
          "internalType": "uint8",
          "name": "sigV",
          "type": "uint8"
        }
      ],
      "name": "executeMetaTransaction",
      "outputs": [
        {
          "internalType": "bytes",
          "name": "",
          "type": "bytes"
        }
      ],
      "stateMutability": "payable",
      "type": "function"
    },
    {
      "inputs": [
        {
          "internalType": "address",
          "name": "user",
          "type": "address"
        }
      ],
      "name": "getDeployedUser",
      "outputs": [
        {
          "internalType": "address",
          "name": "",
          "type": "address"
        }
      ],
      "stateMutability": "view",
      "type": "function"
    },
    {
      "inputs": [
        {
          "internalType": "address",
          "name": "user",
          "type": "address"
        }
      ],
      "name": "getNonce",
      "outputs": [
        {
          "internalType": "uint256",
          "name": "nonce",
          "type": "uint256"
        }
      ],
      "stateMutability": "view",
      "type": "function"
    },
    {
      "inputs": [
        {
          "internalType": "contract ERC20WithTokenInfo",
          "name": "_token",
          "type": "address"
        }
      ],
      "name": "getSuperToken",
      "outputs": [
        {
          "internalType": "address",
          "name": "tokenAddress",
          "type": "address"
        }
      ],
      "stateMutability": "view",
      "type": "function"
    },
    {
      "inputs": [
        {
          "internalType": "contract ERC20WithTokenInfo",
          "name": "_token",
          "type": "address"
        }
      ],
      "name": "isSuperToken",
      "outputs": [
        {
          "internalType": "bool",
          "name": "",
          "type": "bool"
        }
      ],
      "stateMutability": "view",
      "type": "function"
    },
    {
      "inputs": [],
      "name": "owner",
      "outputs": [
        {
          "internalType": "address",
          "name": "",
          "type": "address"
        }
      ],
      "stateMutability": "view",
      "type": "function"
    },
    {
      "inputs": [],
      "name": "renounceOwnership",
      "outputs": [],
      "stateMutability": "nonpayable",
      "type": "function"
    },
    {
      "inputs": [
        {
          "internalType": "address",
          "name": "",
          "type": "address"
        }
      ],
      "name": "superTokenRegistry",
      "outputs": [
        {
          "internalType": "address",
          "name": "",
          "type": "address"
        }
      ],
      "stateMutability": "view",
      "type": "function"
    },
    {
      "inputs": [],
      "name": "superfluidConfig",
      "outputs": [
        {
          "internalType": "contract ISuperfluid",
          "name": "",
          "type": "address"
        },
        {
          "internalType": "contract IConstantFlowAgreementV1",
          "name": "",
          "type": "address"
        },
        {
          "internalType": "contract IResolver",
          "name": "",
          "type": "address"
        },
        {
          "internalType": "string",
          "name": "",
          "type": "string"
        }
      ],
      "stateMutability": "view",
      "type": "function"
    },
    {
      "inputs": [
        {
          "internalType": "address",
          "name": "newOwner",
          "type": "address"
        }
      ],
      "name": "transferOwnership",
      "outputs": [],
      "stateMutability": "nonpayable",
      "type": "function"
    }
  ],
  "bytecode": "0x60806040523480156200001157600080fd5b5060405162003068380380620030688339810160408190526200003491620003b5565b6040518060400160405280600481526020016326b0b4b760e11b815250604051806040016040528060018152602001603160f81b815250818162000087620000816200029a60201b60201c565b6200029e565b6040518060800160405280604f815260200162003019604f9139805190602001208280519060200120828051906020012030620000c9620002ee60201b60201c565b60408051602081019690965285019390935260608401919091526001600160a01b0316608083015260a082015260c00160408051601f198184030181529190528051602090910120600155505050506001600160a01b038416620001745760405162461bcd60e51b815260206004820152601e60248201527f4d61696e3a20486f737420416464726573732063616e2774206265203078000060448201526064015b60405180910390fd5b6001600160a01b038316620001cc5760405162461bcd60e51b815260206004820152601d60248201527f4d61696e3a2043464120416464726573732063616e277420626520307800000060448201526064016200016b565b6001600160a01b0382166200022f5760405162461bcd60e51b815260206004820152602260248201527f4d61696e3a205265736f6c76657220416464726573732063616e277420626520604482015261060f60f31b60648201526084016200016b565b600380546001600160a01b038088166001600160a01b0319928316179092556004805487841690831617905560058054868416908316179055600680549285169290911691909117905580516200028e906007906020840190620002f2565b5050505050506200052c565b3390565b600080546001600160a01b038381166001600160a01b0319831681178455604051919092169283917f8be0079c531659141344cd1fd0a4f28419497f9722a3daafe3b4186f6b6457e09190a35050565b4690565b8280546200030090620004d9565b90600052602060002090601f0160209004810192826200032457600085556200036f565b82601f106200033f57805160ff19168380011785556200036f565b828001600101855582156200036f579182015b828111156200036f57825182559160200191906001019062000352565b506200037d92915062000381565b5090565b5b808211156200037d576000815560010162000382565b80516001600160a01b0381168114620003b057600080fd5b919050565b600080600080600060a08688031215620003cd578081fd5b620003d88662000398565b94506020620003e981880162000398565b9450620003f96040880162000398565b9350620004096060880162000398565b60808801519093506001600160401b038082111562000426578384fd5b818901915089601f8301126200043a578384fd5b8151818111156200044f576200044f62000516565b604051601f8201601f19908116603f011681019083821181831017156200047a576200047a62000516565b816040528281528c8684870101111562000492578687fd5b8693505b82841015620004b5578484018601518185018701529285019262000496565b82841115620004c657868684830101525b8096505050505050509295509295909350565b600181811c90821680620004ee57607f821691505b602082108114156200051057634e487b7160e01b600052602260045260246000fd5b50919050565b634e487b7160e01b600052604160045260246000fd5b612add806200053c6000396000f3fe608060405260043610620000ef5760003560e01c8063996d52131162000089578063bb0c95571162000060578063bb0c955714620002da578063ce69fd6f14620002ff578063f2fde38b1462000335578063f6670545146200035a57600080fd5b8063996d5213146200023e578063a7403a32146200027b578063a8866adc14620002a057600080fd5b8063316b9c8011620000ca578063316b9c8014620001a5578063625392c314620001ca578063715018a614620002045780638da5cb5b146200021e57600080fd5b80630c08a5c414620000f45780630c53c51c14620001365780632d0335ab146200015c575b600080fd5b3480156200010157600080fd5b506200011962000113366004620013ff565b62000384565b6040516001600160a01b0390911681526020015b60405180910390f35b6200014d620001473660046200143d565b620004f6565b6040516200012d9190620019fd565b3480156200016957600080fd5b50620001966200017b366004620013ff565b6001600160a01b031660009081526002602052604090205490565b6040519081526020016200012d565b348015620001b257600080fd5b5062000119620001c4366004620014d3565b62000785565b348015620001d757600080fd5b5062000119620001e9366004620013ff565b600b602052600090815260409020546001600160a01b031681565b3480156200021157600080fd5b506200021c6200088c565b005b3480156200022b57600080fd5b506000546001600160a01b031662000119565b3480156200024b57600080fd5b50620001196200025d366004620013ff565b6001600160a01b039081166000908152600b60205260409020541690565b3480156200028857600080fd5b50620001196200029a366004620013ff565b620008f6565b348015620002ad57600080fd5b5062000119620002bf366004620013ff565b6008602052600090815260409020546001600160a01b031681565b348015620002e757600080fd5b5062000119620002f936600462001620565b62000c38565b3480156200030c57600080fd5b50620003246200031e366004620013ff565b62000d9d565b60405190151581526020016200012d565b3480156200034257600080fd5b506200021c62000354366004620013ff565b62000ef4565b3480156200036757600080fd5b506200037262000fc5565b6040516200012d949392919062001a59565b6000620003918262000d9d565b156200039b575090565b60006007836001600160a01b03166395d89b416040518163ffffffff1660e01b815260040160006040518083038186803b158015620003d957600080fd5b505afa158015620003ee573d6000803e3d6000fd5b505050506040513d6000823e601f3d908101601f19168201604052620004189190810190620015a4565b6040516020016200042b92919062001826565b60408051601f198184030181529082905260065463349f642f60e11b83529092506001600160a01b03169063693ec85e906200046c908490600401620019fd565b60206040518083038186803b1580156200048557600080fd5b505afa1580156200049a573d6000803e3d6000fd5b505050506040513d601f19601f82011682018060405250810190620004c091906200141e565b91506001600160a01b038216620004ef576001600160a01b038084166000908152600860205260409020541691505b505b919050565b60606000620005058662001091565b90506000356001600160e01b03199081169082161415620005935760405162461bcd60e51b815260206004820152603d60248201527f66756e6374696f6e5369676e61747572652063616e206e6f74206265206f662060448201527f657865637574654d6574615472616e73616374696f6e206d6574686f6400000060648201526084015b60405180910390fd5b604080516060810182526001600160a01b03891660008181526002602090815290849020548352820152908101879052620005d28882888888620010ae565b6200062a5760405162461bcd60e51b815260206004820152602160248201527f5369676e657220616e64207369676e617475726520646f206e6f74206d6174636044820152600d60fb1b60648201526084016200058a565b6001600160a01b0388166000908152600260205260409020546200065090600162001aee565b6001600160a01b038916600090815260026020908152604080832093909355915190918291309162000687918c918e910162001774565b60408051601f1981840301815290829052620006a39162001756565b6000604051808303816000865af19150503d8060008114620006e2576040519150601f19603f3d011682016040523d82523d6000602084013e620006e7565b606091505b5091509150816200073b5760405162461bcd60e51b815260206004820152601c60248201527f46756e6374696f6e2063616c6c206e6f74207375636365737366756c0000000060448201526064016200058a565b7f5845892132946850460bff5a0083f71031bc5bf9aadcd40f1de79423eac9b10b8a338b6040516200077093929190620018b6565b60405180910390a19998505050505050505050565b60006200079e6200079562001191565b600c90620011f0565b620007e55760405162461bcd60e51b815260206004820152601660248201527526b0b4b71d102337b93134b23232b71039b2b73232b960511b60448201526064016200058a565b600354604051630692c9fd60e31b81526000916001600160a01b0316906334964fe890620008289030908e908e908e908e908e908e908e908e9060040162001931565b602060405180830381600087803b1580156200084357600080fd5b505af115801562000858573d6000803e3d6000fd5b505050506040513d601f19601f820116820180604052508101906200087e91906200141e565b9a9950505050505050505050565b6000546001600160a01b03163314620008e85760405162461bcd60e51b815260206004820181905260248201527f4f776e61626c653a2063616c6c6572206973206e6f7420746865206f776e657260448201526064016200058a565b620008f4600062001215565b565b6000620009038262000d9d565b156200095e5760405162461bcd60e51b815260206004820152602360248201527f4d61696e3a20546f6b656e20697320616c72656164792061205375706572546f60448201526235b2b760e91b60648201526084016200058a565b6001600160a01b0382811660009081526008602052604090205416156200099e57506001600160a01b039081166000908152600860205260409020541690565b6000600460009054906101000a90046001600160a01b03166001600160a01b031663731aed6e6040518163ffffffff1660e01b815260040160206040518083038186803b158015620009ef57600080fd5b505afa15801562000a04573d6000803e3d6000fd5b505050506040513d601f19601f8201168201806040525081019062000a2a91906200141e565b90506000836001600160a01b03166306fdde036040518163ffffffff1660e01b815260040160006040518083038186803b15801562000a6857600080fd5b505afa15801562000a7d573d6000803e3d6000fd5b505050506040513d6000823e601f3d908101601f1916820160405262000aa79190810190620015a4565b60405160200162000ab9919062001886565b60405160208183030381529060405290506000846001600160a01b03166395d89b416040518163ffffffff1660e01b815260040160006040518083038186803b15801562000b0657600080fd5b505afa15801562000b1b573d6000803e3d6000fd5b505050506040513d6000823e601f3d908101601f1916820160405262000b459190810190620015a4565b60405160200162000b579190620017ad565b60408051601f198184030181529082905263431f148160e01b825291506001600160a01b0384169063431f14819062000b9c9088906002908790879060040162001a12565b602060405180830381600087803b15801562000bb757600080fd5b505af115801562000bcc573d6000803e3d6000fd5b505050506040513d601f19601f8201168201806040525081019062000bf291906200141e565b6001600160a01b03868116600090815260086020526040902080546001600160a01b031916918316919091179055935062000c2f60098562001265565b50505050919050565b600080600b8162000c4862001191565b6001600160a01b039081168252602082019290925260400160002054161462000cb45760405162461bcd60e51b815260206004820152601b60248201527f4d61696e3a205573657220616c7265616479206465706c6f796564000000000060448201526064016200058a565b600062000cc062001191565b848460405162000cd0906200137f565b62000cde93929190620019b9565b604051809103906000f08015801562000cfb573d6000803e3d6000fd5b50905080600b600062000d0d62001191565b6001600160a01b039081168252602082019290925260400160002080546001600160a01b0319169290911691909117905562000d4b600c8262001265565b507fc56d39a8764d7f046ab8cd558e154d3ed533bcf55188d9fe0930b41308e0d4f68162000d7862001191565b868660405162000d8c9493929190620018e4565b60405180910390a190505b92915050565b600062000dac600983620011f0565b62000eec5760006007836001600160a01b03166395d89b416040518163ffffffff1660e01b815260040160006040518083038186803b15801562000def57600080fd5b505afa15801562000e04573d6000803e3d6000fd5b505050506040513d6000823e601f3d908101601f1916820160405262000e2e9190810190620015a4565b60405160200162000e41929190620017d4565b60408051601f198184030181529082905260065463349f642f60e11b83529092506001600160a01b038086169291169063693ec85e9062000e87908590600401620019fd565b60206040518083038186803b15801562000ea057600080fd5b505afa15801562000eb5573d6000803e3d6000fd5b505050506040513d601f19601f8201168201806040525081019062000edb91906200141e565b6001600160a01b0316149392505050565b506001919050565b6000546001600160a01b0316331462000f505760405162461bcd60e51b815260206004820181905260248201527f4f776e61626c653a2063616c6c6572206973206e6f7420746865206f776e657260448201526064016200058a565b6001600160a01b03811662000fb75760405162461bcd60e51b815260206004820152602660248201527f4f776e61626c653a206e6577206f776e657220697320746865207a65726f206160448201526564647265737360d01b60648201526084016200058a565b62000fc28162001215565b50565b60045460055460065460078054600094859485946060946001600160a01b03938416949284169390911691819062000ffd9062001b46565b80601f01602080910402602001604051908101604052809291908181526020018280546200102b9062001b46565b80156200107c5780601f1062001050576101008083540402835291602001916200107c565b820191906000526020600020905b8154815290600101906020018083116200105e57829003601f168201915b50505050509050935093509350935090919293565b6000815160001415620010a657506000919050565b506020015190565b6000806001620010c8620010c2886200127c565b620012fb565b6040805160008152602081018083529290925260ff861690820152606081018790526080810186905260a0016020604051602081039080840390855afa15801562001117573d6000803e3d6000fd5b5050604051601f1901519150506001600160a01b038116620011705760405162461bcd60e51b8152602060048201526011602482015270496e76616c6964207369676e617475726560781b60448201526064016200058a565b866001600160a01b0316816001600160a01b03161491505095945050505050565b600033301415620011ea57600080368080601f0160208091040260200160405190810160405280939291908181526020018383808284376000920191909152505050503601516001600160a01b03169150620011ed9050565b50335b90565b6001600160a01b038116600090815260018301602052604081205415155b9392505050565b600080546001600160a01b038381166001600160a01b0319831681178455604051919092169283917f8be0079c531659141344cd1fd0a4f28419497f9722a3daafe3b4186f6b6457e09190a35050565b60006200120e836001600160a01b0384166200132d565b600060405180608001604052806043815260200162002a656043913980516020918201208351848301516040808701518051908601209051620012de950193845260208401929092526001600160a01b03166040830152606082015260800190565b604051602081830303815290604052805190602001209050919050565b60006200130760015490565b60405161190160f01b6020820152602281019190915260428101839052606201620012de565b6000818152600183016020526040812054620013765750815460018181018455600084815260208082209093018490558454848252828601909352604090209190915562000d97565b50600062000d97565b610ebb8062001baa83390190565b6000620013a46200139e8462001ac3565b62001a8f565b9050828152838383011115620013b957600080fd5b828260208301376000602084830101529392505050565b8035620004f18162001b93565b600082601f830112620013ee578081fd5b6200120e838335602085016200138d565b60006020828403121562001411578081fd5b81356200120e8162001b93565b60006020828403121562001430578081fd5b81516200120e8162001b93565b600080600080600060a0868803121562001455578081fd5b8535620014628162001b93565b9450602086013567ffffffffffffffff8111156200147e578182fd5b8601601f810188136200148f578182fd5b620014a0888235602084016200138d565b9450506040860135925060608601359150608086013560ff81168114620014c5578182fd5b809150509295509295909350565b600080600080600080600080610100898b031215620014f0578283fd5b620014fb89620013d0565b9750602089013567ffffffffffffffff8082111562001518578485fd5b620015268c838d01620013dd565b985060408b01359150808211156200153c578485fd5b6200154a8c838d01620013dd565b975060608b013596506200156160808c01620013d0565b955060a08b0135945060c08b0135935060e08b013591508082111562001585578283fd5b50620015948b828c01620013dd565b9150509295985092959890939650565b600060208284031215620015b6578081fd5b815167ffffffffffffffff811115620015cd578182fd5b8201601f81018413620015de578182fd5b8051620015ef6200139e8262001ac3565b81815285602083850101111562001604578384fd5b6200161782602083016020860162001b13565b95945050505050565b6000806040838503121562001633578182fd5b823567ffffffffffffffff808211156200164b578384fd5b6200165986838701620013dd565b935060208501359150808211156200166f578283fd5b506200167e85828601620013dd565b9150509250929050565b60008151808452620016a281602086016020860162001b13565b601f01601f19169290920160200192915050565b8054600090600181811c9080831680620016d157607f831692505b6020808410821415620016f257634e487b7160e01b86526022600452602486fd5b8180156200170957600181146200171b576200174a565b60ff198616895284890196506200174a565b60008881526020902060005b86811015620017425781548b82015290850190830162001727565b505084890196505b50505050505092915050565b600082516200176a81846020870162001b13565b9190910192915050565b600083516200178881846020880162001b13565b60609390931b6bffffffffffffffffffffffff19169190920190815260140192915050565b60008251620017c181846020870162001b13565b600f60fb1b920191825250600101919050565b6a7375706572746f6b656e7360a81b81526000601760f91b80600b84015262001801600c840186620016b6565b9081528351906200181a82600183016020880162001b13565b01600101949350505050565b6a7375706572746f6b656e7360a81b81526000601760f91b80600b84015262001853600c840186620016b6565b9081528351906200186c82600183016020880162001b13565b600f60fb1b91016001810191909152600201949350505050565b65029bab832b9160d51b815260008251620018a981600685016020870162001b13565b9190910160060192915050565b6001600160a01b03848116825283166020820152606060408201819052600090620016179083018462001688565b6001600160a01b03858116825284166020820152608060408201819052600090620019129083018562001688565b828103606084015262001926818562001688565b979650505050505050565b6001600160a01b038a81168252898116602083015261012060408301819052600091620019618483018c62001688565b9150838203606085015262001977828b62001688565b915088608085015280881660a0850152508560c08401528460e0840152828103610100840152620019a9818562001688565b9c9b505050505050505050505050565b6001600160a01b0384168152606060208201819052600090620019df9083018562001688565b8281036040840152620019f3818562001688565b9695505050505050565b6020815260006200120e602083018462001688565b6001600160a01b038516815260006003851062001a3d57634e487b7160e01b81526021600452602481fd5b8460208301526080604083015262001912608083018562001688565b6001600160a01b038581168252848116602083015283166040820152608060608201819052600090620019f39083018462001688565b604051601f8201601f1916810167ffffffffffffffff8111828210171562001abb5762001abb62001b7d565b604052919050565b600067ffffffffffffffff82111562001ae05762001ae062001b7d565b50601f01601f191660200190565b6000821982111562001b0e57634e487b7160e01b81526011600452602481fd5b500190565b60005b8381101562001b3057818101518382015260200162001b16565b8381111562001b40576000848401525b50505050565b600181811c9082168062001b5b57607f821691505b60208210811415620004ef57634e487b7160e01b600052602260045260246000fd5b634e487b7160e01b600052604160045260246000fd5b6001600160a01b038116811462000fc257600080fdfe60806040523480156200001157600080fd5b5060405162000ebb38038062000ebb833981016040819052620000349162000261565b6001600160a01b0383166200008f5760405162461bcd60e51b815260206004820152601f60248201527f557365723a204f776e657220416464726573732063616e277420626520307800604482015260640160405180910390fd5b60018054336001600160a01b031991821617909155600080549091166001600160a01b0385161790558151620000cd9060029060208501906200012c565b508051620000e39060039060208401906200012c565b507f5f92b67971e4cef263063e8830748d8da304fa4eeab94b76845f45f0881f7fb0308484846040516200011b949392919062000315565b60405180910390a1505050620003e8565b8280546200013a9062000395565b90600052602060002090601f0160209004810192826200015e5760008555620001a9565b82601f106200017957805160ff1916838001178555620001a9565b82800160010185558215620001a9579182015b82811115620001a95782518255916020019190600101906200018c565b50620001b7929150620001bb565b5090565b5b80821115620001b75760008155600101620001bc565b600082601f830112620001e3578081fd5b81516001600160401b0380821115620002005762000200620003d2565b604051601f8301601f19908116603f011681019082821181831017156200022b576200022b620003d2565b8160405283815286602085880101111562000244578485fd5b6200025784602083016020890162000362565b9695505050505050565b60008060006060848603121562000276578283fd5b83516001600160a01b03811681146200028d578384fd5b60208501519093506001600160401b0380821115620002aa578384fd5b620002b887838801620001d2565b93506040860151915080821115620002ce578283fd5b50620002dd86828701620001d2565b9150509250925092565b600081518084526200030181602086016020860162000362565b601f01601f19169290920160200192915050565b6001600160a01b038581168252841660208201526080604082018190526000906200034390830185620002e7565b8281036060840152620003578185620002e7565b979650505050505050565b60005b838110156200037f57818101518382015260200162000365565b838111156200038f576000848401525b50505050565b600181811c90821680620003aa57607f821691505b60208210811415620003cc57634e487b7160e01b600052602260045260246000fd5b50919050565b634e487b7160e01b600052604160045260246000fd5b610ac380620003f86000396000f3fe608060405234801561001057600080fd5b50600436106100415760003560e01c8063ec836cc314610046578063f4c84d191461005b578063fbbf93a01461006e575b600080fd5b61005961005436600461077f565b61008e565b005b61005961006936600461071e565b610286565b610076610346565b604051610085939291906108e3565b60405180910390f35b6000546001600160a01b0316336001600160a01b0316146100ec5760405162461bcd60e51b81526020600482015260136024820152722ab9b2b91d102737ba103a34329037bbb732b960691b60448201526064015b60405180910390fd5b600154600080546040516262d73960e71b815291926001600160a01b039081169263316b9c809261012f9216908c908c908c908c908c908c908c90600401610923565b602060405180830381600087803b15801561014957600080fd5b505af115801561015d573d6000803e3d6000fd5b505050506040513d601f19601f8201168201806040525081019061018191906106fb565b905061018e600482610486565b506000806000806000806000876001600160a01b031663fbbf93a06040518163ffffffff1660e01b815260040160006040518083038186803b1580156101d357600080fd5b505afa1580156101e7573d6000803e3d6000fd5b505050506040513d6000823e601f3d908101601f1916820160405261020f9190810190610638565b600054604051979f50959d50939b509199509750955093507f9e3382252c81f10c9e7b057d9d2325af99ac8bc373f9ff3325a49f7c91035692925061026d918b916001600160a01b0316908b908b908b908b908b908b908b90610861565b60405180910390a1505050505050505050505050505050565b6000546001600160a01b0316336001600160a01b0316146102df5760405162461bcd60e51b81526020600482015260136024820152722ab9b2b91d102737ba103a34329037bbb732b960691b60448201526064016100e3565b81516102f29060029060208501906104f3565b5080516103069060039060208401906104f3565b507fe5d18d6612696bff7df1db8015eac613241613297fa2ba2783993e4fd0e76f3d30838360405161033a939291906108e3565b60405180910390a15050565b600060608060008054906101000a90046001600160a01b03166002600381805461036f90610a24565b80601f016020809104026020016040519081016040528092919081815260200182805461039b90610a24565b80156103e85780601f106103bd576101008083540402835291602001916103e8565b820191906000526020600020905b8154815290600101906020018083116103cb57829003601f168201915b505050505091508080546103fb90610a24565b80601f016020809104026020016040519081016040528092919081815260200182805461042790610a24565b80156104745780601f1061044957610100808354040283529160200191610474565b820191906000526020600020905b81548152906001019060200180831161045757829003601f168201915b50505050509050925092509250909192565b600061049b836001600160a01b0384166104a4565b90505b92915050565b60008181526001830160205260408120546104eb5750815460018181018455600084815260208082209093018490558454848252828601909352604090209190915561049e565b50600061049e565b8280546104ff90610a24565b90600052602060002090601f0160209004810192826105215760008555610567565b82601f1061053a57805160ff1916838001178555610567565b82800160010185558215610567579182015b8281111561056757825182559160200191906001019061054c565b50610573929150610577565b5090565b5b808211156105735760008155600101610578565b805161059781610a75565b919050565b600082601f8301126105ac578081fd5b81356105bf6105ba826109cc565b61099b565b8181528460208386010111156105d3578283fd5b816020850160208301379081016020019190915292915050565b600082601f8301126105fd578081fd5b815161060b6105ba826109cc565b81815284602083860101111561061f578283fd5b6106308260208301602087016109f4565b949350505050565b600080600080600080600080610100898b031215610654578384fd5b61065d8961058c565b9750602089015167ffffffffffffffff80821115610679578586fd5b6106858c838d016105ed565b985060408b015191508082111561069a578586fd5b6106a68c838d016105ed565b975060608b015196506106bb60808c0161058c565b955060a08b0151945060c08b0151935060e08b01519150808211156106de578283fd5b506106eb8b828c016105ed565b9150509295985092959890939650565b60006020828403121561070c578081fd5b815161071781610a75565b9392505050565b60008060408385031215610730578182fd5b823567ffffffffffffffff80821115610747578384fd5b6107538683870161059c565b93506020850135915080821115610768578283fd5b506107758582860161059c565b9150509250929050565b600080600080600080600060e0888a031215610799578283fd5b873567ffffffffffffffff808211156107b0578485fd5b6107bc8b838c0161059c565b985060208a01359150808211156107d1578485fd5b6107dd8b838c0161059c565b975060408a0135965060608a013591506107f682610a75565b9094506080890135935060a0890135925060c08901359080821115610819578283fd5b506108268a828b0161059c565b91505092959891949750929550565b6000815180845261084d8160208601602086016109f4565b601f01601f19169290920160200192915050565b6001600160a01b038a8116825289811660208301526101206040830181905260009161088f8483018c610835565b915083820360608501526108a3828b610835565b915088608085015280881660a0850152508560c08401528460e08401528281036101008401526108d38185610835565b9c9b505050505050505050505050565b6001600160a01b038416815260606020820181905260009061090790830185610835565b82810360408401526109198185610835565b9695505050505050565b6001600160a01b038981168252610100602083018190526000916109498483018c610835565b9150838203604085015261095d828b610835565b91508860608501528088166080850152508560a08401528460c084015282810360e084015261098c8185610835565b9b9a5050505050505050505050565b604051601f8201601f1916810167ffffffffffffffff811182821017156109c4576109c4610a5f565b604052919050565b600067ffffffffffffffff8211156109e6576109e6610a5f565b50601f01601f191660200190565b60005b83811015610a0f5781810151838201526020016109f7565b83811115610a1e576000848401525b50505050565b600181811c90821680610a3857607f821691505b60208210811415610a5957634e487b7160e01b600052602260045260246000fd5b50919050565b634e487b7160e01b600052604160045260246000fd5b6001600160a01b0381168114610a8a57600080fd5b5056fea264697066735822122043de280e708827e73cd2eef0bf13e12ade2c69f5c338e3f0f0a976e6b9a4cafd64736f6c634300080400334d6574615472616e73616374696f6e2875696e74323536206e6f6e63652c616464726573732066726f6d2c62797465732066756e6374696f6e5369676e617475726529a26469706673582212208df40e0db017bbb84c9e89338b414a5fcf880b2a084021854b40d3be0b94ffbc64736f6c63430008040033454950373132446f6d61696e28737472696e67206e616d652c737472696e672076657273696f6e2c6164647265737320766572696679696e67436f6e74726163742c627974657333322073616c7429",
  "linkReferences": {},
  "deployedLinkReferences": {}
}