{
  "_format": "hh-sol-artifact-1",
  "contractName": "Main",
  "sourceName": "contracts/Main.sol",
  "abi": [
    {
      "inputs": [
        {
          "internalType": "address",
          "name": "itemFactory",
          "type": "address"
        },
        {
          "internalType": "address",
          "name": "sfHost",
          "type": "address"
        },
        {
          "internalType": "address",
          "name": "sfCfa",
          "type": "address"
        },
        {
          "internalType": "address",
          "name": "sfResolver",
          "type": "address"
        },
        {
          "internalType": "string",
          "name": "sfVersion",
          "type": "string"
        }
      ],
      "stateMutability": "nonpayable",
      "type": "constructor"
    },
    {
      "anonymous": false,
      "inputs": [
        {
          "indexed": true,
          "internalType": "address",
          "name": "previousOwner",
          "type": "address"
        },
        {
          "indexed": true,
          "internalType": "address",
          "name": "newOwner",
          "type": "address"
        }
      ],
      "name": "OwnershipTransferred",
      "type": "event"
    },
    {
      "anonymous": false,
      "inputs": [
        {
          "indexed": false,
          "internalType": "address",
          "name": "contractAddress",
          "type": "address"
        },
        {
          "indexed": false,
          "internalType": "address",
          "name": "owner",
          "type": "address"
        },
        {
          "indexed": false,
          "internalType": "string",
          "name": "name",
          "type": "string"
        },
        {
          "indexed": false,
          "internalType": "string",
          "name": "description",
          "type": "string"
        }
      ],
      "name": "UserDeployed",
      "type": "event"
    },
    {
      "inputs": [
        {
          "internalType": "contract ERC20WithTokenInfo",
          "name": "_token",
          "type": "address"
        }
      ],
      "name": "createSuperToken",
      "outputs": [
        {
          "internalType": "contract ISuperToken",
          "name": "superToken",
          "type": "address"
        }
      ],
      "stateMutability": "nonpayable",
      "type": "function"
    },
    {
      "inputs": [
        {
          "internalType": "address",
          "name": "owner",
          "type": "address"
        },
        {
          "internalType": "string",
          "name": "title",
          "type": "string"
        },
        {
          "internalType": "string",
          "name": "description",
          "type": "string"
        },
        {
          "internalType": "uint256",
          "name": "price",
          "type": "uint256"
        },
        {
          "internalType": "address",
          "name": "token",
          "type": "address"
        },
        {
          "internalType": "uint256",
          "name": "amount",
          "type": "uint256"
        },
        {
          "internalType": "uint256",
          "name": "endPaymentDate",
          "type": "uint256"
        },
        {
          "internalType": "string",
          "name": "uri",
          "type": "string"
        }
      ],
      "name": "deployItem",
      "outputs": [
        {
          "internalType": "contract Item",
          "name": "",
          "type": "address"
        }
      ],
      "stateMutability": "nonpayable",
      "type": "function"
    },
    {
      "inputs": [
        {
          "internalType": "string",
          "name": "name",
          "type": "string"
        },
        {
          "internalType": "string",
          "name": "description",
          "type": "string"
        }
      ],
      "name": "deployUser",
      "outputs": [
        {
          "internalType": "contract User",
          "name": "",
          "type": "address"
        }
      ],
      "stateMutability": "nonpayable",
      "type": "function"
    },
    {
      "inputs": [
        {
          "internalType": "address",
          "name": "",
          "type": "address"
        }
      ],
      "name": "deployedUsers",
      "outputs": [
        {
          "internalType": "address",
          "name": "",
          "type": "address"
        }
      ],
      "stateMutability": "view",
      "type": "function"
    },
    {
      "inputs": [
        {
          "internalType": "address",
          "name": "user",
          "type": "address"
        }
      ],
      "name": "getDeployedUser",
      "outputs": [
        {
          "internalType": "address",
          "name": "",
          "type": "address"
        }
      ],
      "stateMutability": "view",
      "type": "function"
    },
    {
      "inputs": [
        {
          "internalType": "contract ERC20WithTokenInfo",
          "name": "_token",
          "type": "address"
        }
      ],
      "name": "getSuperToken",
      "outputs": [
        {
          "internalType": "address",
          "name": "tokenAddress",
          "type": "address"
        }
      ],
      "stateMutability": "view",
      "type": "function"
    },
    {
      "inputs": [
        {
          "internalType": "contract ERC20WithTokenInfo",
          "name": "_token",
          "type": "address"
        }
      ],
      "name": "isSuperToken",
      "outputs": [
        {
          "internalType": "bool",
          "name": "",
          "type": "bool"
        }
      ],
      "stateMutability": "view",
      "type": "function"
    },
    {
      "inputs": [],
      "name": "owner",
      "outputs": [
        {
          "internalType": "address",
          "name": "",
          "type": "address"
        }
      ],
      "stateMutability": "view",
      "type": "function"
    },
    {
      "inputs": [],
      "name": "renounceOwnership",
      "outputs": [],
      "stateMutability": "nonpayable",
      "type": "function"
    },
    {
      "inputs": [
        {
          "internalType": "address",
          "name": "",
          "type": "address"
        }
      ],
      "name": "superTokenRegistry",
      "outputs": [
        {
          "internalType": "address",
          "name": "",
          "type": "address"
        }
      ],
      "stateMutability": "view",
      "type": "function"
    },
    {
      "inputs": [],
      "name": "superfluidConfig",
      "outputs": [
        {
          "internalType": "contract ISuperfluid",
          "name": "",
          "type": "address"
        },
        {
          "internalType": "contract IConstantFlowAgreementV1",
          "name": "",
          "type": "address"
        },
        {
          "internalType": "contract IResolver",
          "name": "",
          "type": "address"
        },
        {
          "internalType": "string",
          "name": "",
          "type": "string"
        }
      ],
      "stateMutability": "view",
      "type": "function"
    },
    {
      "inputs": [
        {
          "internalType": "address",
          "name": "newOwner",
          "type": "address"
        }
      ],
      "name": "transferOwnership",
      "outputs": [],
      "stateMutability": "nonpayable",
      "type": "function"
    }
  ],
  "bytecode": "0x60806040523480156200001157600080fd5b5060405162002879380380620028798339810160408190526200003491620002d4565b6200003f33620001c1565b6001600160a01b0384166200009b5760405162461bcd60e51b815260206004820152601e60248201527f4d61696e3a20486f737420416464726573732063616e2774206265203078000060448201526064015b60405180910390fd5b6001600160a01b038316620000f35760405162461bcd60e51b815260206004820152601d60248201527f4d61696e3a2043464120416464726573732063616e2774206265203078000000604482015260640162000092565b6001600160a01b038216620001565760405162461bcd60e51b815260206004820152602260248201527f4d61696e3a205265736f6c76657220416464726573732063616e277420626520604482015261060f60f31b606482015260840162000092565b600180546001600160a01b038088166001600160a01b031992831617909255600280548784169083161790556003805486841690831617905560048054928516929091169190911790558051620001b590600590602084019062000211565b5050505050506200044b565b600080546001600160a01b038381166001600160a01b0319831681178455604051919092169283917f8be0079c531659141344cd1fd0a4f28419497f9722a3daafe3b4186f6b6457e09190a35050565b8280546200021f90620003f8565b90600052602060002090601f0160209004810192826200024357600085556200028e565b82601f106200025e57805160ff19168380011785556200028e565b828001600101855582156200028e579182015b828111156200028e57825182559160200191906001019062000271565b506200029c929150620002a0565b5090565b5b808211156200029c5760008155600101620002a1565b80516001600160a01b0381168114620002cf57600080fd5b919050565b600080600080600060a08688031215620002ec578081fd5b620002f786620002b7565b9450602062000308818801620002b7565b94506200031860408801620002b7565b93506200032860608801620002b7565b60808801519093506001600160401b038082111562000345578384fd5b818901915089601f83011262000359578384fd5b8151818111156200036e576200036e62000435565b604051601f8201601f19908116603f0116810190838211818310171562000399576200039962000435565b816040528281528c86848701011115620003b1578687fd5b8693505b82841015620003d45784840186015181850187015292850192620003b5565b82841115620003e557868684830101525b8096505050505050509295509295909350565b600181811c908216806200040d57607f821691505b602082108114156200042f57634e487b7160e01b600052602260045260246000fd5b50919050565b634e487b7160e01b600052604160045260246000fd5b61241e806200045b6000396000f3fe60806040523480156200001157600080fd5b5060043610620000c35760003560e01c8063a7403a32116200007a578063a7403a32146200018c578063a8866adc14620001a3578063bb0c955714620001cf578063ce69fd6f14620001e6578063f2fde38b146200020e578063f6670545146200022557600080fd5b80630c08a5c414620000c8578063316b9c8014620000fc578063625392c31462000113578063715018a6146200013f5780638da5cb5b146200014b578063996d5213146200015d575b600080fd5b620000df620000d936600462000e8b565b62000241565b6040516001600160a01b0390911681526020015b60405180910390f35b620000df6200010d36600462000ec9565b620003b4565b620000df6200012436600462000e8b565b6009602052600090815260409020546001600160a01b031681565b62000149620004c1565b005b6000546001600160a01b0316620000df565b620000df6200016e36600462000e8b565b6001600160a01b039081166000908152600960205260409020541690565b620000df6200019d36600462000e8b565b6200052b565b620000df620001b436600462000e8b565b6006602052600090815260409020546001600160a01b031681565b620000df620001e036600462001016565b62000862565b620001fd620001f736600462000e8b565b62000989565b6040519015158152602001620000f3565b620001496200021f36600462000e8b565b62000adf565b6200022f62000bb0565b604051620000f39493929190620013b5565b60006200024e8262000989565b1562000258575090565b60006005836001600160a01b03166395d89b416040518163ffffffff1660e01b815260040160006040518083038186803b1580156200029657600080fd5b505afa158015620002ab573d6000803e3d6000fd5b505050506040513d6000823e601f3d908101601f19168201604052620002d5919081019062000f9a565b604051602001620002e8929190620011c5565b60408051601f19818403018152908290526004805463349f642f60e11b84529193506001600160a01b039091169163693ec85e916200032a91859101620013eb565b60206040518083038186803b1580156200034357600080fd5b505afa15801562000358573d6000803e3d6000fd5b505050506040513d601f19601f820116820180604052508101906200037e919062000eaa565b91506001600160a01b038216620003ad576001600160a01b038084166000908152600660205260409020541691505b505b919050565b6000620003c3600a3362000c7c565b6200040e5760405162461bcd60e51b815260206004820152601660248201527526b0b4b71d102337b93134b23232b71039b2b73232b960511b60448201526064015b60405180910390fd5b600154604051630692c9fd60e31b81526000916001600160a01b0316906334964fe890620004519030908e908e908e908e908e908e908e908e90600401620012a2565b602060405180830381600087803b1580156200046c57600080fd5b505af115801562000481573d6000803e3d6000fd5b505050506040513d601f19601f82011682018060405250810190620004a7919062000eaa565b9050620004b48162000ca1565b9998505050505050505050565b6000546001600160a01b031633146200051d5760405162461bcd60e51b815260206004820181905260248201527f4f776e61626c653a2063616c6c6572206973206e6f7420746865206f776e6572604482015260640162000405565b62000529600062000d66565b565b6000620005388262000989565b15620005935760405162461bcd60e51b815260206004820152602360248201527f4d61696e3a20546f6b656e20697320616c72656164792061205375706572546f60448201526235b2b760e91b606482015260840162000405565b6001600160a01b038281166000908152600660205260409020541615620005d357506001600160a01b039081166000908152600660205260409020541690565b6002546040805163398d76b760e11b815290516000926001600160a01b03169163731aed6e916004808301926020929190829003018186803b1580156200061957600080fd5b505afa1580156200062e573d6000803e3d6000fd5b505050506040513d601f19601f8201168201806040525081019062000654919062000eaa565b90506000836001600160a01b03166306fdde036040518163ffffffff1660e01b815260040160006040518083038186803b1580156200069257600080fd5b505afa158015620006a7573d6000803e3d6000fd5b505050506040513d6000823e601f3d908101601f19168201604052620006d1919081019062000f9a565b604051602001620006e3919062001225565b60405160208183030381529060405290506000846001600160a01b03166395d89b416040518163ffffffff1660e01b815260040160006040518083038186803b1580156200073057600080fd5b505afa15801562000745573d6000803e3d6000fd5b505050506040513d6000823e601f3d908101601f191682016040526200076f919081019062000f9a565b6040516020016200078191906200114c565b60408051601f198184030181529082905263431f148160e01b825291506001600160a01b0384169063431f148190620007c6908890600290879087906004016200136e565b602060405180830381600087803b158015620007e157600080fd5b505af1158015620007f6573d6000803e3d6000fd5b505050506040513d601f19601f820116820180604052508101906200081c919062000eaa565b6001600160a01b03868116600090815260066020526040902080546001600160a01b03191691831691909117905593506200085960078562000db6565b50505050919050565b336000908152600960205260408120546001600160a01b031615620008ca5760405162461bcd60e51b815260206004820152601b60248201527f4d61696e3a205573657220616c7265616479206465706c6f7965640000000000604482015260640162000405565b6000338484604051620008dd9062000e19565b620008eb939291906200132a565b604051809103906000f08015801562000908573d6000803e3d6000fd5b5033600090815260096020526040902080546001600160a01b0319166001600160a01b038316179055905062000940600a8262000db6565b507fc56d39a8764d7f046ab8cd558e154d3ed533bcf55188d9fe0930b41308e0d4f68133868660405162000978949392919062001255565b60405180910390a190505b92915050565b60006200099860078362000c7c565b62000ad75760006005836001600160a01b03166395d89b416040518163ffffffff1660e01b815260040160006040518083038186803b158015620009db57600080fd5b505afa158015620009f0573d6000803e3d6000fd5b505050506040513d6000823e601f3d908101601f1916820160405262000a1a919081019062000f9a565b60405160200162000a2d92919062001173565b60408051601f19818403018152908290526004805463349f642f60e11b84529193506001600160a01b038087169392169163693ec85e9162000a7291869101620013eb565b60206040518083038186803b15801562000a8b57600080fd5b505afa15801562000aa0573d6000803e3d6000fd5b505050506040513d601f19601f8201168201806040525081019062000ac6919062000eaa565b6001600160a01b0316149392505050565b506001919050565b6000546001600160a01b0316331462000b3b5760405162461bcd60e51b815260206004820181905260248201527f4f776e61626c653a2063616c6c6572206973206e6f7420746865206f776e6572604482015260640162000405565b6001600160a01b03811662000ba25760405162461bcd60e51b815260206004820152602660248201527f4f776e61626c653a206e6577206f776e657220697320746865207a65726f206160448201526564647265737360d01b606482015260840162000405565b62000bad8162000d66565b50565b60025460035460045460058054600094859485946060946001600160a01b03938416949284169390911691819062000be89062001492565b80601f016020809104026020016040519081016040528092919081815260200182805462000c169062001492565b801562000c675780601f1062000c3b5761010080835404028352916020019162000c67565b820191906000526020600020905b81548152906001019060200180831162000c4957829003601f168201915b50505050509050935093509350935090919293565b6001600160a01b038116600090815260018301602052604081205415155b9392505050565b6001600160a01b03811662000cf95760405162461bcd60e51b815260206004820152601e60248201527f4d61696e3a207375706572417070416464722063616e27742062652030780000604482015260640162000405565b6002546040516379b9982960e11b81526001600160a01b03838116600483015260016024830181905292169063f373305290604401600060405180830381600087803b15801562000d4957600080fd5b505af115801562000d5e573d6000803e3d6000fd5b505050505050565b600080546001600160a01b038381166001600160a01b0319831681178455604051919092169283917f8be0079c531659141344cd1fd0a4f28419497f9722a3daafe3b4186f6b6457e09190a35050565b600062000c9a836001600160a01b038416600081815260018301602052604081205462000e105750815460018181018455600084815260208082209093018490558454848252828601909352604090209190915562000983565b50600062000983565b610ef380620014f683390190565b8035620003af81620014df565b600082601f83011262000e45578081fd5b813562000e5c62000e568262001434565b62001400565b81815284602083860101111562000e71578283fd5b816020850160208301379081016020019190915292915050565b60006020828403121562000e9d578081fd5b813562000c9a81620014df565b60006020828403121562000ebc578081fd5b815162000c9a81620014df565b600080600080600080600080610100898b03121562000ee6578384fd5b62000ef18962000e27565b9750602089013567ffffffffffffffff8082111562000f0e578586fd5b62000f1c8c838d0162000e34565b985060408b013591508082111562000f32578586fd5b62000f408c838d0162000e34565b975060608b0135965062000f5760808c0162000e27565b955060a08b0135945060c08b0135935060e08b013591508082111562000f7b578283fd5b5062000f8a8b828c0162000e34565b9150509295985092959890939650565b60006020828403121562000fac578081fd5b815167ffffffffffffffff81111562000fc3578182fd5b8201601f8101841362000fd4578182fd5b805162000fe562000e568262001434565b81815285602083850101111562000ffa578384fd5b6200100d8260208301602086016200145f565b95945050505050565b6000806040838503121562001029578182fd5b823567ffffffffffffffff8082111562001041578384fd5b6200104f8683870162000e34565b9350602085013591508082111562001065578283fd5b50620010748582860162000e34565b9150509250929050565b60008151808452620010988160208601602086016200145f565b601f01601f19169290920160200192915050565b8054600090600181811c9080831680620010c757607f831692505b6020808410821415620010e857634e487b7160e01b86526022600452602486fd5b818015620010ff5760018114620011115762001140565b60ff1986168952848901965062001140565b60008881526020902060005b86811015620011385781548b8201529085019083016200111d565b505084890196505b50505050505092915050565b60008251620011608184602087016200145f565b600f60fb1b920191825250600101919050565b6a7375706572746f6b656e7360a81b81526000601760f91b80600b840152620011a0600c840186620010ac565b908152835190620011b98260018301602088016200145f565b01600101949350505050565b6a7375706572746f6b656e7360a81b81526000601760f91b80600b840152620011f2600c840186620010ac565b9081528351906200120b8260018301602088016200145f565b600f60fb1b91016001810191909152600201949350505050565b65029bab832b9160d51b815260008251620012488160068501602087016200145f565b9190910160060192915050565b6001600160a01b0385811682528416602082015260806040820181905260009062001283908301856200107e565b82810360608401526200129781856200107e565b979650505050505050565b6001600160a01b038a81168252898116602083015261012060408301819052600091620012d28483018c6200107e565b91508382036060850152620012e8828b6200107e565b915088608085015280881660a0850152508560c08401528460e08401528281036101008401526200131a81856200107e565b9c9b505050505050505050505050565b6001600160a01b038416815260606020820181905260009062001350908301856200107e565b82810360408401526200136481856200107e565b9695505050505050565b6001600160a01b03851681526000600385106200139957634e487b7160e01b81526021600452602481fd5b846020830152608060408301526200128360808301856200107e565b6001600160a01b03858116825284811660208301528316604082015260806060820181905260009062001364908301846200107e565b60208152600062000c9a60208301846200107e565b604051601f8201601f1916810167ffffffffffffffff811182821017156200142c576200142c620014c9565b604052919050565b600067ffffffffffffffff821115620014515762001451620014c9565b50601f01601f191660200190565b60005b838110156200147c57818101518382015260200162001462565b838111156200148c576000848401525b50505050565b600181811c90821680620014a757607f821691505b60208210811415620003ad57634e487b7160e01b600052602260045260246000fd5b634e487b7160e01b600052604160045260246000fd5b6001600160a01b038116811462000bad57600080fdfe60806040523480156200001157600080fd5b5060405162000ef338038062000ef3833981016040819052620000349162000261565b6001600160a01b0383166200008f5760405162461bcd60e51b815260206004820152601f60248201527f557365723a204f776e657220416464726573732063616e277420626520307800604482015260640160405180910390fd5b60018054336001600160a01b031991821617909155600080549091166001600160a01b0385161790558151620000cd9060029060208501906200012c565b508051620000e39060039060208401906200012c565b507f5f92b67971e4cef263063e8830748d8da304fa4eeab94b76845f45f0881f7fb0308484846040516200011b949392919062000315565b60405180910390a1505050620003e8565b8280546200013a9062000395565b90600052602060002090601f0160209004810192826200015e5760008555620001a9565b82601f106200017957805160ff1916838001178555620001a9565b82800160010185558215620001a9579182015b82811115620001a95782518255916020019190600101906200018c565b50620001b7929150620001bb565b5090565b5b80821115620001b75760008155600101620001bc565b600082601f830112620001e3578081fd5b81516001600160401b0380821115620002005762000200620003d2565b604051601f8301601f19908116603f011681019082821181831017156200022b576200022b620003d2565b8160405283815286602085880101111562000244578485fd5b6200025784602083016020890162000362565b9695505050505050565b60008060006060848603121562000276578283fd5b83516001600160a01b03811681146200028d578384fd5b60208501519093506001600160401b0380821115620002aa578384fd5b620002b887838801620001d2565b93506040860151915080821115620002ce578283fd5b50620002dd86828701620001d2565b9150509250925092565b600081518084526200030181602086016020860162000362565b601f01601f19169290920160200192915050565b6001600160a01b038581168252841660208201526080604082018190526000906200034390830185620002e7565b8281036060840152620003578185620002e7565b979650505050505050565b60005b838110156200037f57818101518382015260200162000365565b838111156200038f576000848401525b50505050565b600181811c90821680620003aa57607f821691505b60208210811415620003cc57634e487b7160e01b600052602260045260246000fd5b50919050565b634e487b7160e01b600052604160045260246000fd5b610afb80620003f86000396000f3fe608060405234801561001057600080fd5b50600436106100415760003560e01c8063ec836cc314610046578063f4c84d191461005b578063fbbf93a01461006e575b600080fd5b6100596100543660046107ab565b61008e565b005b61005961006936600461074a565b61028f565b61007661034f565b6040516100859392919061091b565b60405180910390f35b6000546001600160a01b0316336001600160a01b0316146100ec5760405162461bcd60e51b81526020600482015260136024820152722ab9b2b91d102737ba103a34329037bbb732b960691b60448201526064015b60405180910390fd5b600154600080546040516262d73960e71b815291926001600160a01b039081169263316b9c809261012f9216908c908c908c908c908c908c908c9060040161095b565b602060405180830381600087803b15801561014957600080fd5b505af115801561015d573d6000803e3d6000fd5b505050506040513d601f19601f820116820180604052508101906101819190610727565b905061018e60048261048f565b50600080600080600080600080886001600160a01b031663fbbf93a06040518163ffffffff1660e01b815260040160006040518083038186803b1580156101d457600080fd5b505afa1580156101e8573d6000803e3d6000fd5b505050506040513d6000823e601f3d908101601f191682016040526102109190810190610653565b98509850985098509850985098509850507fc284536a0596e5087d3a8a59e2078068fff09f9bcf3bbd13dd2f2c5877cc365f8960008054906101000a90046001600160a01b03168a8a8a8a8a8a8a8a6040516102759a9998979695949392919061088d565b60405180910390a150505050505050505050505050505050565b6000546001600160a01b0316336001600160a01b0316146102e85760405162461bcd60e51b81526020600482015260136024820152722ab9b2b91d102737ba103a34329037bbb732b960691b60448201526064016100e3565b81516102fb9060029060208501906104fc565b50805161030f9060039060208401906104fc565b507fe5d18d6612696bff7df1db8015eac613241613297fa2ba2783993e4fd0e76f3d3083836040516103439392919061091b565b60405180910390a15050565b600060608060008054906101000a90046001600160a01b03166002600381805461037890610a5c565b80601f01602080910402602001604051908101604052809291908181526020018280546103a490610a5c565b80156103f15780601f106103c6576101008083540402835291602001916103f1565b820191906000526020600020905b8154815290600101906020018083116103d457829003601f168201915b5050505050915080805461040490610a5c565b80601f016020809104026020016040519081016040528092919081815260200182805461043090610a5c565b801561047d5780601f106104525761010080835404028352916020019161047d565b820191906000526020600020905b81548152906001019060200180831161046057829003601f168201915b50505050509050925092509250909192565b60006104a4836001600160a01b0384166104ad565b90505b92915050565b60008181526001830160205260408120546104f4575081546001818101845560008481526020808220909301849055845484825282860190935260409020919091556104a7565b5060006104a7565b82805461050890610a5c565b90600052602060002090601f01602090048101928261052a5760008555610570565b82601f1061054357805160ff1916838001178555610570565b82800160010185558215610570579182015b82811115610570578251825591602001919060010190610555565b5061057c929150610580565b5090565b5b8082111561057c5760008155600101610581565b80516105a081610aad565b919050565b8051600b81900b81146105a057600080fd5b600082601f8301126105c7578081fd5b81356105da6105d582610a04565b6109d3565b8181528460208386010111156105ee578283fd5b816020850160208301379081016020019190915292915050565b600082601f830112610618578081fd5b81516106266105d582610a04565b81815284602083860101111561063a578283fd5b61064b826020830160208701610a2c565b949350505050565b60008060008060008060008060006101208a8c031215610671578485fd5b61067a8a610595565b985060208a015167ffffffffffffffff80821115610696578687fd5b6106a28d838e01610608565b995060408c01519150808211156106b7578687fd5b6106c38d838e01610608565b985060608c015197506106d860808d01610595565b965060a08c0151955060c08c0151945060e08c01519150808211156106fb578384fd5b506107088c828d01610608565b9250506107186101008b016105a5565b90509295985092959850929598565b600060208284031215610738578081fd5b815161074381610aad565b9392505050565b6000806040838503121561075c578182fd5b823567ffffffffffffffff80821115610773578384fd5b61077f868387016105b7565b93506020850135915080821115610794578283fd5b506107a1858286016105b7565b9150509250929050565b600080600080600080600060e0888a0312156107c5578283fd5b873567ffffffffffffffff808211156107dc578485fd5b6107e88b838c016105b7565b985060208a01359150808211156107fd578485fd5b6108098b838c016105b7565b975060408a0135965060608a0135915061082282610aad565b9094506080890135935060a0890135925060c08901359080821115610845578283fd5b506108528a828b016105b7565b91505092959891949750929550565b60008151808452610879816020860160208601610a2c565b601f01601f19169290920160200192915050565b6001600160a01b038b811682528a81166020830152610140604083018190526000916108bb8483018d610861565b915083820360608501526108cf828c610861565b915089608085015280891660a0850152508660c08401528560e08401528281036101008401526108ff8186610861565b91505082600b0b6101208301529b9a5050505050505050505050565b6001600160a01b038416815260606020820181905260009061093f90830185610861565b82810360408401526109518185610861565b9695505050505050565b6001600160a01b038981168252610100602083018190526000916109818483018c610861565b91508382036040850152610995828b610861565b91508860608501528088166080850152508560a08401528460c084015282810360e08401526109c48185610861565b9b9a5050505050505050505050565b604051601f8201601f1916810167ffffffffffffffff811182821017156109fc576109fc610a97565b604052919050565b600067ffffffffffffffff821115610a1e57610a1e610a97565b50601f01601f191660200190565b60005b83811015610a47578181015183820152602001610a2f565b83811115610a56576000848401525b50505050565b600181811c90821680610a7057607f821691505b60208210811415610a9157634e487b7160e01b600052602260045260246000fd5b50919050565b634e487b7160e01b600052604160045260246000fd5b6001600160a01b0381168114610ac257600080fd5b5056fea2646970667358221220e99595ae14bd6f506c3942dc2dffde7016fef619bc810a1eec7ce4cfebcef25864736f6c63430008040033a2646970667358221220d9cc2237882e427dff521b9e782f5f661e10697f0e28e09bdc9fbb7cfe9eb65264736f6c63430008040033",
  "linkReferences": {},
  "deployedLinkReferences": {}
}