{
  "_format": "hh-sol-artifact-1",
  "contractName": "Main",
  "sourceName": "contracts/Main.sol",
  "abi": [
    {
      "inputs": [
        {
          "internalType": "address",
          "name": "sfHost",
          "type": "address"
        },
        {
          "internalType": "address",
          "name": "sfCfa",
          "type": "address"
        },
        {
          "internalType": "address",
          "name": "sfResolver",
          "type": "address"
        },
        {
          "internalType": "string",
          "name": "sfVersion",
          "type": "string"
        }
      ],
      "stateMutability": "nonpayable",
      "type": "constructor"
    },
    {
      "anonymous": false,
      "inputs": [
        {
          "indexed": false,
          "internalType": "address",
          "name": "itemAddress",
          "type": "address"
        },
        {
          "indexed": false,
          "internalType": "address",
          "name": "user",
          "type": "address"
        },
        {
          "indexed": false,
          "internalType": "address",
          "name": "owner",
          "type": "address"
        },
        {
          "indexed": false,
          "internalType": "string",
          "name": "title",
          "type": "string"
        },
        {
          "indexed": false,
          "internalType": "string",
          "name": "description",
          "type": "string"
        },
        {
          "indexed": false,
          "internalType": "uint256",
          "name": "price",
          "type": "uint256"
        },
        {
          "indexed": false,
          "internalType": "address",
          "name": "token",
          "type": "address"
        },
        {
          "indexed": false,
          "internalType": "uint256",
          "name": "amount",
          "type": "uint256"
        },
        {
          "indexed": false,
          "internalType": "uint256",
          "name": "endPaymentDate",
          "type": "uint256"
        },
        {
          "indexed": false,
          "internalType": "string",
          "name": "uri",
          "type": "string"
        }
      ],
      "name": "ItemDeployed",
      "type": "event"
    },
    {
      "anonymous": false,
      "inputs": [
        {
          "indexed": false,
          "internalType": "address",
          "name": "userAddress",
          "type": "address"
        },
        {
          "indexed": false,
          "internalType": "address payable",
          "name": "relayerAddress",
          "type": "address"
        },
        {
          "indexed": false,
          "internalType": "bytes",
          "name": "functionSignature",
          "type": "bytes"
        }
      ],
      "name": "MetaTransactionExecuted",
      "type": "event"
    },
    {
      "anonymous": false,
      "inputs": [
        {
          "indexed": true,
          "internalType": "address",
          "name": "previousOwner",
          "type": "address"
        },
        {
          "indexed": true,
          "internalType": "address",
          "name": "newOwner",
          "type": "address"
        }
      ],
      "name": "OwnershipTransferred",
      "type": "event"
    },
    {
      "anonymous": false,
      "inputs": [
        {
          "indexed": false,
          "internalType": "address",
          "name": "contractAddress",
          "type": "address"
        },
        {
          "indexed": false,
          "internalType": "address",
          "name": "owner",
          "type": "address"
        },
        {
          "indexed": false,
          "internalType": "string",
          "name": "name",
          "type": "string"
        },
        {
          "indexed": false,
          "internalType": "string",
          "name": "description",
          "type": "string"
        }
      ],
      "name": "UserDeployed",
      "type": "event"
    },
    {
      "inputs": [
        {
          "internalType": "contract ERC20WithTokenInfo",
          "name": "_token",
          "type": "address"
        }
      ],
      "name": "createSuperToken",
      "outputs": [
        {
          "internalType": "contract ISuperToken",
          "name": "superToken",
          "type": "address"
        }
      ],
      "stateMutability": "nonpayable",
      "type": "function"
    },
    {
      "inputs": [
        {
          "internalType": "string",
          "name": "title",
          "type": "string"
        },
        {
          "internalType": "string",
          "name": "description",
          "type": "string"
        },
        {
          "internalType": "uint256",
          "name": "price",
          "type": "uint256"
        },
        {
          "internalType": "address",
          "name": "token",
          "type": "address"
        },
        {
          "internalType": "uint256",
          "name": "amount",
          "type": "uint256"
        },
        {
          "internalType": "uint256",
          "name": "endPaymentDate",
          "type": "uint256"
        },
        {
          "internalType": "string",
          "name": "uri",
          "type": "string"
        }
      ],
      "name": "deployItem",
      "outputs": [],
      "stateMutability": "nonpayable",
      "type": "function"
    },
    {
      "inputs": [
        {
          "internalType": "string",
          "name": "name",
          "type": "string"
        },
        {
          "internalType": "string",
          "name": "description",
          "type": "string"
        }
      ],
      "name": "deployUser",
      "outputs": [
        {
          "internalType": "contract User",
          "name": "",
          "type": "address"
        }
      ],
      "stateMutability": "nonpayable",
      "type": "function"
    },
    {
      "inputs": [
        {
          "internalType": "address",
          "name": "",
          "type": "address"
        }
      ],
      "name": "deployedUsers",
      "outputs": [
        {
          "internalType": "address",
          "name": "",
          "type": "address"
        }
      ],
      "stateMutability": "view",
      "type": "function"
    },
    {
      "inputs": [
        {
          "internalType": "address",
          "name": "userAddress",
          "type": "address"
        },
        {
          "internalType": "bytes",
          "name": "functionSignature",
          "type": "bytes"
        },
        {
          "internalType": "bytes32",
          "name": "sigR",
          "type": "bytes32"
        },
        {
          "internalType": "bytes32",
          "name": "sigS",
          "type": "bytes32"
        },
        {
          "internalType": "uint8",
          "name": "sigV",
          "type": "uint8"
        }
      ],
      "name": "executeMetaTransaction",
      "outputs": [
        {
          "internalType": "bytes",
          "name": "",
          "type": "bytes"
        }
      ],
      "stateMutability": "payable",
      "type": "function"
    },
    {
      "inputs": [
        {
          "internalType": "address",
          "name": "user",
          "type": "address"
        }
      ],
      "name": "getDeployedUser",
      "outputs": [
        {
          "internalType": "address",
          "name": "",
          "type": "address"
        }
      ],
      "stateMutability": "view",
      "type": "function"
    },
    {
      "inputs": [
        {
          "internalType": "address",
          "name": "user",
          "type": "address"
        }
      ],
      "name": "getNonce",
      "outputs": [
        {
          "internalType": "uint256",
          "name": "nonce",
          "type": "uint256"
        }
      ],
      "stateMutability": "view",
      "type": "function"
    },
    {
      "inputs": [
        {
          "internalType": "contract ERC20WithTokenInfo",
          "name": "_token",
          "type": "address"
        }
      ],
      "name": "getSuperToken",
      "outputs": [
        {
          "internalType": "address",
          "name": "tokenAddress",
          "type": "address"
        }
      ],
      "stateMutability": "view",
      "type": "function"
    },
    {
      "inputs": [
        {
          "internalType": "contract ERC20WithTokenInfo",
          "name": "_token",
          "type": "address"
        }
      ],
      "name": "isSuperToken",
      "outputs": [
        {
          "internalType": "bool",
          "name": "",
          "type": "bool"
        }
      ],
      "stateMutability": "view",
      "type": "function"
    },
    {
      "inputs": [],
      "name": "owner",
      "outputs": [
        {
          "internalType": "address",
          "name": "",
          "type": "address"
        }
      ],
      "stateMutability": "view",
      "type": "function"
    },
    {
      "inputs": [],
      "name": "renounceOwnership",
      "outputs": [],
      "stateMutability": "nonpayable",
      "type": "function"
    },
    {
      "inputs": [
        {
          "internalType": "address",
          "name": "itemFactory",
          "type": "address"
        }
      ],
      "name": "setItemFactory",
      "outputs": [],
      "stateMutability": "nonpayable",
      "type": "function"
    },
    {
      "inputs": [
        {
          "internalType": "address",
          "name": "",
          "type": "address"
        }
      ],
      "name": "superTokenRegistry",
      "outputs": [
        {
          "internalType": "address",
          "name": "",
          "type": "address"
        }
      ],
      "stateMutability": "view",
      "type": "function"
    },
    {
      "inputs": [],
      "name": "superfluidConfig",
      "outputs": [
        {
          "internalType": "contract ISuperfluid",
          "name": "",
          "type": "address"
        },
        {
          "internalType": "contract IConstantFlowAgreementV1",
          "name": "",
          "type": "address"
        },
        {
          "internalType": "contract IResolver",
          "name": "",
          "type": "address"
        },
        {
          "internalType": "string",
          "name": "",
          "type": "string"
        }
      ],
      "stateMutability": "view",
      "type": "function"
    },
    {
      "inputs": [
        {
          "internalType": "address",
          "name": "newOwner",
          "type": "address"
        }
      ],
      "name": "transferOwnership",
      "outputs": [],
      "stateMutability": "nonpayable",
      "type": "function"
    }
  ],
  "bytecode": "0x60806040523480156200001157600080fd5b5060405162002e9538038062002e9583398101604081905262000034916200039c565b6040518060400160405280600481526020016326b0b4b760e11b815250604051806040016040528060018152602001603160f81b815250818162000087620000816200028160201b60201c565b62000285565b6040518060800160405280604f815260200162002e46604f9139805190602001208280519060200120828051906020012030620000c9620002d560201b60201c565b60408051602081019690965285019390935260608401919091526001600160a01b0316608083015260a082015260c00160408051601f198184030181529190528051602090910120600155505050506001600160a01b038416620001745760405162461bcd60e51b815260206004820152601660248201527f4d61696e3a20486f73742063616e27742062652030780000000000000000000060448201526064015b60405180910390fd5b6001600160a01b038316620001cc5760405162461bcd60e51b815260206004820152601560248201527f4d61696e3a204346412063616e2774206265203078000000000000000000000060448201526064016200016b565b6001600160a01b038216620002245760405162461bcd60e51b815260206004820152601a60248201527f4d61696e3a205265736f6c7665722063616e277420626520307800000000000060448201526064016200016b565b600480546001600160a01b038087166001600160a01b031992831617909255600580548684169083161790556006805492851692909116919091179055805162000276906007906020840190620002d9565b5050505050620004fe565b3390565b600080546001600160a01b038381166001600160a01b0319831681178455604051919092169283917f8be0079c531659141344cd1fd0a4f28419497f9722a3daafe3b4186f6b6457e09190a35050565b4690565b828054620002e790620004ab565b90600052602060002090601f0160209004810192826200030b576000855562000356565b82601f106200032657805160ff191683800117855562000356565b8280016001018555821562000356579182015b828111156200035657825182559160200191906001019062000339565b506200036492915062000368565b5090565b5b8082111562000364576000815560010162000369565b80516001600160a01b03811681146200039757600080fd5b919050565b60008060008060808587031215620003b2578384fd5b620003bd856200037f565b93506020620003ce8187016200037f565b9350620003de604087016200037f565b60608701519093506001600160401b0380821115620003fb578384fd5b818801915088601f8301126200040f578384fd5b815181811115620004245762000424620004e8565b604051601f8201601f19908116603f011681019083821181831017156200044f576200044f620004e8565b816040528281528b8684870101111562000467578687fd5b8693505b828410156200048a57848401860151818501870152928501926200046b565b828411156200049b57868684830101525b989b979a50959850505050505050565b600181811c90821680620004c057607f821691505b60208210811415620004e257634e487b7160e01b600052602260045260246000fd5b50919050565b634e487b7160e01b600052604160045260246000fd5b612938806200050e6000396000f3fe608060405260043610620000fb5760003560e01c8063996d52131162000095578063ce69fd6f1162000060578063ce69fd6f146200030b578063ec836cc31462000341578063f2fde38b1462000366578063f6670545146200038b57600080fd5b8063996d5213146200024a578063a7403a321462000287578063a8866adc14620002ac578063bb0c955714620002e657600080fd5b80632d0335ab11620000d65780632d0335ab146200018f578063625392c314620001d8578063715018a614620002125780638da5cb5b146200022a57600080fd5b80630c08a5c414620001005780630c53c51c14620001425780631b345af11462000168575b600080fd5b3480156200010d57600080fd5b50620001256200011f36600462001708565b620003b5565b6040516001600160a01b0390911681526020015b60405180910390f35b620001596200015336600462001746565b62000527565b60405162000139919062001e14565b3480156200017557600080fd5b506200018d6200018736600462001708565b620007b6565b005b3480156200019c57600080fd5b50620001c9620001ae36600462001708565b6001600160a01b031660009081526002602052604090205490565b60405190815260200162000139565b348015620001e557600080fd5b5062000125620001f736600462001708565b600b602052600090815260409020546001600160a01b031681565b3480156200021f57600080fd5b506200018d62000830565b3480156200023757600080fd5b506000546001600160a01b031662000125565b3480156200025757600080fd5b50620001256200026936600462001708565b6001600160a01b039081166000908152600b60205260409020541690565b3480156200029457600080fd5b5062000125620002a636600462001708565b6200089a565b348015620002b957600080fd5b5062000125620002cb36600462001708565b6008602052600090815260409020546001600160a01b031681565b348015620002f357600080fd5b506200012562000305366004620018e4565b62000bdc565b3480156200031857600080fd5b50620003306200032a36600462001708565b62000d41565b604051901515815260200162000139565b3480156200034e57600080fd5b506200018d620003603660046200194c565b62000e98565b3480156200037357600080fd5b506200018d6200038536600462001708565b620010dc565b3480156200039857600080fd5b50620003a3620011ad565b60405162000139949392919062001e70565b6000620003c28262000d41565b15620003cc575090565b60006007836001600160a01b03166395d89b416040518163ffffffff1660e01b815260040160006040518083038186803b1580156200040a57600080fd5b505afa1580156200041f573d6000803e3d6000fd5b505050506040513d6000823e601f3d908101601f19168201604052620004499190810190620018ad565b6040516020016200045c92919062001bac565b60408051601f198184030181529082905260065463349f642f60e11b83529092506001600160a01b03169063693ec85e906200049d90849060040162001e14565b60206040518083038186803b158015620004b657600080fd5b505afa158015620004cb573d6000803e3d6000fd5b505050506040513d601f19601f82011682018060405250810190620004f1919062001727565b91506001600160a01b03821662000520576001600160a01b038084166000908152600860205260409020541691505b505b919050565b60606000620005368662001279565b90506000356001600160e01b03199081169082161415620005c45760405162461bcd60e51b815260206004820152603d60248201527f66756e6374696f6e5369676e61747572652063616e206e6f74206265206f662060448201527f657865637574654d6574615472616e73616374696f6e206d6574686f6400000060648201526084015b60405180910390fd5b604080516060810182526001600160a01b0389166000818152600260209081529084902054835282015290810187905262000603888288888862001296565b6200065b5760405162461bcd60e51b815260206004820152602160248201527f5369676e657220616e64207369676e617475726520646f206e6f74206d6174636044820152600d60fb1b6064820152608401620005bb565b6001600160a01b0388166000908152600260205260409020546200068190600162001f05565b6001600160a01b0389166000908152600260209081526040808320939093559151909182913091620006b8918c918e910162001afa565b60408051601f1981840301815290829052620006d49162001adc565b6000604051808303816000865af19150503d806000811462000713576040519150601f19603f3d011682016040523d82523d6000602084013e62000718565b606091505b5091509150816200076c5760405162461bcd60e51b815260206004820152601c60248201527f46756e6374696f6e2063616c6c206e6f74207375636365737366756c000000006044820152606401620005bb565b7f5845892132946850460bff5a0083f71031bc5bf9aadcd40f1de79423eac9b10b8a338b604051620007a19392919062001c3c565b60405180910390a19998505050505050505050565b6001600160a01b0381166200080e5760405162461bcd60e51b815260206004820152601d60248201527f4d61696e3a206974656d466163746f72792063616e27742062652030780000006044820152606401620005bb565b600380546001600160a01b0319166001600160a01b0392909216919091179055565b6000546001600160a01b031633146200088c5760405162461bcd60e51b815260206004820181905260248201527f4f776e61626c653a2063616c6c6572206973206e6f7420746865206f776e65726044820152606401620005bb565b62000898600062001379565b565b6000620008a78262000d41565b15620009025760405162461bcd60e51b815260206004820152602360248201527f4d61696e3a20546f6b656e20697320616c72656164792061205375706572546f60448201526235b2b760e91b6064820152608401620005bb565b6001600160a01b0382811660009081526008602052604090205416156200094257506001600160a01b039081166000908152600860205260409020541690565b6000600460009054906101000a90046001600160a01b03166001600160a01b031663731aed6e6040518163ffffffff1660e01b815260040160206040518083038186803b1580156200099357600080fd5b505afa158015620009a8573d6000803e3d6000fd5b505050506040513d601f19601f82011682018060405250810190620009ce919062001727565b90506000836001600160a01b03166306fdde036040518163ffffffff1660e01b815260040160006040518083038186803b15801562000a0c57600080fd5b505afa15801562000a21573d6000803e3d6000fd5b505050506040513d6000823e601f3d908101601f1916820160405262000a4b9190810190620018ad565b60405160200162000a5d919062001c0c565b60405160208183030381529060405290506000846001600160a01b03166395d89b416040518163ffffffff1660e01b815260040160006040518083038186803b15801562000aaa57600080fd5b505afa15801562000abf573d6000803e3d6000fd5b505050506040513d6000823e601f3d908101601f1916820160405262000ae99190810190620018ad565b60405160200162000afb919062001b33565b60408051601f198184030181529082905263431f148160e01b825291506001600160a01b0384169063431f14819062000b409088906002908790879060040162001e29565b602060405180830381600087803b15801562000b5b57600080fd5b505af115801562000b70573d6000803e3d6000fd5b505050506040513d601f19601f8201168201806040525081019062000b96919062001727565b6001600160a01b03868116600090815260086020526040902080546001600160a01b031916918316919091179055935062000bd3600985620013c9565b50505050919050565b600080600b8162000bec620013e7565b6001600160a01b039081168252602082019290925260400160002054161462000c585760405162461bcd60e51b815260206004820152601b60248201527f4d61696e3a205573657220616c7265616479206465706c6f79656400000000006044820152606401620005bb565b600062000c64620013e7565b848460405162000c749062001636565b62000c829392919062001d52565b604051809103906000f08015801562000c9f573d6000803e3d6000fd5b50905080600b600062000cb1620013e7565b6001600160a01b039081168252602082019290925260400160002080546001600160a01b0319169290911691909117905562000cef600c82620013c9565b507fc56d39a8764d7f046ab8cd558e154d3ed533bcf55188d9fe0930b41308e0d4f68162000d1c620013e7565b868660405162000d30949392919062001d05565b60405180910390a190505b92915050565b600062000d5060098362001446565b62000e905760006007836001600160a01b03166395d89b416040518163ffffffff1660e01b815260040160006040518083038186803b15801562000d9357600080fd5b505afa15801562000da8573d6000803e3d6000fd5b505050506040513d6000823e601f3d908101601f1916820160405262000dd29190810190620018ad565b60405160200162000de592919062001b5a565b60408051601f198184030181529082905260065463349f642f60e11b83529092506001600160a01b038086169291169063693ec85e9062000e2b90859060040162001e14565b60206040518083038186803b15801562000e4457600080fd5b505afa15801562000e59573d6000803e3d6000fd5b505050506040513d601f19601f8201168201806040525081019062000e7f919062001727565b6001600160a01b0316149392505050565b506001919050565b6000600b8162000ea7620013e7565b6001600160a01b03908116825260208201929092526040016000205416141562000f0d5760405162461bcd60e51b815260206004820152601660248201527526b0b4b71d102337b93134b23232b71039b2b73232b960511b6044820152606401620005bb565b6003546000906001600160a01b031663316b9c8062000f2b620013e7565b8a8a8a8a8a8a8a6040518963ffffffff1660e01b815260040162000f5798979695949392919062001d96565b602060405180830381600087803b15801562000f7257600080fd5b505af115801562000f87573d6000803e3d6000fd5b505050506040513d601f19601f8201168201806040525081019062000fad919062001727565b905062000fba8162001469565b6000806000806000806000876001600160a01b031663fbbf93a06040518163ffffffff1660e01b815260040160006040518083038186803b15801562000fff57600080fd5b505afa15801562001014573d6000803e3d6000fd5b505050506040513d6000823e601f3d908101601f191682016040526200103e9190810190620017dc565b9750975097509750975097509750507f24508bd99f5d819534284519df71df1b950e64ec9d6173ac7d503944ff15ea5088600b60006200107d620013e7565b6001600160a01b03908116825260208201929092526040016000205416620010a4620013e7565b8a8a8a8a8a8a8a604051620010c39a9998979695949392919062001c73565b60405180910390a1505050505050505050505050505050565b6000546001600160a01b03163314620011385760405162461bcd60e51b815260206004820181905260248201527f4f776e61626c653a2063616c6c6572206973206e6f7420746865206f776e65726044820152606401620005bb565b6001600160a01b0381166200119f5760405162461bcd60e51b815260206004820152602660248201527f4f776e61626c653a206e6577206f776e657220697320746865207a65726f206160448201526564647265737360d01b6064820152608401620005bb565b620011aa8162001379565b50565b60045460055460065460078054600094859485946060946001600160a01b039384169492841693909116918190620011e59062001f5d565b80601f0160208091040260200160405190810160405280929190818152602001828054620012139062001f5d565b8015620012645780601f10620012385761010080835404028352916020019162001264565b820191906000526020600020905b8154815290600101906020018083116200124657829003601f168201915b50505050509050935093509350935090919293565b60008151600014156200128e57506000919050565b506020015190565b6000806001620012b0620012aa8862001533565b620015b2565b6040805160008152602081018083529290925260ff861690820152606081018790526080810186905260a0016020604051602081039080840390855afa158015620012ff573d6000803e3d6000fd5b5050604051601f1901519150506001600160a01b038116620013585760405162461bcd60e51b8152602060048201526011602482015270496e76616c6964207369676e617475726560781b6044820152606401620005bb565b866001600160a01b0316816001600160a01b03161491505095945050505050565b600080546001600160a01b038381166001600160a01b0319831681178455604051919092169283917f8be0079c531659141344cd1fd0a4f28419497f9722a3daafe3b4186f6b6457e09190a35050565b6000620013e0836001600160a01b038416620015e4565b9392505050565b6000333014156200144057600080368080601f0160208091040260200160405190810160405280939291908181526020018383808284376000920191909152505050503601516001600160a01b03169150620014439050565b50335b90565b6001600160a01b03811660009081526001830160205260408120541515620013e0565b6001600160a01b038116620014c15760405162461bcd60e51b815260206004820152601e60248201527f4d61696e3a207375706572417070416464722063616e277420626520307800006044820152606401620005bb565b600480546040516379b9982960e11b81526001600160a01b0384811693820193909352600160248201819052929091169063f373305290604401600060405180830381600087803b1580156200151657600080fd5b505af11580156200152b573d6000803e3d6000fd5b505050505050565b6000604051806080016040528060438152602001620028c0604391398051602091820120835184830151604080870151805190860120905162001595950193845260208401929092526001600160a01b03166040830152606082015260800190565b604051602081830303815290604052805190602001209050919050565b6000620015be60015490565b60405161190160f01b602082015260228101919091526042810183905260620162001595565b60008181526001830160205260408120546200162d5750815460018181018455600084815260208082209093018490558454848252828601909352604090209190915562000d3b565b50600062000d3b565b6108ff8062001fc183390190565b60006200165b620016558462001eda565b62001ea6565b90508281528383830111156200167057600080fd5b828260208301376000602084830101529392505050565b8051620005228162001faa565b600082601f830112620016a5578081fd5b620013e08383356020850162001644565b600082601f830112620016c7578081fd5b8151620016d8620016558262001eda565b818152846020838601011115620016ed578283fd5b6200170082602083016020870162001f2a565b949350505050565b6000602082840312156200171a578081fd5b8135620013e08162001faa565b60006020828403121562001739578081fd5b8151620013e08162001faa565b600080600080600060a086880312156200175e578081fd5b85356200176b8162001faa565b9450602086013567ffffffffffffffff81111562001787578182fd5b8601601f8101881362001798578182fd5b620017a98882356020840162001644565b9450506040860135925060608601359150608086013560ff81168114620017ce578182fd5b809150509295509295909350565b600080600080600080600080610100898b031215620017f9578283fd5b620018048962001687565b9750602089015167ffffffffffffffff8082111562001821578485fd5b6200182f8c838d01620016b6565b985060408b015191508082111562001845578485fd5b620018538c838d01620016b6565b975060608b015196506200186a60808c0162001687565b955060a08b0151945060c08b0151935060e08b01519150808211156200188e578283fd5b506200189d8b828c01620016b6565b9150509295985092959890939650565b600060208284031215620018bf578081fd5b815167ffffffffffffffff811115620018d6578182fd5b6200170084828501620016b6565b60008060408385031215620018f7578182fd5b823567ffffffffffffffff808211156200190f578384fd5b6200191d8683870162001694565b9350602085013591508082111562001933578283fd5b50620019428582860162001694565b9150509250929050565b600080600080600080600060e0888a03121562001967578081fd5b873567ffffffffffffffff808211156200197f578283fd5b6200198d8b838c0162001694565b985060208a0135915080821115620019a3578283fd5b620019b18b838c0162001694565b975060408a0135965060608a01359150620019cc8262001faa565b9094506080890135935060a0890135925060c08901359080821115620019f0578283fd5b50620019ff8a828b0162001694565b91505092959891949750929550565b6000815180845262001a2881602086016020860162001f2a565b601f01601f19169290920160200192915050565b8054600090600181811c908083168062001a5757607f831692505b602080841082141562001a7857634e487b7160e01b86526022600452602486fd5b81801562001a8f576001811462001aa15762001ad0565b60ff1986168952848901965062001ad0565b60008881526020902060005b8681101562001ac85781548b82015290850190830162001aad565b505084890196505b50505050505092915050565b6000825162001af081846020870162001f2a565b9190910192915050565b6000835162001b0e81846020880162001f2a565b60609390931b6bffffffffffffffffffffffff19169190920190815260140192915050565b6000825162001b4781846020870162001f2a565b600f60fb1b920191825250600101919050565b6a7375706572746f6b656e7360a81b81526000601760f91b80600b84015262001b87600c84018662001a3c565b90815283519062001ba082600183016020880162001f2a565b01600101949350505050565b6a7375706572746f6b656e7360a81b81526000601760f91b80600b84015262001bd9600c84018662001a3c565b90815283519062001bf282600183016020880162001f2a565b600f60fb1b91016001810191909152600201949350505050565b65029bab832b9160d51b81526000825162001c2f81600685016020870162001f2a565b9190910160060192915050565b6001600160a01b0384811682528316602082015260606040820181905260009062001c6a9083018462001a0e565b95945050505050565b6001600160a01b038b811682528a8116602083015289811660408301526101406060830181905260009162001cab8483018c62001a0e565b9150838203608085015262001cc1828b62001a0e565b91508860a085015280881660c0850152508560e08401528461010084015282810361012084015262001cf4818562001a0e565b9d9c50505050505050505050505050565b6001600160a01b0385811682528416602082015260806040820181905260009062001d339083018562001a0e565b828103606084015262001d47818562001a0e565b979650505050505050565b6001600160a01b038416815260606020820181905260009062001d789083018562001a0e565b828103604084015262001d8c818562001a0e565b9695505050505050565b6001600160a01b0389811682526101006020830181905260009162001dbe8483018c62001a0e565b9150838203604085015262001dd4828b62001a0e565b91508860608501528088166080850152508560a08401528460c084015282810360e084015262001e05818562001a0e565b9b9a5050505050505050505050565b602081526000620013e0602083018462001a0e565b6001600160a01b038516815260006003851062001e5457634e487b7160e01b81526021600452602481fd5b8460208301526080604083015262001d33608083018562001a0e565b6001600160a01b03858116825284811660208301528316604082015260806060820181905260009062001d8c9083018462001a0e565b604051601f8201601f1916810167ffffffffffffffff8111828210171562001ed25762001ed262001f94565b604052919050565b600067ffffffffffffffff82111562001ef75762001ef762001f94565b50601f01601f191660200190565b6000821982111562001f2557634e487b7160e01b81526011600452602481fd5b500190565b60005b8381101562001f4757818101518382015260200162001f2d565b8381111562001f57576000848401525b50505050565b600181811c9082168062001f7257607f821691505b602082108114156200052057634e487b7160e01b600052602260045260246000fd5b634e487b7160e01b600052604160045260246000fd5b6001600160a01b0381168114620011aa57600080fdfe60806040523480156200001157600080fd5b50604051620008ff380380620008ff833981016040819052620000349162000261565b6001600160a01b0383166200008f5760405162461bcd60e51b815260206004820152601f60248201527f557365723a204f776e657220416464726573732063616e277420626520307800604482015260640160405180910390fd5b60018054336001600160a01b031991821617909155600080549091166001600160a01b0385161790558151620000cd9060029060208501906200012c565b508051620000e39060039060208401906200012c565b507f5f92b67971e4cef263063e8830748d8da304fa4eeab94b76845f45f0881f7fb0308484846040516200011b949392919062000315565b60405180910390a1505050620003e8565b8280546200013a9062000395565b90600052602060002090601f0160209004810192826200015e5760008555620001a9565b82601f106200017957805160ff1916838001178555620001a9565b82800160010185558215620001a9579182015b82811115620001a95782518255916020019190600101906200018c565b50620001b7929150620001bb565b5090565b5b80821115620001b75760008155600101620001bc565b600082601f830112620001e3578081fd5b81516001600160401b0380821115620002005762000200620003d2565b604051601f8301601f19908116603f011681019082821181831017156200022b576200022b620003d2565b8160405283815286602085880101111562000244578485fd5b6200025784602083016020890162000362565b9695505050505050565b60008060006060848603121562000276578283fd5b83516001600160a01b03811681146200028d578384fd5b60208501519093506001600160401b0380821115620002aa578384fd5b620002b887838801620001d2565b93506040860151915080821115620002ce578283fd5b50620002dd86828701620001d2565b9150509250925092565b600081518084526200030181602086016020860162000362565b601f01601f19169290920160200192915050565b6001600160a01b038581168252841660208201526080604082018190526000906200034390830185620002e7565b8281036060840152620003578185620002e7565b979650505050505050565b60005b838110156200037f57818101518382015260200162000365565b838111156200038f576000848401525b50505050565b600181811c90821680620003aa57607f821691505b60208210811415620003cc57634e487b7160e01b600052602260045260246000fd5b50919050565b634e487b7160e01b600052604160045260246000fd5b61050780620003f86000396000f3fe608060405234801561001057600080fd5b50600436106100365760003560e01c8063f4c84d191461003b578063fbbf93a014610050575b600080fd5b61004e610049366004610394565b610070565b005b610058610134565b60405161006793929190610440565b60405180910390f35b6000546001600160a01b0316336001600160a01b0316146100cd5760405162461bcd60e51b81526020600482015260136024820152722ab9b2b91d102737ba103a34329037bbb732b960691b604482015260640160405180910390fd5b81516100e0906002906020850190610274565b5080516100f4906003906020840190610274565b507fe5d18d6612696bff7df1db8015eac613241613297fa2ba2783993e4fd0e76f3d30838360405161012893929190610440565b60405180910390a15050565b600060608060008054906101000a90046001600160a01b03166002600381805461015d90610480565b80601f016020809104026020016040519081016040528092919081815260200182805461018990610480565b80156101d65780601f106101ab576101008083540402835291602001916101d6565b820191906000526020600020905b8154815290600101906020018083116101b957829003601f168201915b505050505091508080546101e990610480565b80601f016020809104026020016040519081016040528092919081815260200182805461021590610480565b80156102625780601f1061023757610100808354040283529160200191610262565b820191906000526020600020905b81548152906001019060200180831161024557829003601f168201915b50505050509050925092509250909192565b82805461028090610480565b90600052602060002090601f0160209004810192826102a257600085556102e8565b82601f106102bb57805160ff19168380011785556102e8565b828001600101855582156102e8579182015b828111156102e85782518255916020019190600101906102cd565b506102f49291506102f8565b5090565b5b808211156102f457600081556001016102f9565b600082601f83011261031d578081fd5b813567ffffffffffffffff80821115610338576103386104bb565b604051601f8301601f19908116603f01168101908282118183101715610360576103606104bb565b81604052838152866020858801011115610378578485fd5b8360208701602083013792830160200193909352509392505050565b600080604083850312156103a6578182fd5b823567ffffffffffffffff808211156103bd578384fd5b6103c98683870161030d565b935060208501359150808211156103de578283fd5b506103eb8582860161030d565b9150509250929050565b60008151808452815b8181101561041a576020818501810151868301820152016103fe565b8181111561042b5782602083870101525b50601f01601f19169290920160200192915050565b6001600160a01b0384168152606060208201819052600090610464908301856103f5565b828103604084015261047681856103f5565b9695505050505050565b600181811c9082168061049457607f821691505b602082108114156104b557634e487b7160e01b600052602260045260246000fd5b50919050565b634e487b7160e01b600052604160045260246000fdfea26469706673582212201681f18783205e78a576576d0471ab34278309f0ab6a199f13d6aaafd096571464736f6c634300080400334d6574615472616e73616374696f6e2875696e74323536206e6f6e63652c616464726573732066726f6d2c62797465732066756e6374696f6e5369676e617475726529a2646970667358221220cf7ddcb07e188df82f5bd7413744b50767cd4c300aa51a37cf7769ac08a395ac64736f6c63430008040033454950373132446f6d61696e28737472696e67206e616d652c737472696e672076657273696f6e2c6164647265737320766572696679696e67436f6e74726163742c627974657333322073616c7429",
  "linkReferences": {},
  "deployedLinkReferences": {}
}