{
  "_format": "hh-sol-artifact-1",
  "contractName": "Simple777Recipient",
  "sourceName": "contracts/utils/Simple777Recipient.sol",
  "abi": [
    {
      "inputs": [
        {
          "internalType": "address",
          "name": "token",
          "type": "address"
        }
      ],
      "stateMutability": "nonpayable",
      "type": "constructor"
    },
    {
      "anonymous": false,
      "inputs": [
        {
          "indexed": false,
          "internalType": "address",
          "name": "operator",
          "type": "address"
        },
        {
          "indexed": false,
          "internalType": "address",
          "name": "from",
          "type": "address"
        },
        {
          "indexed": false,
          "internalType": "address",
          "name": "to",
          "type": "address"
        },
        {
          "indexed": false,
          "internalType": "uint256",
          "name": "amount",
          "type": "uint256"
        },
        {
          "indexed": false,
          "internalType": "bytes",
          "name": "userData",
          "type": "bytes"
        },
        {
          "indexed": false,
          "internalType": "bytes",
          "name": "operatorData",
          "type": "bytes"
        }
      ],
      "name": "DoneStuff",
      "type": "event"
    },
    {
      "inputs": [
        {
          "internalType": "address",
          "name": "operator",
          "type": "address"
        },
        {
          "internalType": "address",
          "name": "from",
          "type": "address"
        },
        {
          "internalType": "address",
          "name": "to",
          "type": "address"
        },
        {
          "internalType": "uint256",
          "name": "amount",
          "type": "uint256"
        },
        {
          "internalType": "bytes",
          "name": "userData",
          "type": "bytes"
        },
        {
          "internalType": "bytes",
          "name": "operatorData",
          "type": "bytes"
        }
      ],
      "name": "tokensReceived",
      "outputs": [],
      "stateMutability": "nonpayable",
      "type": "function"
    }
  ],
  "bytecode": "0x6080604052600080546001600160a01b031916731820a4b7618bde71dce8cdc73aab6c95905fad2417905534801561003657600080fd5b506040516103fc3803806103fc833981016040819052610055916100fc565b600180546001600160a01b0319166001600160a01b03838116919091179091556000546040516329965a1d60e01b815230600482018190527fb281fc8c12954d22544db45de3159a39272895b169a852b314f9cc762e44c53b602483015260448201529116906329965a1d90606401600060405180830381600087803b1580156100de57600080fd5b505af11580156100f2573d6000803e3d6000fd5b505050505061012a565b60006020828403121561010d578081fd5b81516001600160a01b0381168114610123578182fd5b9392505050565b6102c3806101396000396000f3fe608060405234801561001057600080fd5b506004361061002a5760003560e01c806223de291461002f575b600080fd5b61004261003d36600461015e565b610044565b005b6001546001600160a01b031633146100ac5760405162461bcd60e51b815260206004820152602160248201527f53696d706c65373737526563697069656e743a20496e76616c696420746f6b656044820152603760f91b606482015260840160405180910390fd5b7fa0a5a35754b3519ae614f00422ac62a6bc4608ccb722963aab00cb48c588ad7288888888888888886040516100e998979695949392919061022f565b60405180910390a15050505050505050565b80356001600160a01b038116811461011257600080fd5b919050565b60008083601f840112610128578182fd5b50813567ffffffffffffffff81111561013f578182fd5b60208301915083602082850101111561015757600080fd5b9250929050565b60008060008060008060008060c0898b031215610179578384fd5b610182896100fb565b975061019060208a016100fb565b965061019e60408a016100fb565b955060608901359450608089013567ffffffffffffffff808211156101c1578586fd5b6101cd8c838d01610117565b909650945060a08b01359150808211156101e5578384fd5b506101f28b828c01610117565b999c989b5096995094979396929594505050565b81835281816020850137506000828201602090810191909152601f909101601f19169091010190565b6001600160a01b0389811682528881166020830152871660408201526060810186905260c06080820181905260009061026b9083018688610206565b82810360a084015261027e818587610206565b9b9a505050505050505050505056fea2646970667358221220b257ecc4cc28677f712ce7ab60e916e4fc5e38133fb888b79bac5b7acd62f95764736f6c63430008040033",
  "linkReferences": {},
  "deployedLinkReferences": {}
}