{
  "_format": "hh-sol-artifact-1",
  "contractName": "ItemFactory",
  "sourceName": "contracts/ItemFactory.sol",
  "abi": [
    {
      "inputs": [
        {
          "internalType": "address",
          "name": "main",
          "type": "address"
        },
        {
          "internalType": "address",
          "name": "owner",
          "type": "address"
        },
        {
          "internalType": "string",
          "name": "title",
          "type": "string"
        },
        {
          "internalType": "string",
          "name": "description",
          "type": "string"
        },
        {
          "internalType": "uint256",
          "name": "price",
          "type": "uint256"
        },
        {
          "internalType": "address",
          "name": "token",
          "type": "address"
        },
        {
          "internalType": "uint256",
          "name": "amount",
          "type": "uint256"
        },
        {
          "internalType": "uint256",
          "name": "endPaymentDate",
          "type": "uint256"
        },
        {
          "internalType": "string",
          "name": "uri",
          "type": "string"
        }
      ],
      "name": "deployItem",
      "outputs": [
        {
          "internalType": "contract Item",
          "name": "",
          "type": "address"
        }
      ],
      "stateMutability": "nonpayable",
      "type": "function"
    }
  ],
  "bytecode": "0x608060405234801561001057600080fd5b50614822806100206000396000f3fe60806040523480156200001157600080fd5b50600436106200002e5760003560e01c806334964fe81462000033575b600080fd5b6200004a6200004436600462000179565b62000066565b6040516001600160a01b03909116815260200160405180910390f35b60008989898989898989896040516200007f90620000bf565b6200009399989796959493929190620002ab565b604051809103906000f080158015620000b0573d6000803e3d6000fd5b509a9950505050505050505050565b6144a3806200034a83390190565b80356001600160a01b0381168114620000e557600080fd5b919050565b600082601f830112620000fb578081fd5b813567ffffffffffffffff8082111562000119576200011962000333565b604051601f8301601f19908116603f0116810190828211818310171562000144576200014462000333565b816040528381528660208588010111156200015d578485fd5b8360208701602083013792830160200193909352509392505050565b60008060008060008060008060006101208a8c03121562000198578485fd5b620001a38a620000cd565b9850620001b360208b01620000cd565b975060408a013567ffffffffffffffff80821115620001d0578687fd5b620001de8d838e01620000ea565b985060608c0135915080821115620001f4578687fd5b620002028d838e01620000ea565b975060808c013596506200021960a08d01620000cd565b955060c08c0135945060e08c013593506101008c01359150808211156200023e578283fd5b506200024d8c828d01620000ea565b9150509295985092959850929598565b60008151808452815b81811015620002845760208185018101518683018201520162000266565b81811115620002965782602083870101525b50601f01601f19169290920160200192915050565b6001600160a01b038a81168252898116602083015261012060408301819052600091620002db8483018c6200025d565b91508382036060850152620002f1828b6200025d565b915088608085015280881660a0850152508560c08401528460e08401528281036101008401526200032381856200025d565b9c9b505050505050505050505050565b634e487b7160e01b600052604160045260246000fdfe6080604052600380546001600160a01b031916731820a4b7618bde71dce8cdc73aab6c95905fad241790553480156200003757600080fd5b50604051620044a3380380620044a38339810160408190526200005a9162000b95565b838162000067816200067b565b50600480546001600160a01b0319166001600160a01b038381169190911782556003546040516329965a1d60e01b8152309381018490527fb281fc8c12954d22544db45de3159a39272895b169a852b314f9cc762e44c53b6024820152604481019390935216906329965a1d90606401600060405180830381600087803b158015620000f257600080fd5b505af115801562000107573d6000803e3d6000fd5b50505050506001600160a01b038816620001685760405162461bcd60e51b815260206004820152601f60248201527f4974656d3a204f776e657220416464726573732063616e27742062652030780060448201526064015b60405180910390fd5b60008511620001ba5760405162461bcd60e51b815260206004820152601760248201527f4974656d3a205072696365206d757374206265203e203000000000000000000060448201526064016200015f565b6001600160a01b038416620002125760405162461bcd60e51b815260206004820152601f60248201527f4974656d3a20546f6b656e20416464726573732063616e27742062652030780060448201526064016200015f565b60008311620002645760405162461bcd60e51b815260206004820152601860248201527f4974656d3a20416d6f756e74206d757374206265203e2030000000000000000060448201526064016200015f565b428211620002c85760405162461bcd60e51b815260206004820152602a60248201527f4974656d3a20456e645061796d656e7444617465206d75737420626520696e206044820152697468652066757475726560b01b60648201526084016200015f565b600580546001600160a01b03199081166001600160a01b038c8116918217909355600680549092168b84161790915560405163ce69fd6f60e01b81529186166004830152859163ce69fd6f9060240160206040518083038186803b1580156200033057600080fd5b505afa15801562000345573d6000803e3d6000fd5b505050506040513d601f19601f820116820180604052508101906200036b919062000c79565b620003b95760405162461bcd60e51b815260206004820152601960248201527f4974656d3a205375706572546f6b656e2072657175697265640000000000000060448201526064016200015f565b6040518060e00160405280898152602001888152602001878152602001866001600160a01b0316815260200185815260200184815260200183815250600760008201518160000190805190602001906200041592919062000a67565b50602082810151805162000430926001850192019062000a67565b506040820151600282015560608201516003820180546001600160a01b0319166001600160a01b039092169190911790556080820151600482015560a0820151600582015560c082015180516200049291600684019160209091019062000a67565b5060019150505b848111620004f657620004c530826001604051806020016040528060008152506200069460201b60201c565b620004e0816016620007b060201b620013a21790919060201c565b5080620004ed8162000fbd565b91505062000499565b50600560009054906101000a90046001600160a01b03166001600160a01b031663f66705456040518163ffffffff1660e01b815260040160006040518083038186803b1580156200054657600080fd5b505afa1580156200055b573d6000803e3d6000fd5b505050506040513d6000823e601f3d908101601f1916820160405262000585919081019062000ccc565b5050600f80546001600160a01b039283166001600160a01b031991821617909155600e8054939092169216821790556040516315a722b960e31b81526001600482015263ad3915c890602401600060405180830381600087803b158015620005ec57600080fd5b505af115801562000601573d6000803e3d6000fd5b5050600654600954600a54600b54600c546040517f7141f591b60c586cf546b56c1243a5a2585882c5539e0196f3ae01308cf50c57975062000663965030956001600160a01b03908116956007956008959194921692909190600d9062000e1f565b60405180910390a150505050505050505050620010c8565b80516200069090600290602084019062000a67565b5050565b6001600160a01b038416620006f65760405162461bcd60e51b815260206004820152602160248201527f455243313135353a206d696e7420746f20746865207a65726f206164647265736044820152607360f81b60648201526084016200015f565b336200071c816000876200070a88620007c7565b6200071588620007c7565b5050505050565b6000848152602081815260408083206001600160a01b0389168452909152812080548592906200074e90849062000f03565b909155505060408051858152602081018590526001600160a01b0380881692600092918516917fc3d58168c5ae7397731d063d5bbf3d657854427343f4c083240f7aacaa2d0f62910160405180910390a4620007158160008787878762000829565b6000620007be838362000a0f565b90505b92915050565b604080516001808252818301909252606091600091906020808301908036833701905050905082816000815181106200081057634e487b7160e01b600052603260045260246000fd5b602090810291909101015292915050565b505050505050565b62000848846001600160a01b031662000a6160201b620013ae1760201c565b15620008215760405163f23a6e6160e01b81526001600160a01b0385169063f23a6e619062000884908990899088908890889060040162000ea7565b602060405180830381600087803b1580156200089f57600080fd5b505af1925050508015620008d2575060408051601f3d908101601f19168201909252620008cf9181019062000ca2565b60015b6200099357620008e162001007565b806308c379a01415620009225750620008f962001020565b8062000906575062000924565b8060405162461bcd60e51b81526004016200015f919062000eee565b505b60405162461bcd60e51b815260206004820152603460248201527f455243313135353a207472616e7366657220746f206e6f6e204552433131353560448201527f526563656976657220696d706c656d656e74657200000000000000000000000060648201526084016200015f565b6001600160e01b0319811663f23a6e6160e01b1462000a065760405162461bcd60e51b815260206004820152602860248201527f455243313135353a204552433131353552656365697665722072656a656374656044820152676420746f6b656e7360c01b60648201526084016200015f565b50505050505050565b600081815260018301602052604081205462000a5857508154600181810184556000848152602080822090930184905584548482528286019093526040902091909155620007c1565b506000620007c1565b3b151590565b82805462000a759062000f51565b90600052602060002090601f01602090048101928262000a99576000855562000ae4565b82601f1062000ab457805160ff191683800117855562000ae4565b8280016001018555821562000ae4579182015b8281111562000ae457825182559160200191906001019062000ac7565b5062000af292915062000af6565b5090565b5b8082111562000af2576000815560010162000af7565b805162000b1a81620010af565b919050565b600082601f83011262000b30578081fd5b81516001600160401b0381111562000b4c5762000b4c62000ff1565b60405162000b65601f8301601f19166020018262000f8e565b81815284602083860101111562000b7a578283fd5b62000b8d82602083016020870162000f1e565b949350505050565b60008060008060008060008060006101208a8c03121562000bb4578485fd5b62000bbf8a62000b0d565b985062000bcf60208b0162000b0d565b60408b01519098506001600160401b038082111562000bec578687fd5b62000bfa8d838e0162000b1f565b985060608c015191508082111562000c10578687fd5b62000c1e8d838e0162000b1f565b975060808c0151965062000c3560a08d0162000b0d565b955060c08c0151945060e08c015193506101008c015191508082111562000c5a578283fd5b5062000c698c828d0162000b1f565b9150509295985092959850929598565b60006020828403121562000c8b578081fd5b8151801515811462000c9b578182fd5b9392505050565b60006020828403121562000cb4578081fd5b81516001600160e01b03198116811462000c9b578182fd5b6000806000806080858703121562000ce2578384fd5b845162000cef81620010af565b602086015190945062000d0281620010af565b604086015190935062000d1581620010af565b60608601519092506001600160401b0381111562000d31578182fd5b62000d3f8782880162000b1f565b91505092959194509250565b6000815180845262000d6581602086016020860162000f1e565b601f01601f19169290920160200192915050565b8054600090600181811c908083168062000d9457607f831692505b602080841082141562000db557634e487b7160e01b86526022600452602486fd5b8388526020880182801562000dd3576001811462000de55762000e12565b60ff1987168252828201975062000e12565b60008981526020902060005b8781101562000e0c5781548482015290860190840162000df1565b83019850505b5050505050505092915050565b6001600160a01b038a8116825289811660208301526101206040830181905260009162000e4f8483018c62000d79565b9150838203606085015262000e65828b62000d79565b915088608085015280881660a0850152508560c08401528460e084015282810361010084015262000e97818562000d79565b9c9b505050505050505050505050565b6001600160a01b03868116825285166020820152604081018490526060810183905260a06080820181905260009062000ee39083018462000d4b565b979650505050505050565b602081526000620007be602083018462000d4b565b6000821982111562000f195762000f1962000fdb565b500190565b60005b8381101562000f3b57818101518382015260200162000f21565b8381111562000f4b576000848401525b50505050565b600181811c9082168062000f6657607f821691505b6020821081141562000f8857634e487b7160e01b600052602260045260246000fd5b50919050565b601f8201601f191681016001600160401b038111828210171562000fb65762000fb662000ff1565b6040525050565b600060001982141562000fd45762000fd462000fdb565b5060010190565b634e487b7160e01b600052601160045260246000fd5b634e487b7160e01b600052604160045260246000fd5b600060033d11156200101d57600481823e5160e01c5b90565b600060443d10156200102f5790565b6040516003193d81016004833e81513d6001600160401b0380831160248401831017156200105f57505050505090565b8285019150815181811115620010785750505050505090565b843d8701016020828501011115620010935750505050505090565b620010a46020828601018762000f8e565b509095945050505050565b6001600160a01b0381168114620010c557600080fd5b50565b6133cb80620010d86000396000f3fe608060405234801561001057600080fd5b50600436106101565760003560e01c80634e1273f4116100c3578063a22cb4651161007c578063a22cb465146102fb578063d86ed3e51461030e578063e985e9c514610321578063f242432a1461035d578063f4c84d1914610370578063fbbf93a01461038357600080fd5b80634e1273f41461027957806353c11f99146102995780635f9e7d77146102ac5780636e04ff0d146102bf578063884d1f40146102e057806391f7cfb9146102f357600080fd5b806325e160631161011557806325e16063146101ff5780632eb2c2d61461021257806330d9c915146102255780633dd6d533146102385780634585e33b1461024b57806348c3de5e1461025e57600080fd5b806223de291461015b578062fdd58e1461017057806301ffc9a7146101965780630e89341c146101b95780631e83409a146101d9578063230dbd29146101ec575b600080fd5b61016e61016936600461256d565b61039f565b005b61018361017e36600461275d565b610457565b6040519081526020015b60405180910390f35b6101a96101a4366004612886565b6104ec565b604051901515815260200161018d565b6101cc6101c7366004612bf0565b6104f7565b60405161018d9190612f6e565b61016e6101e7366004612519565b61058b565b6101cc6101fa3660046129d2565b61073e565b61016e61020d366004612519565b6107a0565b61016e61022036600461261a565b610875565b6101cc610233366004612937565b61090c565b610183610246366004612519565b610a0c565b61016e6102593660046128be565b610a65565b610266610a96565b604051600b9190910b815260200161018d565b61028c610287366004612788565b610acf565b60405161018d9190612f07565b6101cc6102a73660046129d2565b610c30565b6101cc6102ba366004612937565b610d04565b6102d26102cd3660046128be565b610da4565b60405161018d929190612f3f565b6101cc6102ee366004612937565b610dce565b610183610e31565b61016e610309366004612729565b610e3d565b6101cc61031c3660046129d2565b610f14565b6101a961032f366004612535565b6001600160a01b03918216600090815260016020908152604080832093909416825291909152205460ff1690565b61016e61036b3660046126c3565b61104f565b61016e61037e366004612a98565b6110d6565b61038b6111a6565b60405161018d989796959493929190612e5e565b6004546001600160a01b031633146104085760405162461bcd60e51b815260206004820152602160248201527f53696d706c65373737526563697069656e743a20496e76616c696420746f6b656044820152603760f91b60648201526084015b60405180910390fd5b7fa0a5a35754b3519ae614f00422ac62a6bc4608ccb722963aab00cb48c588ad728888888888888888604051610445989796959493929190612d77565b60405180910390a15050505050505050565b60006001600160a01b0383166104c35760405162461bcd60e51b815260206004820152602b60248201527f455243313135353a2062616c616e636520717565727920666f7220746865207a60448201526a65726f206164647265737360a81b60648201526084016103ff565b506000818152602081815260408083206001600160a01b03861684529091529020545b92915050565b60006104e6826113b4565b6060600280546105069061321b565b80601f01602080910402602001604051908101604052809291908181526020018280546105329061321b565b801561057f5780601f106105545761010080835404028352916020019161057f565b820191906000526020600020905b81548152906001019060200180831161056257829003601f168201915b50505050509050919050565b61059481611404565b6105d85760405162461bcd60e51b8152602060048201526015602482015274092e8cada74409cdee840e0c2d2c840cadcdeeaced605b1b60448201526064016103ff565b60006105e46018611469565b116106315760405162461bcd60e51b815260206004820152601860248201527f4974656d3a204e6f206974656d7320617661696c61626c65000000000000000060448201526064016103ff565b600e54600f54600a546040805160008152602081019091526001600160a01b03938416936339255d5b93811692635a5999e360e11b9261067c92909116908790309060448101612fc8565b60408051601f198184030181529181526020820180516001600160e01b03166001600160e01b03199485161790525160e085901b90921682526106c29291600401612f81565b600060405180830381600087803b1580156106dc57600080fd5b505af11580156106f0573d6000803e3d6000fd5b505050506040513d6000823e601f3d908101601f1916820160405261071891908101906128fd565b506001600160a01b03811660009081526012602052604090205461073b90611473565b50565b60405162461bcd60e51b815260206004820152602e60248201527f556e737570706f727465642063616c6c6261636b202d2041667465722041677260448201526d19595b595b9d08155c19185d195960921b60648201526060906084016103ff565b6006546001600160a01b0316336001600160a01b0316146107f95760405162461bcd60e51b815260206004820152601360248201527224ba32b69d102737ba103a34329037bbb732b960691b60448201526064016103ff565b6040516001600160a01b038216904780156108fc02916000818181858888f1935050505015801561082e573d6000803e3d6000fd5b50806001600160a01b03167fa8841823f7591414a80deddb48af504373043ab5959ceddf527c2215d62cb29b4760405161086a91815260200190565b60405180910390a250565b6001600160a01b0385163314806108915750610891853361032f565b6108f85760405162461bcd60e51b815260206004820152603260248201527f455243313135353a207472616e736665722063616c6c6572206973206e6f74206044820152711bdddb995c881b9bdc88185c1c1c9bdd995960721b60648201526084016103ff565b6109058585858585611614565b5050505050565b600e546060906001600160a01b031633146109395760405162461bcd60e51b81526004016103ff90613089565b878761095382600a546001600160a01b0391821691161490565b61099f5760405162461bcd60e51b815260206004820152601860248201527f4974656d3a206e6f7420616363657074656420746f6b656e000000000000000060448201526064016103ff565b6109a88161180d565b6109f45760405162461bcd60e51b815260206004820152601a60248201527f4974656d3a206f6e6c7920434641763120737570706f7274656400000000000060448201526064016103ff565b6109fe85856118a8565b9a9950505050505050505050565b6001600160a01b038116600090815260126020908152604080832054808452601590925282208054600190910154600160a01b909104600b90810b900b90610a5490426131d4565b610a5e91906131b5565b9392505050565b60005b6064811015610a9157610a7f6101e76010836119d7565b80610a8981613282565b915050610a68565b505050565b6000610aa46103e842613195565b610ab0906103e86131b5565b600c54610abd91906131d4565b600954610aca9190613195565b905090565b60608151835114610b345760405162461bcd60e51b815260206004820152602960248201527f455243313135353a206163636f756e747320616e6420696473206c656e677468604482015268040dad2e6dac2e8c6d60bb1b60648201526084016103ff565b600083516001600160401b03811115610b5d57634e487b7160e01b600052604160045260246000fd5b604051908082528060200260200182016040528015610b86578160200160208202803683370190505b50905060005b8451811015610c2857610bed858281518110610bb857634e487b7160e01b600052603260045260246000fd5b6020026020010151858381518110610be057634e487b7160e01b600052603260045260246000fd5b6020026020010151610457565b828281518110610c0d57634e487b7160e01b600052603260045260246000fd5b6020908102919091010152610c2181613282565b9050610b8c565b509392505050565b600e546060906001600160a01b03163314610c5d5760405162461bcd60e51b81526004016103ff90613089565b6000610c6b85870187612854565b90508015610cb35783838080601f016020809104026020016040519081016040528093929190818152602001838380828437600092019190915250929450610cf79350505050565b610cbc89611473565b83838080601f016020809104026020016040519081016040528093929190818152602001838380828437600092019190915250929450505050505b9998505050505050505050565b600e546060906001600160a01b03163314610d315760405162461bcd60e51b81526004016103ff90613089565b600a546001600160a01b038981169116141580610d545750610d528761180d565b155b15610d7b576040805160016020820152016040516020818303038152906040529050610d99565b60408051600060208201520160405160208183030381529060405290505b979650505050505050565b6000606042600760050154108015610dc557506000610dc36010611469565b115b91509250929050565b60405162461bcd60e51b815260206004820152602f60248201527f556e737570706f727465642063616c6c6261636b202d204265666f726520416760448201526e1c99595b595b9d081d5c19185d1959608a1b60648201526060906084016103ff565b6000610aca6016611469565b336001600160a01b0383161415610ea85760405162461bcd60e51b815260206004820152602960248201527f455243313135353a2073657474696e6720617070726f76616c20737461747573604482015268103337b91039b2b63360b91b60648201526084016103ff565b3360008181526001602090815260408083206001600160a01b03871680855290835292819020805460ff191686151590811790915590519081529192917f17307eab39ab6107e8899845ad3d59bd9653f200f220920489ca2b5937696c31910160405180910390a35050565b600e546060906001600160a01b03163314610f415760405162461bcd60e51b81526004016103ff90613089565b600a54604051631557a4cd60e31b81526001600160a01b039182166004820152602481018a90526000918b169063aabd26689060440160806040518083038186803b158015610f8f57600080fd5b505afa158015610fa3573d6000803e3d6000fd5b505050506040513d601f19601f82011682018060405250810190610fc79190612c08565b5050915050610fd4610a96565b600b0b81600b0b146110325760405162461bcd60e51b815260206004820152602160248201527f4974656d3a20526571756972656420466c6f772072617465206d69736d6174636044820152600d60fb1b60648201526084016103ff565b61104084848c8c8a8a6119e3565b9b9a5050505050505050505050565b6001600160a01b03851633148061106b575061106b853361032f565b6110c95760405162461bcd60e51b815260206004820152602960248201527f455243313135353a2063616c6c6572206973206e6f74206f776e6572206e6f7260448201526808185c1c1c9bdd995960ba1b60648201526084016103ff565b6109058585858585611d2d565b6006546001600160a01b0316336001600160a01b03161461112f5760405162461bcd60e51b815260206004820152601360248201527224ba32b69d102737ba103a34329037bbb732b960691b60448201526064016103ff565b81516111429060079060208501906122dd565b5080516111569060089060208401906122dd565b506006546040517ff1e140dd045e4105d6296c80c9d27435efdf24668b3691ea586a45d33b31184f9161119a916001600160a01b0390911690600790600890612ec7565b60405180910390a15050565b600654600954600a54600b54600c5460078054600096606096879689968796879687968b966001600160a01b03908116969295600895939491169291600d9087906111f09061321b565b80601f016020809104026020016040519081016040528092919081815260200182805461121c9061321b565b80156112695780601f1061123e57610100808354040283529160200191611269565b820191906000526020600020905b81548152906001019060200180831161124c57829003601f168201915b5050505050965085805461127c9061321b565b80601f01602080910402602001604051908101604052809291908181526020018280546112a89061321b565b80156112f55780601f106112ca576101008083540402835291602001916112f5565b820191906000526020600020905b8154815290600101906020018083116112d857829003601f168201915b505050505095508080546113089061321b565b80601f01602080910402602001604051908101604052809291908181526020018280546113349061321b565b80156113815780601f1061135657610100808354040283529160200191611381565b820191906000526020600020905b81548152906001019060200180831161136457829003601f168201915b50505050509050975097509750975097509750975097509091929394959697565b6000610a5e8383611e53565b3b151590565b60006001600160e01b03198216636cdb3d1360e11b14806113e557506001600160e01b031982166303a24d0760e21b145b806104e657506301ffc9a760e01b6001600160e01b03198316146104e6565b6000611411601083611ea2565b6114555760405162461bcd60e51b815260206004820152601560248201527424ba32b69d102737ba10313abcb4b733903ab9b2b960591b60448201526064016103ff565b60095461146183610a0c565b101592915050565b60006104e6825490565b6000818152601560205260409020546001600160a01b031661149481611404565b6114c15760006114a56018826119d7565b90506114b2601882611ec4565b506114be6016826113a2565b50505b6114ca81611404565b61150e5760405162461bcd60e51b8152602060048201526015602482015274125d195b4e88139bdd08195b9bdd59da081c185a59605a1b60448201526064016103ff565b611519601082611ed0565b506001600160a01b03811660009081526012602052604081205561153e601383611ec4565b506040805160608101825260008082526020808301828152838501838152878452601590925293822092519351600b0b6001600160601b0316600160a01b026001600160a01b039490941693909317825591516001909101556115a26018826119d7565b90506115af601882611ec4565b506115cd308383600160405180602001604052806000815250611d2d565b604080516001600160a01b0384168152602081018390527f8ed9b9c949dff330af22f05a44efa34da599a3e672ac89079f13da0ce789913b910160405180910390a1505050565b81518351146116765760405162461bcd60e51b815260206004820152602860248201527f455243313135353a2069647320616e6420616d6f756e7473206c656e677468206044820152670dad2e6dac2e8c6d60c31b60648201526084016103ff565b6001600160a01b03841661169c5760405162461bcd60e51b81526004016103ff90613044565b3360005b845181101561179f5760008582815181106116cb57634e487b7160e01b600052603260045260246000fd5b6020026020010151905060008583815181106116f757634e487b7160e01b600052603260045260246000fd5b602090810291909101810151600084815280835260408082206001600160a01b038e1683529093529190912054909150818110156117475760405162461bcd60e51b81526004016103ff906130c0565b6000838152602081815260408083206001600160a01b038e8116855292528083208585039055908b1682528120805484929061178490849061317d565b925050819055505050508061179890613282565b90506116a0565b50846001600160a01b0316866001600160a01b0316826001600160a01b03167f4a39dc06d4c0dbc64b70af90fd698a233a518aa5d07e595d983b8c0526c8f7fb87876040516117ef929190612f1a565b60405180910390a4611805818787878787611ee5565b505050505050565b60007fa9214cc96615e0085d3bb077758db69497dc2dce3b2b1e97bc93c3d18d83efd3826001600160a01b0316637730599e6040518163ffffffff1660e01b815260040160206040518083038186803b15801561186957600080fd5b505afa15801561187d573d6000803e3d6000fd5b505050506040513d601f19601f820116820180604052508101906118a1919061286e565b1492915050565b600e54604051631fb6491d60e11b81526060916000916001600160a01b0390911690633f6c923a906118e09087908790600401612f5a565b60006040518083038186803b1580156118f857600080fd5b505afa15801561190c573d6000803e3d6000fd5b505050506040513d6000823e601f3d908101601f191682016040526119349190810190612aee565b905061194e81606001516010611ea290919063ffffffff16565b156119a55760405162461bcd60e51b815260206004820152602160248201527f4974656d3a205573657220616c726561647920627579696e6720616e204974656044820152606d60f81b60648201526084016103ff565b6060810151604080516001600160a01b0390921660208301520160405160208183030381529060405291505092915050565b6000610a5e8383612050565b606060006119f16016611469565b11611a3e5760405162461bcd60e51b815260206004820152601860248201527f4974656d3a204e6f204974656d7320617661696c61626c65000000000000000060448201526064016103ff565b600e54604051631fb6491d60e11b81526000916001600160a01b031690633f6c923a90611a71908b908b90600401612f5a565b60006040518083038186803b158015611a8957600080fd5b505afa158015611a9d573d6000803e3d6000fd5b505050506040513d6000823e601f3d908101601f19168201604052611ac59190810190612aee565b9050611adf8160600151601061208890919063ffffffff16565b5060608101516001600160a01b03166000908152601260205260409020859055611b0a6013866113a2565b506000611b186016826119d7565b9050611b25601682611ec4565b50611b316018826113a2565b50600a54604051631557a4cd60e31b81526001600160a01b039182166004820152602481018890526000918291908a169063aabd26689060440160806040518083038186803b158015611b8357600080fd5b505afa158015611b97573d6000803e3d6000fd5b505050506040513d601f19601f82011682018060405250810190611bbb9190612c08565b505091509150604051806060016040528085606001516001600160a01b0316815260200182600b0b815260200183815250601560008a815260200190815260200160002060008201518160000160006101000a8154816001600160a01b0302191690836001600160a01b0316021790555060208201518160000160146101000a8154816001600160601b030219169083600b0b6001600160601b0316021790555060408201518160010155905050600081600b0b600760020154611c7f9190613195565b611c89908461317d565b606080870151604080516001600160a01b039092168252602082018d9052600b86900b908201529081018290529091507fbe63124fcd6e35a686f207415131db9e0fd573b9fe87911576f7de249417efb39060800160405180910390a18b8b8080601f016020809104026020016040519081016040528093929190818152602001838380828437600092019190915250929f9e505050505050505050505050505050565b6001600160a01b038416611d535760405162461bcd60e51b81526004016103ff90613044565b33611d6c818787611d638861209d565b6109058861209d565b6000848152602081815260408083206001600160a01b038a16845290915290205483811015611dad5760405162461bcd60e51b81526004016103ff906130c0565b6000858152602081815260408083206001600160a01b038b8116855292528083208785039055908816825281208054869290611dea90849061317d565b909155505060408051868152602081018690526001600160a01b03808916928a821692918616917fc3d58168c5ae7397731d063d5bbf3d657854427343f4c083240f7aacaa2d0f62910160405180910390a4611e4a8288888888886120f6565b50505050505050565b6000818152600183016020526040812054611e9a575081546001818101845560008481526020808220909301849055845484825282860190935260409020919091556104e6565b5060006104e6565b6001600160a01b03811660009081526001830160205260408120541515610a5e565b6000610a5e83836121c0565b6000610a5e836001600160a01b0384166121c0565b6001600160a01b0384163b156118055760405163bc197c8160e01b81526001600160a01b0385169063bc197c8190611f299089908990889088908890600401612dc6565b602060405180830381600087803b158015611f4357600080fd5b505af1925050508015611f73575060408051601f3d908101601f19168201909252611f70918101906128a2565b60015b61202057611f7f6132c9565b806308c379a01415611fb95750611f946132e1565b80611f9f5750611fbb565b8060405162461bcd60e51b81526004016103ff9190612f6e565b505b60405162461bcd60e51b815260206004820152603460248201527f455243313135353a207472616e7366657220746f206e6f6e20455243313135356044820152732932b1b2b4bb32b91034b6b83632b6b2b73a32b960611b60648201526084016103ff565b6001600160e01b0319811663bc197c8160e01b14611e4a5760405162461bcd60e51b81526004016103ff90612ffc565b600082600001828154811061207557634e487b7160e01b600052603260045260246000fd5b9060005260206000200154905092915050565b6000610a5e836001600160a01b038416611e53565b604080516001808252818301909252606091600091906020808301908036833701905050905082816000815181106120e557634e487b7160e01b600052603260045260246000fd5b602090810291909101015292915050565b6001600160a01b0384163b156118055760405163f23a6e6160e01b81526001600160a01b0385169063f23a6e619061213a9089908990889088908890600401612e24565b602060405180830381600087803b15801561215457600080fd5b505af1925050508015612184575060408051601f3d908101601f19168201909252612181918101906128a2565b60015b61219057611f7f6132c9565b6001600160e01b0319811663f23a6e6160e01b14611e4a5760405162461bcd60e51b81526004016103ff90612ffc565b600081815260018301602052604081205480156122d35760006121e46001836131d4565b85549091506000906121f8906001906131d4565b905081811461227957600086600001828154811061222657634e487b7160e01b600052603260045260246000fd5b906000526020600020015490508087600001848154811061225757634e487b7160e01b600052603260045260246000fd5b6000918252602080832090910192909255918252600188019052604090208390555b855486908061229857634e487b7160e01b600052603160045260246000fd5b6001900381819060005260206000200160009055905585600101600086815260200190815260200160002060009055600193505050506104e6565b60009150506104e6565b8280546122e99061321b565b90600052602060002090601f01602090048101928261230b5760008555612351565b82601f1061232457805160ff1916838001178555612351565b82800160010185558215612351579182015b82811115612351578251825591602001919060010190612336565b5061235d929150612361565b5090565b5b8082111561235d5760008155600101612362565b80516123818161336a565b919050565b600082601f830112612396578081fd5b813560206123a382613133565b6040516123b08282613256565b8381528281019150858301600585901b870184018810156123cf578586fd5b855b858110156123ed578135845292840192908401906001016123d1565b5090979650505050505050565b8035801515811461238157600080fd5b80516123818161337f565b60008083601f840112612426578182fd5b5081356001600160401b0381111561243c578182fd5b60208301915083602082850101111561245457600080fd5b9250929050565b600082601f83011261246b578081fd5b813561247681613156565b6040516124838282613256565b828152856020848701011115612497578384fd5b82602086016020830137918201602001929092529392505050565b600082601f8301126124c2578081fd5b81516124cd81613156565b6040516124da8282613256565b8281528560208487010111156124ee578384fd5b6124ff8360208301602088016131eb565b95945050505050565b805160ff8116811461238157600080fd5b60006020828403121561252a578081fd5b8135610a5e8161336a565b60008060408385031215612547578081fd5b82356125528161336a565b915060208301356125628161336a565b809150509250929050565b60008060008060008060008060c0898b031215612588578384fd5b88356125938161336a565b975060208901356125a38161336a565b965060408901356125b38161336a565b95506060890135945060808901356001600160401b03808211156125d5578586fd5b6125e18c838d01612415565b909650945060a08b01359150808211156125f9578384fd5b506126068b828c01612415565b999c989b5096995094979396929594505050565b600080600080600060a08688031215612631578283fd5b853561263c8161336a565b9450602086013561264c8161336a565b935060408601356001600160401b0380821115612667578485fd5b61267389838a01612386565b94506060880135915080821115612688578283fd5b61269489838a01612386565b935060808801359150808211156126a9578283fd5b506126b68882890161245b565b9150509295509295909350565b600080600080600060a086880312156126da578283fd5b85356126e58161336a565b945060208601356126f58161336a565b9350604086013592506060860135915060808601356001600160401b0381111561271d578182fd5b6126b68882890161245b565b6000806040838503121561273b578182fd5b82356127468161336a565b9150612754602084016123fa565b90509250929050565b6000806040838503121561276f578182fd5b823561277a8161336a565b946020939093013593505050565b6000806040838503121561279a578182fd5b82356001600160401b03808211156127b0578384fd5b818501915085601f8301126127c3578384fd5b813560206127d082613133565b6040516127dd8282613256565b8381528281019150858301600585901b870184018b10156127fc578889fd5b8896505b848710156128275780356128138161336a565b835260019690960195918301918301612800565b509650508601359250508082111561283d578283fd5b5061284a85828601612386565b9150509250929050565b600060208284031215612865578081fd5b610a5e826123fa565b60006020828403121561287f578081fd5b5051919050565b600060208284031215612897578081fd5b8135610a5e8161337f565b6000602082840312156128b3578081fd5b8151610a5e8161337f565b600080602083850312156128d0578182fd5b82356001600160401b038111156128e5578283fd5b6128f185828601612415565b90969095509350505050565b60006020828403121561290e578081fd5b81516001600160401b03811115612923578182fd5b61292f848285016124b2565b949350505050565b600080600080600080600060a0888a031215612951578081fd5b873561295c8161336a565b9650602088013561296c8161336a565b95506040880135945060608801356001600160401b038082111561298e578283fd5b61299a8b838c01612415565b909650945060808a01359150808211156129b2578283fd5b506129bf8a828b01612415565b989b979a50959850939692959293505050565b600080600080600080600080600060c08a8c0312156129ef578283fd5b89356129fa8161336a565b985060208a0135612a0a8161336a565b975060408a0135965060608a01356001600160401b0380821115612a2c578485fd5b612a388d838e01612415565b909850965060808c0135915080821115612a50578485fd5b612a5c8d838e01612415565b909650945060a08c0135915080821115612a74578283fd5b50612a818c828d01612415565b915080935050809150509295985092959850929598565b60008060408385031215612aaa578182fd5b82356001600160401b0380821115612ac0578384fd5b612acc8683870161245b565b93506020850135915080821115612ae1578283fd5b5061284a8582860161245b565b600060208284031215612aff578081fd5b81516001600160401b0380821115612b15578283fd5b908301906101608286031215612b29578283fd5b612b3161310a565b612b3a83612508565b8152612b4860208401612508565b602082015260408301516040820152612b6360608401612376565b6060820152612b746080840161240a565b608082015260a083015182811115612b8a578485fd5b612b96878286016124b2565b60a08301525060c083015160c082015260e083015160e0820152610100915081830151828201526101209150612bcd828401612376565b828201526101409150612be1828401612376565b91810191909152949350505050565b600060208284031215612c01578081fd5b5035919050565b60008060008060808587031215612c1d578182fd5b84519350602085015180600b0b8114612c34578283fd5b6040860151606090960151949790965092505050565b6000815180845260208085019450808401835b83811015612c7957815187529582019590820190600101612c5d565b509495945050505050565b81835281816020850137506000828201602090810191909152601f909101601f19169091010190565b60008151808452612cc58160208601602086016131eb565b601f01601f19169290920160200192915050565b8054600090600181811c9080831680612cf357607f831692505b6020808410821415612d1357634e487b7160e01b86526022600452602486fd5b83885260208801828015612d2e5760018114612d3f57612d6a565b60ff19871682528282019750612d6a565b60008981526020902060005b87811015612d6457815484820152908601908401612d4b565b83019850505b5050505050505092915050565b6001600160a01b0389811682528881166020830152871660408201526060810186905260c060808201819052600090612db39083018688612c84565b82810360a0840152611040818587612c84565b6001600160a01b0386811682528516602082015260a060408201819052600090612df290830186612c4a565b8281036060840152612e048186612c4a565b90508281036080840152612e188185612cad565b98975050505050505050565b6001600160a01b03868116825285166020820152604081018490526060810183905260a060808201819052600090610d9990830184612cad565b6001600160a01b03898116825261010060208301819052600091612e848483018c612cad565b91508382036040850152612e98828b612cad565b91508860608501528088166080850152508560a08401528460c084015282810360e08401526110408185612cad565b6001600160a01b0384168152606060208201819052600090612eeb90830185612cd9565b8281036040840152612efd8185612cd9565b9695505050505050565b602081526000610a5e6020830184612c4a565b604081526000612f2d6040830185612c4a565b82810360208401526124ff8185612c4a565b821515815260406020820152600061292f6040830184612cad565b60208152600061292f602083018486612c84565b602081526000610a5e6020830184612cad565b6001600160a01b0383168152606060208201819052600090612fa590830184612cad565b8281036040938401526002815261060f60f31b6020820152919091019392505050565b6001600160a01b038581168252848116602083015283166040820152608060608201819052600090612efd90830184612cad565b60208082526028908201527f455243313135353a204552433131353552656365697665722072656a656374656040820152676420746f6b656e7360c01b606082015260800190565b60208082526025908201527f455243313135353a207472616e7366657220746f20746865207a65726f206164604082015264647265737360d81b606082015260800190565b6020808252601b908201527f4974656d3a20737570706f7274206f6e6c79206f6e6520686f73740000000000604082015260600190565b6020808252602a908201527f455243313135353a20696e73756666696369656e742062616c616e636520666f60408201526939103a3930b739b332b960b11b606082015260800190565b60405161016081016001600160401b038111828210171561312d5761312d6132b3565b60405290565b60006001600160401b0382111561314c5761314c6132b3565b5060051b60200190565b60006001600160401b0382111561316f5761316f6132b3565b50601f01601f191660200190565b600082198211156131905761319061329d565b500190565b6000826131b057634e487b7160e01b81526012600452602481fd5b500490565b60008160001904831182151516156131cf576131cf61329d565b500290565b6000828210156131e6576131e661329d565b500390565b60005b838110156132065781810151838201526020016131ee565b83811115613215576000848401525b50505050565b600181811c9082168061322f57607f821691505b6020821081141561325057634e487b7160e01b600052602260045260246000fd5b50919050565b601f8201601f191681016001600160401b038111828210171561327b5761327b6132b3565b6040525050565b60006000198214156132965761329661329d565b5060010190565b634e487b7160e01b600052601160045260246000fd5b634e487b7160e01b600052604160045260246000fd5b600060033d11156132de57600481823e5160e01c5b90565b600060443d10156132ef5790565b6040516003193d81016004833e81513d6001600160401b03816024840111818411171561331e57505050505090565b82850191508151818111156133365750505050505090565b843d87010160208285010111156133505750505050505090565b61335f60208286010187613256565b509095945050505050565b6001600160a01b038116811461073b57600080fd5b6001600160e01b03198116811461073b57600080fdfea26469706673582212205d287a83c8ddcabc35dcd30bdfe1e205f7372d85de1779b6e470329d655a424264736f6c63430008040033a2646970667358221220d77bcfb80383557c20a99b5b07ad779929cca9391c1eddc55df51097b9c1646764736f6c63430008040033",
  "linkReferences": {},
  "deployedLinkReferences": {}
}