{
  "_format": "hh-sol-artifact-1",
  "contractName": "ItemFactory",
  "sourceName": "contracts/ItemFactory.sol",
  "abi": [
    {
      "inputs": [
        {
          "internalType": "address",
          "name": "main",
          "type": "address"
        }
      ],
      "stateMutability": "nonpayable",
      "type": "constructor"
    },
    {
      "inputs": [
        {
          "internalType": "bytes",
          "name": "",
          "type": "bytes"
        }
      ],
      "name": "checkUpkeep",
      "outputs": [
        {
          "internalType": "bool",
          "name": "upkeepNeeded",
          "type": "bool"
        },
        {
          "internalType": "bytes",
          "name": "performData",
          "type": "bytes"
        }
      ],
      "stateMutability": "view",
      "type": "function"
    },
    {
      "inputs": [
        {
          "internalType": "address",
          "name": "owner",
          "type": "address"
        },
        {
          "internalType": "string",
          "name": "title",
          "type": "string"
        },
        {
          "internalType": "string",
          "name": "description",
          "type": "string"
        },
        {
          "internalType": "uint256",
          "name": "price",
          "type": "uint256"
        },
        {
          "internalType": "address",
          "name": "token",
          "type": "address"
        },
        {
          "internalType": "uint256",
          "name": "amount",
          "type": "uint256"
        },
        {
          "internalType": "uint256",
          "name": "endPaymentDate",
          "type": "uint256"
        },
        {
          "internalType": "string",
          "name": "uri",
          "type": "string"
        }
      ],
      "name": "deployItem",
      "outputs": [
        {
          "internalType": "contract Item",
          "name": "item",
          "type": "address"
        }
      ],
      "stateMutability": "nonpayable",
      "type": "function"
    },
    {
      "inputs": [
        {
          "internalType": "bytes",
          "name": "performData",
          "type": "bytes"
        }
      ],
      "name": "performUpkeep",
      "outputs": [],
      "stateMutability": "nonpayable",
      "type": "function"
    }
  ],
  "bytecode": "0x608060405234801561001057600080fd5b5060405161535838038061535883398101604081905261002f916100ae565b6001600160a01b0381166100895760405162461bcd60e51b815260206004820152601d60248201527f4974656d466163746f72793a204d61696e2063616e2774206265203078000000604482015260640160405180910390fd5b600280546001600160a01b0319166001600160a01b03929092169190911790556100dc565b6000602082840312156100bf578081fd5b81516001600160a01b03811681146100d5578182fd5b9392505050565b61526d806100eb6000396000f3fe60806040523480156200001157600080fd5b5060043610620000465760003560e01c8063316b9c80146200004b5780634585e33b146200007f5780636e04ff0d1462000098575b600080fd5b620000626200005c3660046200066a565b620000bf565b6040516001600160a01b0390911681526020015b60405180910390f35b62000096620000903660046200080c565b620001a5565b005b620000af620000a93660046200080c565b6200023a565b60405162000076929190620009a3565b6002546000906001600160a01b031633146200012b5760405162461bcd60e51b815260206004820152602160248201527f4974656d466163746f72793a204e6f742063616c6c65642066726f6d206d61696044820152603760f91b606482015260840160405180910390fd5b600260009054906101000a90046001600160a01b031689898989898989896040516200015790620005cd565b6200016b99989796959493929190620008cc565b604051809103906000f08015801562000188573d6000803e3d6000fd5b50905062000198600082620004e7565b5098975050505050505050565b6000620001b5828401846200073b565b905080600081518110620001d957634e487b7160e01b600052603260045260246000fd5b60200260200101516001600160a01b031663d1058e596040518163ffffffff1660e01b8152600401600060405180830381600087803b1580156200021c57600080fd5b505af115801562000231573d6000803e3d6000fd5b50505050505050565b6000606060006200024c600062000507565b90506000805b825181101562000324578281815181106200027d57634e487b7160e01b600052603260045260246000fd5b60200260200101516001600160a01b03166374478bb36040518163ffffffff1660e01b815260040160206040518083038186803b158015620002be57600080fd5b505afa158015620002d3573d6000803e3d6000fd5b505050506040513d601f19601f82011682018060405250810190620002f99190620007ea565b156200030f57816200030b81620009fc565b9250505b806200031b81620009fc565b91505062000252565b508015620004da5760008167ffffffffffffffff8111156200035657634e487b7160e01b600052604160045260246000fd5b60405190808252806020026020018201604052801562000380578160200160208202803683370190505b50905060005b8351811015620004b357838181518110620003b157634e487b7160e01b600052603260045260246000fd5b60200260200101516001600160a01b03166374478bb36040518163ffffffff1660e01b815260040160206040518083038186803b158015620003f257600080fd5b505afa15801562000407573d6000803e3d6000fd5b505050506040513d601f19601f820116820180604052508101906200042d9190620007ea565b156200049e578381815181106200045457634e487b7160e01b600052603260045260246000fd5b60200260200101518282815181106200047d57634e487b7160e01b600052603260045260246000fd5b60200260200101906001600160a01b031690816001600160a01b0316815250505b80620004aa81620009fc565b91505062000386565b5080604051602001620004c7919062000954565b6040516020818303038152906040529350505b1515959194509092505050565b6000620004fe836001600160a01b0384166200051d565b90505b92915050565b6060600062000516836200056f565b9392505050565b6000818152600183016020526040812054620005665750815460018181018455600084815260208082209093018490558454848252828601909352604090209190915562000501565b50600062000501565b606081600001805480602002602001604051908101604052809291908181526020018280548015620005c157602002820191906000526020600020905b815481526020019060010190808311620005ac575b50505050509050919050565b6147fd8062000a3b83390190565b80356001600160a01b0381168114620005f357600080fd5b919050565b600082601f83011262000609578081fd5b813567ffffffffffffffff81111562000626576200062662000a24565b6200063b601f8201601f1916602001620009c8565b81815284602083860101111562000650578283fd5b816020850160208301379081016020019190915292915050565b600080600080600080600080610100898b03121562000687578384fd5b6200069289620005db565b9750602089013567ffffffffffffffff80821115620006af578586fd5b620006bd8c838d01620005f8565b985060408b0135915080821115620006d3578586fd5b620006e18c838d01620005f8565b975060608b01359650620006f860808c01620005db565b955060a08b0135945060c08b0135935060e08b01359150808211156200071c578283fd5b506200072b8b828c01620005f8565b9150509295985092959890939650565b600060208083850312156200074e578182fd5b823567ffffffffffffffff8082111562000766578384fd5b818501915085601f8301126200077a578384fd5b8135818111156200078f576200078f62000a24565b8060051b9150620007a2848301620009c8565b8181528481019084860184860187018a1015620007bd578788fd5b8795505b838610156200019857620007d581620005db565b835260019590950194918601918601620007c1565b600060208284031215620007fc578081fd5b8151801515811462000516578182fd5b600080602083850312156200081f578182fd5b823567ffffffffffffffff8082111562000837578384fd5b818501915085601f8301126200084b578384fd5b8135818111156200085a578485fd5b8660208285010111156200086c578485fd5b60209290920196919550909350505050565b60008151808452815b81811015620008a55760208185018101518683018201520162000887565b81811115620008b75782602083870101525b50601f01601f19169290920160200192915050565b6001600160a01b038a81168252898116602083015261012060408301819052600091620008fc8483018c6200087e565b9150838203606085015262000912828b6200087e565b915088608085015280881660a0850152508560c08401528460e08401528281036101008401526200094481856200087e565b9c9b505050505050505050505050565b6020808252825182820181905260009190848201906040850190845b81811015620009975783516001600160a01b03168352928401929184019160010162000970565b50909695505050505050565b8215158152604060208201526000620009c060408301846200087e565b949350505050565b604051601f8201601f1916810167ffffffffffffffff81118282101715620009f457620009f462000a24565b604052919050565b600060001982141562000a1d57634e487b7160e01b81526011600452602481fd5b5060010190565b634e487b7160e01b600052604160045260246000fdfe6080604052600380546001600160a01b031916731820a4b7618bde71dce8cdc73aab6c95905fad241790553480156200003757600080fd5b50604051620047fd380380620047fd8339810160408190526200005a9162000cd8565b83816200006781620006c7565b50600480546001600160a01b0319166001600160a01b038381169190911782556003546040516329965a1d60e01b8152309381018490527fb281fc8c12954d22544db45de3159a39272895b169a852b314f9cc762e44c53b6024820152604481019390935216906329965a1d90606401600060405180830381600087803b158015620000f257600080fd5b505af115801562000107573d6000803e3d6000fd5b50505050506001600160a01b038816620001685760405162461bcd60e51b815260206004820152601f60248201527f4974656d3a204f776e657220416464726573732063616e27742062652030780060448201526064015b60405180910390fd5b60008511620001ba5760405162461bcd60e51b815260206004820152601760248201527f4974656d3a205072696365206d757374206265203e203000000000000000000060448201526064016200015f565b6001600160a01b038416620002125760405162461bcd60e51b815260206004820152601f60248201527f4974656d3a20546f6b656e20416464726573732063616e27742062652030780060448201526064016200015f565b60008311620002645760405162461bcd60e51b815260206004820152601860248201527f4974656d3a20416d6f756e74206d757374206265203e2030000000000000000060448201526064016200015f565b428211620002c85760405162461bcd60e51b815260206004820152602a60248201527f4974656d3a20456e645061796d656e7444617465206d75737420626520696e206044820152697468652066757475726560b01b60648201526084016200015f565b600580546001600160a01b03199081166001600160a01b038c8116918217909355600680549092168b84161790915560405163ce69fd6f60e01b81529186166004830152859163ce69fd6f9060240160206040518083038186803b1580156200033057600080fd5b505afa15801562000345573d6000803e3d6000fd5b505050506040513d601f19601f820116820180604052508101906200036b919062000dbc565b620003b95760405162461bcd60e51b815260206004820152601960248201527f4974656d3a205375706572546f6b656e2072657175697265640000000000000060448201526064016200015f565b6040518060e00160405280898152602001888152602001878152602001866001600160a01b0316815260200185815260200184815260200183815250600760008201518160000190805190602001906200041592919062000baa565b50602082810151805162000430926001850192019062000baa565b506040820151600282015560608201516003820180546001600160a01b0319166001600160a01b039092169190911790556080820151600482015560a0820151600582015560c082015180516200049291600684019160209091019062000baa565b509050506000846001600160401b03811115620004bf57634e487b7160e01b600052604160045260246000fd5b604051908082528060200260200182016040528015620004e9578160200160208202803683370190505b50905060005b85811015620005635760018282815181106200051b57634e487b7160e01b600052603260045260246000fd5b60209081029190910101526200054d62000537826001620010ca565b6016620006e060201b620014d31790919060201c565b50806200055a8162001184565b915050620004ef565b506200059730620005806016620006f760201b620014df1760201c565b60408051602081019091526000815284906200070d565b600560009054906101000a90046001600160a01b03166001600160a01b031663f66705456040518163ffffffff1660e01b815260040160006040518083038186803b158015620005e657600080fd5b505afa158015620005fb573d6000803e3d6000fd5b505050506040513d6000823e601f3d908101601f1916820160405262000625919081019062000e08565b5050600f80546001600160a01b03199081166001600160a01b0393841617909155600e805490911692821692909217909155600654600954600a54600b54600c546040517f7141f591b60c586cf546b56c1243a5a2585882c5539e0196f3ae01308cf50c5796620006ae96309690821695600795600895929491909316929190600d9062000ffb565b60405180910390a150505050505050505050506200128f565b8051620006dc90600290602084019062000baa565b5050565b6000620006ee838362000906565b90505b92915050565b60606000620007068362000958565b9392505050565b6001600160a01b0384166200076f5760405162461bcd60e51b815260206004820152602160248201527f455243313135353a206d696e7420746f20746865207a65726f206164647265736044820152607360f81b60648201526084016200015f565b8151835114620007d35760405162461bcd60e51b815260206004820152602860248201527f455243313135353a2069647320616e6420616d6f756e7473206c656e677468206044820152670dad2e6dac2e8c6d60c31b60648201526084016200015f565b3360005b845181101562000893578381815181106200080257634e487b7160e01b600052603260045260246000fd5b60200260200101516000808784815181106200082e57634e487b7160e01b600052603260045260246000fd5b602002602001015181526020019081526020016000206000886001600160a01b03166001600160a01b031681526020019081526020016000206000828254620008789190620010ca565b909155508190506200088a8162001184565b915050620007d7565b50846001600160a01b031660006001600160a01b0316826001600160a01b03167f4a39dc06d4c0dbc64b70af90fd698a233a518aa5d07e595d983b8c0526c8f7fb8787604051620008e692919062001083565b60405180910390a4620008ff81600087878787620009be565b5050505050565b60008181526001830160205260408120546200094f57508154600181810184556000848152602080822090930184905584548482528286019093526040902091909155620006f1565b506000620006f1565b606081600001805480602002602001604051908101604052809291908181526020018280548015620009aa57602002820191906000526020600020905b81548152602001906001019080831162000995575b50505050509050919050565b505050505050565b620009dd846001600160a01b031662000ba460201b620014ec1760201c565b15620009b65760405163bc197c8160e01b81526001600160a01b0385169063bc197c819062000a19908990899088908890889060040162000f97565b602060405180830381600087803b15801562000a3457600080fd5b505af192505050801562000a67575060408051601f3d908101601f1916820190925262000a649181019062000dde565b60015b62000b285762000a76620011ce565b806308c379a0141562000ab7575062000a8e620011e7565b8062000a9b575062000ab9565b8060405162461bcd60e51b81526004016200015f9190620010b5565b505b60405162461bcd60e51b815260206004820152603460248201527f455243313135353a207472616e7366657220746f206e6f6e204552433131353560448201527f526563656976657220696d706c656d656e74657200000000000000000000000060648201526084016200015f565b6001600160e01b0319811663bc197c8160e01b1462000b9b5760405162461bcd60e51b815260206004820152602860248201527f455243313135353a204552433131353552656365697665722072656a656374656044820152676420746f6b656e7360c01b60648201526084016200015f565b50505050505050565b3b151590565b82805462000bb89062001118565b90600052602060002090601f01602090048101928262000bdc576000855562000c27565b82601f1062000bf757805160ff191683800117855562000c27565b8280016001018555821562000c27579182015b8281111562000c2757825182559160200191906001019062000c0a565b5062000c3592915062000c39565b5090565b5b8082111562000c35576000815560010162000c3a565b805162000c5d8162001276565b919050565b600082601f83011262000c73578081fd5b81516001600160401b0381111562000c8f5762000c8f620011b8565b60405162000ca8601f8301601f19166020018262001155565b81815284602083860101111562000cbd578283fd5b62000cd0826020830160208701620010e5565b949350505050565b60008060008060008060008060006101208a8c03121562000cf7578485fd5b62000d028a62000c50565b985062000d1260208b0162000c50565b60408b01519098506001600160401b038082111562000d2f578687fd5b62000d3d8d838e0162000c62565b985060608c015191508082111562000d53578687fd5b62000d618d838e0162000c62565b975060808c0151965062000d7860a08d0162000c50565b955060c08c0151945060e08c015193506101008c015191508082111562000d9d578283fd5b5062000dac8c828d0162000c62565b9150509295985092959850929598565b60006020828403121562000dce578081fd5b8151801515811462000706578182fd5b60006020828403121562000df0578081fd5b81516001600160e01b03198116811462000706578182fd5b6000806000806080858703121562000e1e578384fd5b845162000e2b8162001276565b602086015190945062000e3e8162001276565b604086015190935062000e518162001276565b60608601519092506001600160401b0381111562000e6d578182fd5b62000e7b8782880162000c62565b91505092959194509250565b6000815180845260208085019450808401835b8381101562000eb85781518752958201959082019060010162000e9a565b509495945050505050565b6000815180845262000edd816020860160208601620010e5565b601f01601f19169290920160200192915050565b8054600090600181811c908083168062000f0c57607f831692505b602080841082141562000f2d57634e487b7160e01b86526022600452602486fd5b8388526020880182801562000f4b576001811462000f5d5762000f8a565b60ff1987168252828201975062000f8a565b60008981526020902060005b8781101562000f845781548482015290860190840162000f69565b83019850505b5050505050505092915050565b6001600160a01b0386811682528516602082015260a06040820181905260009062000fc59083018662000e87565b828103606084015262000fd9818662000e87565b9050828103608084015262000fef818562000ec3565b98975050505050505050565b6001600160a01b038a811682528981166020830152610120604083018190526000916200102b8483018c62000ef1565b9150838203606085015262001041828b62000ef1565b915088608085015280881660a0850152508560c08401528460e084015282810361010084015262001073818562000ef1565b9c9b505050505050505050505050565b60408152600062001098604083018562000e87565b8281036020840152620010ac818562000e87565b95945050505050565b602081526000620006ee602083018462000ec3565b60008219821115620010e057620010e0620011a2565b500190565b60005b8381101562001102578181015183820152602001620010e8565b8381111562001112576000848401525b50505050565b600181811c908216806200112d57607f821691505b602082108114156200114f57634e487b7160e01b600052602260045260246000fd5b50919050565b601f8201601f191681016001600160401b03811182821017156200117d576200117d620011b8565b6040525050565b60006000198214156200119b576200119b620011a2565b5060010190565b634e487b7160e01b600052601160045260246000fd5b634e487b7160e01b600052604160045260246000fd5b600060033d1115620011e457600481823e5160e01c5b90565b600060443d1015620011f65790565b6040516003193d81016004833e81513d6001600160401b0380831160248401831017156200122657505050505090565b82850191508151818111156200123f5750505050505090565b843d87010160208285010111156200125a5750505050505090565b6200126b6020828601018762001155565b509095945050505050565b6001600160a01b03811681146200128c57600080fd5b50565b61355e806200129f6000396000f3fe608060405234801561001057600080fd5b50600436106101715760003560e01c806353c11f99116100de578063a22cb46511610097578063e985e9c511610071578063e985e9c51461032b578063f242432a14610367578063f4c84d191461037a578063fbbf93a01461038d57600080fd5b8063a22cb465146102fd578063d1058e5914610310578063d86ed3e51461031857600080fd5b806353c11f99146102a15780635f9e7d77146102b4578063739656db146102c757806374478bb3146102da578063884d1f40146102e257806391f7cfb9146102f557600080fd5b806325e160631161013057806325e160631461021a5780632eb2c2d61461022d57806330d9c915146102405780633dd6d5331461025357806348c3de5e146102665780634e1273f41461028157600080fd5b806223de2914610176578062fdd58e1461018b57806301ffc9a7146101b15780630e89341c146101d45780631e83409a146101f4578063230dbd2914610207575b600080fd5b6101896101843660046126f6565b6103a9565b005b61019e6101993660046128f1565b610461565b6040519081526020015b60405180910390f35b6101c46101bf366004612a38565b6104f6565b60405190151581526020016101a8565b6101e76101e2366004612d63565b610501565b6040516101a891906130c6565b6101896102023660046126a2565b610595565b6101e7610215366004612b45565b610748565b6101896102283660046126a2565b6107aa565b61018961023b3660046127a3565b610859565b6101e761024e366004612aaa565b6108f0565b61019e6102613660046126a2565b6109f0565b61026e610a49565b604051600b9190910b81526020016101a8565b61029461028f36600461291c565b610a82565b6040516101a8919061307a565b6101e76102af366004612b45565b610be3565b6101e76102c2366004612aaa565b610cb7565b6101896102d53660046128df565b610d57565b6101c4610ed6565b6101e76102f0366004612aaa565b610ef9565b61019e610f5c565b61018961030b3660046128b2565b610f68565b61018961103f565b6101e7610326366004612b45565b61106b565b6101c46103393660046126be565b6001600160a01b03918216600090815260016020908152604080832093909416825291909152205460ff1690565b61018961037536600461284c565b6111a6565b610189610388366004612c0b565b61122d565b6103956112d7565b6040516101a8989796959493929190612fd1565b6004546001600160a01b031633146104125760405162461bcd60e51b815260206004820152602160248201527f53696d706c65373737526563697069656e743a20496e76616c696420746f6b656044820152603760f91b60648201526084015b60405180910390fd5b7fa0a5a35754b3519ae614f00422ac62a6bc4608ccb722963aab00cb48c588ad72888888888888888860405161044f989796959493929190612eea565b60405180910390a15050505050505050565b60006001600160a01b0383166104cd5760405162461bcd60e51b815260206004820152602b60248201527f455243313135353a2062616c616e636520717565727920666f7220746865207a60448201526a65726f206164647265737360a81b6064820152608401610409565b506000818152602081815260408083206001600160a01b03861684529091529020545b92915050565b60006104f0826114f2565b606060028054610510906133a0565b80601f016020809104026020016040519081016040528092919081815260200182805461053c906133a0565b80156105895780601f1061055e57610100808354040283529160200191610589565b820191906000526020600020905b81548152906001019060200180831161056c57829003601f168201915b50505050509050919050565b61059e81611542565b6105e25760405162461bcd60e51b8152602060048201526015602482015274092e8cada74409cdee840e0c2d2c840cadcdeeaced605b1b6044820152606401610409565b60006105ee60186115a7565b1161063b5760405162461bcd60e51b815260206004820152601860248201527f4974656d3a204e6f206974656d7320617661696c61626c6500000000000000006044820152606401610409565b600e54600f54600a546040805160008152602081019091526001600160a01b03938416936339255d5b93811692635a5999e360e11b9261068692909116908790309060448101613120565b60408051601f198184030181529181526020820180516001600160e01b03166001600160e01b03199485161790525160e085901b90921682526106cc92916004016130d9565b600060405180830381600087803b1580156106e657600080fd5b505af11580156106fa573d6000803e3d6000fd5b505050506040513d6000823e601f3d908101601f191682016040526107229190810190612a70565b506001600160a01b038116600090815260126020526040902054610745906115b1565b50565b60405162461bcd60e51b815260206004820152602e60248201527f556e737570706f727465642063616c6c6261636b202d2041667465722041677260448201526d19595b595b9d08155c19185d195960921b6064820152606090608401610409565b6006546001600160a01b0316336001600160a01b0316146107dd5760405162461bcd60e51b815260040161040990613262565b6040516001600160a01b038216904780156108fc02916000818181858888f19350505050158015610812573d6000803e3d6000fd5b50806001600160a01b03167fa8841823f7591414a80deddb48af504373043ab5959ceddf527c2215d62cb29b4760405161084e91815260200190565b60405180910390a250565b6001600160a01b03851633148061087557506108758533610339565b6108dc5760405162461bcd60e51b815260206004820152603260248201527f455243313135353a207472616e736665722063616c6c6572206973206e6f74206044820152711bdddb995c881b9bdc88185c1c1c9bdd995960721b6064820152608401610409565b6108e98585858585611752565b5050505050565b600e546060906001600160a01b0316331461091d5760405162461bcd60e51b8152600401610409906131e1565b878761093782600a546001600160a01b0391821691161490565b6109835760405162461bcd60e51b815260206004820152601860248201527f4974656d3a206e6f7420616363657074656420746f6b656e00000000000000006044820152606401610409565b61098c8161194b565b6109d85760405162461bcd60e51b815260206004820152601a60248201527f4974656d3a206f6e6c7920434641763120737570706f727465640000000000006044820152606401610409565b6109e285856119e6565b9a9950505050505050505050565b6001600160a01b038116600090815260126020908152604080832054808452601590925282208054600190910154600160a01b909104600b90810b900b90610a389042613359565b610a42919061333a565b9392505050565b6000610a576103e84261331a565b610a63906103e861333a565b600c54610a709190613359565b600954610a7d919061331a565b905090565b60608151835114610ae75760405162461bcd60e51b815260206004820152602960248201527f455243313135353a206163636f756e747320616e6420696473206c656e677468604482015268040dad2e6dac2e8c6d60bb1b6064820152608401610409565b600083516001600160401b03811115610b1057634e487b7160e01b600052604160045260246000fd5b604051908082528060200260200182016040528015610b39578160200160208202803683370190505b50905060005b8451811015610bdb57610ba0858281518110610b6b57634e487b7160e01b600052603260045260246000fd5b6020026020010151858381518110610b9357634e487b7160e01b600052603260045260246000fd5b6020026020010151610461565b828281518110610bc057634e487b7160e01b600052603260045260246000fd5b6020908102919091010152610bd481613407565b9050610b3f565b509392505050565b600e546060906001600160a01b03163314610c105760405162461bcd60e51b8152600401610409906131e1565b6000610c1e858701876129e8565b90508015610c665783838080601f016020809104026020016040519081016040528093929190818152602001838380828437600092019190915250929450610caa9350505050565b610c6f896115b1565b83838080601f016020809104026020016040519081016040528093929190818152602001838380828437600092019190915250929450505050505b9998505050505050505050565b600e546060906001600160a01b03163314610ce45760405162461bcd60e51b8152600401610409906131e1565b600a546001600160a01b038981169116141580610d075750610d058761194b565b155b15610d2e576040805160016020820152016040516020818303038152906040529050610d4c565b60408051600060208201520160405160208183030381529060405290505b979650505050505050565b6006546001600160a01b0316336001600160a01b031614610d8a5760405162461bcd60e51b815260040161040990613262565b6040516370a0823160e01b81523060048201526000906001600160a01b038316906370a082319060240160206040518083038186803b158015610dcc57600080fd5b505afa158015610de0573d6000803e3d6000fd5b505050506040513d601f19601f82011682018060405250810190610e049190612a20565b60405163a9059cbb60e01b81526001600160a01b038581166004830152602482018390529192509083169063a9059cbb90604401602060405180830381600087803b158015610e5257600080fd5b505af1158015610e66573d6000803e3d6000fd5b505050506040513d601f19601f82011682018060405250810190610e8a9190612a04565b50604080516001600160a01b038481168252602082018490528516917fff983b1ccc025e07793c4f190d78e623674e22099f0307250af371a7227358b6910160405180910390a2505050565b600042600760050154108015610a7d57506000610ef360106115a7565b11905090565b60405162461bcd60e51b815260206004820152602f60248201527f556e737570706f727465642063616c6c6261636b202d204265666f726520416760448201526e1c99595b595b9d081d5c19185d1959608a1b6064820152606090608401610409565b6000610a7d60166115a7565b336001600160a01b0383161415610fd35760405162461bcd60e51b815260206004820152602960248201527f455243313135353a2073657474696e6720617070726f76616c20737461747573604482015268103337b91039b2b63360b91b6064820152608401610409565b3360008181526001602090815260408083206001600160a01b03871680855290835292819020805460ff191686151590811790915590519081529192917f17307eab39ab6107e8899845ad3d59bd9653f200f220920489ca2b5937696c31910160405180910390a35050565b60005b606481101561074557611059610202601083611b15565b8061106381613407565b915050611042565b600e546060906001600160a01b031633146110985760405162461bcd60e51b8152600401610409906131e1565b600a54604051631557a4cd60e31b81526001600160a01b039182166004820152602481018a90526000918b169063aabd26689060440160806040518083038186803b1580156110e657600080fd5b505afa1580156110fa573d6000803e3d6000fd5b505050506040513d601f19601f8201168201806040525081019061111e9190612d7b565b505091505061112b610a49565b600b0b81600b0b146111895760405162461bcd60e51b815260206004820152602160248201527f4974656d3a20526571756972656420466c6f772072617465206d69736d6174636044820152600d60fb1b6064820152608401610409565b61119784848c8c8a8a611b21565b9b9a5050505050505050505050565b6001600160a01b0385163314806111c257506111c28533610339565b6112205760405162461bcd60e51b815260206004820152602960248201527f455243313135353a2063616c6c6572206973206e6f74206f776e6572206e6f7260448201526808185c1c1c9bdd995960ba1b6064820152608401610409565b6108e98585858585611e6b565b6006546001600160a01b0316336001600160a01b0316146112605760405162461bcd60e51b815260040161040990613262565b8151611273906007906020850190612476565b508051611287906008906020840190612476565b506006546040517ff1e140dd045e4105d6296c80c9d27435efdf24668b3691ea586a45d33b31184f916112cb916001600160a01b039091169060079060089061303a565b60405180910390a15050565b600654600954600a54600b54600c5460078054600096606096879689968796879687968b966001600160a01b03908116969295600895939491169291600d908790611321906133a0565b80601f016020809104026020016040519081016040528092919081815260200182805461134d906133a0565b801561139a5780601f1061136f5761010080835404028352916020019161139a565b820191906000526020600020905b81548152906001019060200180831161137d57829003601f168201915b505050505096508580546113ad906133a0565b80601f01602080910402602001604051908101604052809291908181526020018280546113d9906133a0565b80156114265780601f106113fb57610100808354040283529160200191611426565b820191906000526020600020905b81548152906001019060200180831161140957829003601f168201915b50505050509550808054611439906133a0565b80601f0160208091040260200160405190810160405280929190818152602001828054611465906133a0565b80156114b25780601f10611487576101008083540402835291602001916114b2565b820191906000526020600020905b81548152906001019060200180831161149557829003601f168201915b50505050509050975097509750975097509750975097509091929394959697565b6000610a428383611f91565b60606000610a4283611fe0565b3b151590565b60006001600160e01b03198216636cdb3d1360e11b148061152357506001600160e01b031982166303a24d0760e21b145b806104f057506301ffc9a760e01b6001600160e01b03198316146104f0565b600061154f60108361203b565b6115935760405162461bcd60e51b815260206004820152601560248201527424ba32b69d102737ba10313abcb4b733903ab9b2b960591b6044820152606401610409565b60095461159f836109f0565b101592915050565b60006104f0825490565b6000818152601560205260409020546001600160a01b03166115d281611542565b6115ff5760006115e3601882611b15565b90506115f060188261205d565b506115fc6016826114d3565b50505b61160881611542565b61164c5760405162461bcd60e51b8152602060048201526015602482015274125d195b4e88139bdd08195b9bdd59da081c185a59605a1b6044820152606401610409565b611657601082612069565b506001600160a01b03811660009081526012602052604081205561167c60138361205d565b506040805160608101825260008082526020808301828152838501838152878452601590925293822092519351600b0b6001600160601b0316600160a01b026001600160a01b039490941693909317825591516001909101556116e0601882611b15565b90506116ed60188261205d565b5061170b308383600160405180602001604052806000815250611e6b565b604080516001600160a01b0384168152602081018390527f8ed9b9c949dff330af22f05a44efa34da599a3e672ac89079f13da0ce789913b910160405180910390a1505050565b81518351146117b45760405162461bcd60e51b815260206004820152602860248201527f455243313135353a2069647320616e6420616d6f756e7473206c656e677468206044820152670dad2e6dac2e8c6d60c31b6064820152608401610409565b6001600160a01b0384166117da5760405162461bcd60e51b81526004016104099061319c565b3360005b84518110156118dd57600085828151811061180957634e487b7160e01b600052603260045260246000fd5b60200260200101519050600085838151811061183557634e487b7160e01b600052603260045260246000fd5b602090810291909101810151600084815280835260408082206001600160a01b038e1683529093529190912054909150818110156118855760405162461bcd60e51b815260040161040990613218565b6000838152602081815260408083206001600160a01b038e8116855292528083208585039055908b168252812080548492906118c2908490613302565b92505081905550505050806118d690613407565b90506117de565b50846001600160a01b0316866001600160a01b0316826001600160a01b03167f4a39dc06d4c0dbc64b70af90fd698a233a518aa5d07e595d983b8c0526c8f7fb878760405161192d92919061308d565b60405180910390a461194381878787878761207e565b505050505050565b60007fa9214cc96615e0085d3bb077758db69497dc2dce3b2b1e97bc93c3d18d83efd3826001600160a01b0316637730599e6040518163ffffffff1660e01b815260040160206040518083038186803b1580156119a757600080fd5b505afa1580156119bb573d6000803e3d6000fd5b505050506040513d601f19601f820116820180604052508101906119df9190612a20565b1492915050565b600e54604051631fb6491d60e11b81526060916000916001600160a01b0390911690633f6c923a90611a1e90879087906004016130b2565b60006040518083038186803b158015611a3657600080fd5b505afa158015611a4a573d6000803e3d6000fd5b505050506040513d6000823e601f3d908101601f19168201604052611a729190810190612c61565b9050611a8c8160600151601061203b90919063ffffffff16565b15611ae35760405162461bcd60e51b815260206004820152602160248201527f4974656d3a205573657220616c726561647920627579696e6720616e204974656044820152606d60f81b6064820152608401610409565b6060810151604080516001600160a01b0390921660208301520160405160208183030381529060405291505092915050565b6000610a4283836121e9565b60606000611b2f60166115a7565b11611b7c5760405162461bcd60e51b815260206004820152601860248201527f4974656d3a204e6f204974656d7320617661696c61626c6500000000000000006044820152606401610409565b600e54604051631fb6491d60e11b81526000916001600160a01b031690633f6c923a90611baf908b908b906004016130b2565b60006040518083038186803b158015611bc757600080fd5b505afa158015611bdb573d6000803e3d6000fd5b505050506040513d6000823e601f3d908101601f19168201604052611c039190810190612c61565b9050611c1d8160600151601061222190919063ffffffff16565b5060608101516001600160a01b03166000908152601260205260409020859055611c486013866114d3565b506000611c56601682611b15565b9050611c6360168261205d565b50611c6f6018826114d3565b50600a54604051631557a4cd60e31b81526001600160a01b039182166004820152602481018890526000918291908a169063aabd26689060440160806040518083038186803b158015611cc157600080fd5b505afa158015611cd5573d6000803e3d6000fd5b505050506040513d601f19601f82011682018060405250810190611cf99190612d7b565b505091509150604051806060016040528085606001516001600160a01b0316815260200182600b0b815260200183815250601560008a815260200190815260200160002060008201518160000160006101000a8154816001600160a01b0302191690836001600160a01b0316021790555060208201518160000160146101000a8154816001600160601b030219169083600b0b6001600160601b0316021790555060408201518160010155905050600081600b0b600760020154611dbd919061331a565b611dc79084613302565b606080870151604080516001600160a01b039092168252602082018d9052600b86900b908201529081018290529091507fbe63124fcd6e35a686f207415131db9e0fd573b9fe87911576f7de249417efb39060800160405180910390a18b8b8080601f016020809104026020016040519081016040528093929190818152602001838380828437600092019190915250929f9e505050505050505050505050505050565b6001600160a01b038416611e915760405162461bcd60e51b81526004016104099061319c565b33611eaa818787611ea188612236565b6108e988612236565b6000848152602081815260408083206001600160a01b038a16845290915290205483811015611eeb5760405162461bcd60e51b815260040161040990613218565b6000858152602081815260408083206001600160a01b038b8116855292528083208785039055908816825281208054869290611f28908490613302565b909155505060408051868152602081018690526001600160a01b03808916928a821692918616917fc3d58168c5ae7397731d063d5bbf3d657854427343f4c083240f7aacaa2d0f62910160405180910390a4611f8882888888888861228f565b50505050505050565b6000818152600183016020526040812054611fd8575081546001818101845560008481526020808220909301849055845484825282860190935260409020919091556104f0565b5060006104f0565b60608160000180548060200260200160405190810160405280929190818152602001828054801561058957602002820191906000526020600020905b81548152602001906001019080831161201c5750505050509050919050565b6001600160a01b03811660009081526001830160205260408120541515610a42565b6000610a428383612359565b6000610a42836001600160a01b038416612359565b6001600160a01b0384163b156119435760405163bc197c8160e01b81526001600160a01b0385169063bc197c81906120c29089908990889088908890600401612f39565b602060405180830381600087803b1580156120dc57600080fd5b505af192505050801561210c575060408051601f3d908101601f1916820190925261210991810190612a54565b60015b6121b95761211861344e565b806308c379a01415612152575061212d613466565b806121385750612154565b8060405162461bcd60e51b815260040161040991906130c6565b505b60405162461bcd60e51b815260206004820152603460248201527f455243313135353a207472616e7366657220746f206e6f6e20455243313135356044820152732932b1b2b4bb32b91034b6b83632b6b2b73a32b960611b6064820152608401610409565b6001600160e01b0319811663bc197c8160e01b14611f885760405162461bcd60e51b815260040161040990613154565b600082600001828154811061220e57634e487b7160e01b600052603260045260246000fd5b9060005260206000200154905092915050565b6000610a42836001600160a01b038416611f91565b6040805160018082528183019092526060916000919060208083019080368337019050509050828160008151811061227e57634e487b7160e01b600052603260045260246000fd5b602090810291909101015292915050565b6001600160a01b0384163b156119435760405163f23a6e6160e01b81526001600160a01b0385169063f23a6e61906122d39089908990889088908890600401612f97565b602060405180830381600087803b1580156122ed57600080fd5b505af192505050801561231d575060408051601f3d908101601f1916820190925261231a91810190612a54565b60015b6123295761211861344e565b6001600160e01b0319811663f23a6e6160e01b14611f885760405162461bcd60e51b815260040161040990613154565b6000818152600183016020526040812054801561246c57600061237d600183613359565b855490915060009061239190600190613359565b90508181146124125760008660000182815481106123bf57634e487b7160e01b600052603260045260246000fd5b90600052602060002001549050808760000184815481106123f057634e487b7160e01b600052603260045260246000fd5b6000918252602080832090910192909255918252600188019052604090208390555b855486908061243157634e487b7160e01b600052603160045260246000fd5b6001900381819060005260206000200160009055905585600101600086815260200190815260200160002060009055600193505050506104f0565b60009150506104f0565b828054612482906133a0565b90600052602060002090601f0160209004810192826124a457600085556124ea565b82601f106124bd57805160ff19168380011785556124ea565b828001600101855582156124ea579182015b828111156124ea5782518255916020019190600101906124cf565b506124f69291506124fa565b5090565b5b808211156124f657600081556001016124fb565b805161251a816134ef565b919050565b600082601f83011261252f578081fd5b8135602061253c826132b8565b60405161254982826133db565b8381528281019150858301600585901b87018401881015612568578586fd5b855b858110156125865781358452928401929084019060010161256a565b5090979650505050505050565b805161251a81613512565b60008083601f8401126125af578182fd5b5081356001600160401b038111156125c5578182fd5b6020830191508360208285010111156125dd57600080fd5b9250929050565b600082601f8301126125f4578081fd5b81356125ff816132db565b60405161260c82826133db565b828152856020848701011115612620578384fd5b82602086016020830137918201602001929092529392505050565b600082601f83011261264b578081fd5b8151612656816132db565b60405161266382826133db565b828152856020848701011115612677578384fd5b612688836020830160208801613370565b95945050505050565b805160ff8116811461251a57600080fd5b6000602082840312156126b3578081fd5b8135610a42816134ef565b600080604083850312156126d0578081fd5b82356126db816134ef565b915060208301356126eb816134ef565b809150509250929050565b60008060008060008060008060c0898b031215612711578384fd5b883561271c816134ef565b9750602089013561272c816134ef565b9650604089013561273c816134ef565b95506060890135945060808901356001600160401b038082111561275e578586fd5b61276a8c838d0161259e565b909650945060a08b0135915080821115612782578384fd5b5061278f8b828c0161259e565b999c989b5096995094979396929594505050565b600080600080600060a086880312156127ba578283fd5b85356127c5816134ef565b945060208601356127d5816134ef565b935060408601356001600160401b03808211156127f0578485fd5b6127fc89838a0161251f565b94506060880135915080821115612811578283fd5b61281d89838a0161251f565b93506080880135915080821115612832578283fd5b5061283f888289016125e4565b9150509295509295909350565b600080600080600060a08688031215612863578283fd5b853561286e816134ef565b9450602086013561287e816134ef565b9350604086013592506060860135915060808601356001600160401b038111156128a6578182fd5b61283f888289016125e4565b600080604083850312156128c4578182fd5b82356128cf816134ef565b915060208301356126eb81613504565b600080604083850312156126d0578182fd5b60008060408385031215612903578182fd5b823561290e816134ef565b946020939093013593505050565b6000806040838503121561292e578182fd5b82356001600160401b0380821115612944578384fd5b818501915085601f830112612957578384fd5b81356020612964826132b8565b60405161297182826133db565b8381528281019150858301600585901b870184018b1015612990578889fd5b8896505b848710156129bb5780356129a7816134ef565b835260019690960195918301918301612994565b50965050860135925050808211156129d1578283fd5b506129de8582860161251f565b9150509250929050565b6000602082840312156129f9578081fd5b8135610a4281613504565b600060208284031215612a15578081fd5b8151610a4281613504565b600060208284031215612a31578081fd5b5051919050565b600060208284031215612a49578081fd5b8135610a4281613512565b600060208284031215612a65578081fd5b8151610a4281613512565b600060208284031215612a81578081fd5b81516001600160401b03811115612a96578182fd5b612aa28482850161263b565b949350505050565b600080600080600080600060a0888a031215612ac4578081fd5b8735612acf816134ef565b96506020880135612adf816134ef565b95506040880135945060608801356001600160401b0380821115612b01578283fd5b612b0d8b838c0161259e565b909650945060808a0135915080821115612b25578283fd5b50612b328a828b0161259e565b989b979a50959850939692959293505050565b600080600080600080600080600060c08a8c031215612b62578283fd5b8935612b6d816134ef565b985060208a0135612b7d816134ef565b975060408a0135965060608a01356001600160401b0380821115612b9f578485fd5b612bab8d838e0161259e565b909850965060808c0135915080821115612bc3578485fd5b612bcf8d838e0161259e565b909650945060a08c0135915080821115612be7578283fd5b50612bf48c828d0161259e565b915080935050809150509295985092959850929598565b60008060408385031215612c1d578182fd5b82356001600160401b0380821115612c33578384fd5b612c3f868387016125e4565b93506020850135915080821115612c54578283fd5b506129de858286016125e4565b600060208284031215612c72578081fd5b81516001600160401b0380821115612c88578283fd5b908301906101608286031215612c9c578283fd5b612ca461328f565b612cad83612691565b8152612cbb60208401612691565b602082015260408301516040820152612cd66060840161250f565b6060820152612ce760808401612593565b608082015260a083015182811115612cfd578485fd5b612d098782860161263b565b60a08301525060c083015160c082015260e083015160e0820152610100915081830151828201526101209150612d4082840161250f565b828201526101409150612d5482840161250f565b91810191909152949350505050565b600060208284031215612d74578081fd5b5035919050565b60008060008060808587031215612d90578182fd5b84519350602085015180600b0b8114612da7578283fd5b6040860151606090960151949790965092505050565b6000815180845260208085019450808401835b83811015612dec57815187529582019590820190600101612dd0565b509495945050505050565b81835281816020850137506000828201602090810191909152601f909101601f19169091010190565b60008151808452612e38816020860160208601613370565b601f01601f19169290920160200192915050565b8054600090600181811c9080831680612e6657607f831692505b6020808410821415612e8657634e487b7160e01b86526022600452602486fd5b83885260208801828015612ea15760018114612eb257612edd565b60ff19871682528282019750612edd565b60008981526020902060005b87811015612ed757815484820152908601908401612ebe565b83019850505b5050505050505092915050565b6001600160a01b0389811682528881166020830152871660408201526060810186905260c060808201819052600090612f269083018688612df7565b82810360a0840152611197818587612df7565b6001600160a01b0386811682528516602082015260a060408201819052600090612f6590830186612dbd565b8281036060840152612f778186612dbd565b90508281036080840152612f8b8185612e20565b98975050505050505050565b6001600160a01b03868116825285166020820152604081018490526060810183905260a060808201819052600090610d4c90830184612e20565b6001600160a01b03898116825261010060208301819052600091612ff78483018c612e20565b9150838203604085015261300b828b612e20565b91508860608501528088166080850152508560a08401528460c084015282810360e08401526111978185612e20565b6001600160a01b038416815260606020820181905260009061305e90830185612e4c565b82810360408401526130708185612e4c565b9695505050505050565b602081526000610a426020830184612dbd565b6040815260006130a06040830185612dbd565b82810360208401526126888185612dbd565b602081526000612aa2602083018486612df7565b602081526000610a426020830184612e20565b6001600160a01b03831681526060602082018190526000906130fd90830184612e20565b8281036040938401526002815261060f60f31b6020820152919091019392505050565b6001600160a01b03858116825284811660208301528316604082015260806060820181905260009061307090830184612e20565b60208082526028908201527f455243313135353a204552433131353552656365697665722072656a656374656040820152676420746f6b656e7360c01b606082015260800190565b60208082526025908201527f455243313135353a207472616e7366657220746f20746865207a65726f206164604082015264647265737360d81b606082015260800190565b6020808252601b908201527f4974656d3a20737570706f7274206f6e6c79206f6e6520686f73740000000000604082015260600190565b6020808252602a908201527f455243313135353a20696e73756666696369656e742062616c616e636520666f60408201526939103a3930b739b332b960b11b606082015260800190565b60208082526013908201527224ba32b69d102737ba103a34329037bbb732b960691b604082015260600190565b60405161016081016001600160401b03811182821017156132b2576132b2613438565b60405290565b60006001600160401b038211156132d1576132d1613438565b5060051b60200190565b60006001600160401b038211156132f4576132f4613438565b50601f01601f191660200190565b6000821982111561331557613315613422565b500190565b60008261333557634e487b7160e01b81526012600452602481fd5b500490565b600081600019048311821515161561335457613354613422565b500290565b60008282101561336b5761336b613422565b500390565b60005b8381101561338b578181015183820152602001613373565b8381111561339a576000848401525b50505050565b600181811c908216806133b457607f821691505b602082108114156133d557634e487b7160e01b600052602260045260246000fd5b50919050565b601f8201601f191681016001600160401b038111828210171561340057613400613438565b6040525050565b600060001982141561341b5761341b613422565b5060010190565b634e487b7160e01b600052601160045260246000fd5b634e487b7160e01b600052604160045260246000fd5b600060033d111561346357600481823e5160e01c5b90565b600060443d10156134745790565b6040516003193d81016004833e81513d6001600160401b0381602484011181841117156134a357505050505090565b82850191508151818111156134bb5750505050505090565b843d87010160208285010111156134d55750505050505090565b6134e4602082860101876133db565b509095945050505050565b6001600160a01b038116811461074557600080fd5b801515811461074557600080fd5b6001600160e01b03198116811461074557600080fdfea26469706673582212209b0544a421ec8a3c54c3fb103a27b2b6364ccdcfba823b3130356e9dd7153b6d64736f6c63430008040033a2646970667358221220c0fe265ffcb0f088125921b871188f2028057c30ae339a43f8d4e7b98af5f00564736f6c63430008040033",
  "linkReferences": {},
  "deployedLinkReferences": {}
}