{
  "_format": "hh-sol-artifact-1",
  "contractName": "ItemFactory",
  "sourceName": "contracts/ItemFactory.sol",
  "abi": [
    {
      "inputs": [
        {
          "internalType": "address",
          "name": "main",
          "type": "address"
        },
        {
          "internalType": "address",
          "name": "owner",
          "type": "address"
        },
        {
          "internalType": "string",
          "name": "title",
          "type": "string"
        },
        {
          "internalType": "string",
          "name": "description",
          "type": "string"
        },
        {
          "internalType": "uint256",
          "name": "price",
          "type": "uint256"
        },
        {
          "internalType": "address",
          "name": "token",
          "type": "address"
        },
        {
          "internalType": "uint256",
          "name": "amount",
          "type": "uint256"
        },
        {
          "internalType": "uint256",
          "name": "endPaymentDate",
          "type": "uint256"
        },
        {
          "internalType": "string",
          "name": "uri",
          "type": "string"
        }
      ],
      "name": "deployItem",
      "outputs": [
        {
          "internalType": "contract Item",
          "name": "",
          "type": "address"
        }
      ],
      "stateMutability": "nonpayable",
      "type": "function"
    }
  ],
  "bytecode": "0x608060405234801561001057600080fd5b506146c1806100206000396000f3fe60806040523480156200001157600080fd5b50600436106200002e5760003560e01c806334964fe81462000033575b600080fd5b6200004a6200004436600462000179565b62000066565b6040516001600160a01b03909116815260200160405180910390f35b60008989898989898989896040516200007f90620000bf565b6200009399989796959493929190620002ab565b604051809103906000f080158015620000b0573d6000803e3d6000fd5b509a9950505050505050505050565b614342806200034a83390190565b80356001600160a01b0381168114620000e557600080fd5b919050565b600082601f830112620000fb578081fd5b813567ffffffffffffffff8082111562000119576200011962000333565b604051601f8301601f19908116603f0116810190828211818310171562000144576200014462000333565b816040528381528660208588010111156200015d578485fd5b8360208701602083013792830160200193909352509392505050565b60008060008060008060008060006101208a8c03121562000198578485fd5b620001a38a620000cd565b9850620001b360208b01620000cd565b975060408a013567ffffffffffffffff80821115620001d0578687fd5b620001de8d838e01620000ea565b985060608c0135915080821115620001f4578687fd5b620002028d838e01620000ea565b975060808c013596506200021960a08d01620000cd565b955060c08c0135945060e08c013593506101008c01359150808211156200023e578283fd5b506200024d8c828d01620000ea565b9150509295985092959850929598565b60008151808452815b81811015620002845760208185018101518683018201520162000266565b81811115620002965782602083870101525b50601f01601f19169290920160200192915050565b6001600160a01b038a81168252898116602083015261012060408301819052600091620002db8483018c6200025d565b91508382036060850152620002f1828b6200025d565b915088608085015280881660a0850152508560c08401528460e08401528281036101008401526200032381856200025d565b9c9b505050505050505050505050565b634e487b7160e01b600052604160045260246000fdfe6080604052600380546001600160a01b031916731820a4b7618bde71dce8cdc73aab6c95905fad241790553480156200003757600080fd5b5060405162004342380380620043428339810160408190526200005a9162000b6b565b8381620000678162000651565b50600480546001600160a01b0319166001600160a01b038381169190911782556003546040516329965a1d60e01b8152309381018490527fb281fc8c12954d22544db45de3159a39272895b169a852b314f9cc762e44c53b6024820152604481019390935216906329965a1d90606401600060405180830381600087803b158015620000f257600080fd5b505af115801562000107573d6000803e3d6000fd5b50505050506001600160a01b038816620001685760405162461bcd60e51b815260206004820152601f60248201527f4974656d3a204f776e657220416464726573732063616e27742062652030780060448201526064015b60405180910390fd5b60008511620001ba5760405162461bcd60e51b815260206004820152601760248201527f4974656d3a205072696365206d757374206265203e203000000000000000000060448201526064016200015f565b6001600160a01b038416620002125760405162461bcd60e51b815260206004820152601f60248201527f4974656d3a20546f6b656e20416464726573732063616e27742062652030780060448201526064016200015f565b60008311620002645760405162461bcd60e51b815260206004820152601860248201527f4974656d3a20416d6f756e74206d757374206265203e2030000000000000000060448201526064016200015f565b60008211620002b65760405162461bcd60e51b815260206004820181905260248201527f4974656d3a20456e645061796d656e7444617465206d757374206265203e203060448201526064016200015f565b600580546001600160a01b03199081166001600160a01b038c8116918217909355600680549092168b84161790915560405163ce69fd6f60e01b81529186166004830152859163ce69fd6f9060240160206040518083038186803b1580156200031e57600080fd5b505afa15801562000333573d6000803e3d6000fd5b505050506040513d601f19601f8201168201806040525081019062000359919062000c4f565b620003a75760405162461bcd60e51b815260206004820152601960248201527f4974656d3a205375706572546f6b656e2072657175697265640000000000000060448201526064016200015f565b604051806101000160405280898152602001888152602001878152602001866001600160a01b0316815260200185815260200184815260200183815260200162278d0088620003f7919062000ef4565b600b0b905280518051600791620004149183916020019062000a3d565b5060208281015180516200042f926001850192019062000a3d565b506040820151600282015560608201516003820180546001600160a01b0319166001600160a01b039092169190911790556080820151600482015560a0820151600582015560c082015180516200049191600684019160209091019062000a3d565b5060e0919091015160079091018054600b9290920b6001600160601b03166001600160601b031990921691909117905560015b8481116200052157620004f030826001604051806020016040528060008152506200066a60201b60201c565b6200050b8160176200078660201b620012771790919060201c565b5080620005188162000fe1565b915050620004c4565b50600560009054906101000a90046001600160a01b03166001600160a01b031663f66705456040518163ffffffff1660e01b815260040160006040518083038186803b1580156200057157600080fd5b505afa15801562000586573d6000803e3d6000fd5b505050506040513d6000823e601f3d908101601f19168201604052620005b0919081019062000ca2565b5050601080546001600160a01b03199081166001600160a01b0393841617909155600f805490911692821692909217909155600654600954600a54600b54600c546040517f7141f591b60c586cf546b56c1243a5a2585882c5539e0196f3ae01308cf50c57966200063996309690821695600795600895929491909316929190600d9062000df5565b60405180910390a150505050505050505050620010ec565b80516200066690600290602084019062000a3d565b5050565b6001600160a01b038416620006cc5760405162461bcd60e51b815260206004820152602160248201527f455243313135353a206d696e7420746f20746865207a65726f206164647265736044820152607360f81b60648201526084016200015f565b33620006f281600087620006e0886200079d565b620006eb886200079d565b5050505050565b6000848152602081815260408083206001600160a01b0389168452909152812080548592906200072490849062000ed9565b909155505060408051858152602081018590526001600160a01b0380881692600092918516917fc3d58168c5ae7397731d063d5bbf3d657854427343f4c083240f7aacaa2d0f62910160405180910390a4620006eb81600087878787620007ff565b6000620007948383620009e5565b90505b92915050565b60408051600180825281830190925260609160009190602080830190803683370190505090508281600081518110620007e657634e487b7160e01b600052603260045260246000fd5b602090810291909101015292915050565b505050505050565b6200081e846001600160a01b031662000a3760201b620012831760201c565b15620007f75760405163f23a6e6160e01b81526001600160a01b0385169063f23a6e61906200085a908990899088908890889060040162000e7d565b602060405180830381600087803b1580156200087557600080fd5b505af1925050508015620008a8575060408051601f3d908101601f19168201909252620008a59181019062000c78565b60015b6200096957620008b76200102b565b806308c379a01415620008f85750620008cf62001044565b80620008dc5750620008fa565b8060405162461bcd60e51b81526004016200015f919062000ec4565b505b60405162461bcd60e51b815260206004820152603460248201527f455243313135353a207472616e7366657220746f206e6f6e204552433131353560448201527f526563656976657220696d706c656d656e74657200000000000000000000000060648201526084016200015f565b6001600160e01b0319811663f23a6e6160e01b14620009dc5760405162461bcd60e51b815260206004820152602860248201527f455243313135353a204552433131353552656365697665722072656a656374656044820152676420746f6b656e7360c01b60648201526084016200015f565b50505050505050565b600081815260018301602052604081205462000a2e5750815460018181018455600084815260208082209093018490558454848252828601909352604090209190915562000797565b50600062000797565b3b151590565b82805462000a4b9062000f75565b90600052602060002090601f01602090048101928262000a6f576000855562000aba565b82601f1062000a8a57805160ff191683800117855562000aba565b8280016001018555821562000aba579182015b8281111562000aba57825182559160200191906001019062000a9d565b5062000ac892915062000acc565b5090565b5b8082111562000ac8576000815560010162000acd565b805162000af081620010d3565b919050565b600082601f83011262000b06578081fd5b81516001600160401b0381111562000b225762000b2262001015565b60405162000b3b601f8301601f19166020018262000fb2565b81815284602083860101111562000b50578283fd5b62000b6382602083016020870162000f42565b949350505050565b60008060008060008060008060006101208a8c03121562000b8a578485fd5b62000b958a62000ae3565b985062000ba560208b0162000ae3565b60408b01519098506001600160401b038082111562000bc2578687fd5b62000bd08d838e0162000af5565b985060608c015191508082111562000be6578687fd5b62000bf48d838e0162000af5565b975060808c0151965062000c0b60a08d0162000ae3565b955060c08c0151945060e08c015193506101008c015191508082111562000c30578283fd5b5062000c3f8c828d0162000af5565b9150509295985092959850929598565b60006020828403121562000c61578081fd5b8151801515811462000c71578182fd5b9392505050565b60006020828403121562000c8a578081fd5b81516001600160e01b03198116811462000c71578182fd5b6000806000806080858703121562000cb8578384fd5b845162000cc581620010d3565b602086015190945062000cd881620010d3565b604086015190935062000ceb81620010d3565b60608601519092506001600160401b0381111562000d07578182fd5b62000d158782880162000af5565b91505092959194509250565b6000815180845262000d3b81602086016020860162000f42565b601f01601f19169290920160200192915050565b8054600090600181811c908083168062000d6a57607f831692505b602080841082141562000d8b57634e487b7160e01b86526022600452602486fd5b8388526020880182801562000da9576001811462000dbb5762000de8565b60ff1987168252828201975062000de8565b60008981526020902060005b8781101562000de25781548482015290860190840162000dc7565b83019850505b5050505050505092915050565b6001600160a01b038a8116825289811660208301526101206040830181905260009162000e258483018c62000d4f565b9150838203606085015262000e3b828b62000d4f565b915088608085015280881660a0850152508560c08401528460e084015282810361010084015262000e6d818562000d4f565b9c9b505050505050505050505050565b6001600160a01b03868116825285166020820152604081018490526060810183905260a06080820181905260009062000eb99083018462000d21565b979650505050505050565b60208152600062000794602083018462000d21565b6000821982111562000eef5762000eef62000fff565b500190565b600081600b0b83600b0b8062000f1857634e487b7160e01b83526012600452602483fd5b60016001605f1b031982146000198214161562000f395762000f3962000fff565b90059392505050565b60005b8381101562000f5f57818101518382015260200162000f45565b8381111562000f6f576000848401525b50505050565b600181811c9082168062000f8a57607f821691505b6020821081141562000fac57634e487b7160e01b600052602260045260246000fd5b50919050565b601f8201601f191681016001600160401b038111828210171562000fda5762000fda62001015565b6040525050565b600060001982141562000ff85762000ff862000fff565b5060010190565b634e487b7160e01b600052601160045260246000fd5b634e487b7160e01b600052604160045260246000fd5b600060033d11156200104157600481823e5160e01c5b90565b600060443d1015620010535790565b6040516003193d81016004833e81513d6001600160401b0380831160248401831017156200108357505050505090565b82850191508151818111156200109c5750505050505090565b843d8701016020828501011115620010b75750505050505090565b620010c86020828601018762000fb2565b509095945050505050565b6001600160a01b0381168114620010e957600080fd5b50565b61324680620010fc6000396000f3fe608060405234801561001057600080fd5b506004361061012a5760003560e01c80634e1273f4116100ad578063d86ed3e511610071578063d86ed3e51461028b578063e985e9c51461029e578063f242432a146102da578063f4c84d19146102ed578063fbbf93a01461030057600080fd5b80634e1273f41461021f57806353c11f991461023f5780635f9e7d7714610252578063884d1f4014610265578063a22cb4651461027857600080fd5b8063230dbd29116100f4578063230dbd29146101c057806325e16063146101d35780632eb2c2d6146101e657806330d9c915146101f95780633dd6d5331461020c57600080fd5b806223de291461012f578062fdd58e1461014457806301ffc9a71461016a5780630e89341c1461018d5780631e83409a146101ad575b600080fd5b61014261013d366004612442565b61031c565b005b610157610152366004612632565b6103d4565b6040519081526020015b60405180910390f35b61017d61017836600461275b565b610469565b6040519015158152602001610161565b6101a061019b366004612a86565b610474565b6040516101619190612de9565b6101426101bb3660046123ee565b610508565b6101a06101ce366004612868565b6106bb565b6101426101e13660046123ee565b61071d565b6101426101f43660046124ef565b6107f2565b6101a06102073660046127cd565b610889565b61015761021a3660046123ee565b610989565b61023261022d36600461265d565b6109e2565b6040516101619190612d9d565b6101a061024d366004612868565b610b43565b6101a06102603660046127cd565b610c17565b6101a06102733660046127cd565b610cb7565b6101426102863660046125fe565b610d1a565b6101a0610299366004612868565b610df1565b61017d6102ac36600461240a565b6001600160a01b03918216600090815260016020908152604080832093909416825291909152205460ff1690565b6101426102e8366004612598565b610f24565b6101426102fb36600461292e565b610fab565b61030861107b565b604051610161989796959493929190612cf4565b6004546001600160a01b031633146103855760405162461bcd60e51b815260206004820152602160248201527f53696d706c65373737526563697069656e743a20496e76616c696420746f6b656044820152603760f91b60648201526084015b60405180910390fd5b7fa0a5a35754b3519ae614f00422ac62a6bc4608ccb722963aab00cb48c588ad7288888888888888886040516103c2989796959493929190612c0d565b60405180910390a15050505050505050565b60006001600160a01b0383166104405760405162461bcd60e51b815260206004820152602b60248201527f455243313135353a2062616c616e636520717565727920666f7220746865207a60448201526a65726f206164647265737360a81b606482015260840161037c565b506000818152602081815260408083206001600160a01b03861684529091529020545b92915050565b600061046382611289565b60606002805461048390613096565b80601f01602080910402602001604051908101604052809291908181526020018280546104af90613096565b80156104fc5780601f106104d1576101008083540402835291602001916104fc565b820191906000526020600020905b8154815290600101906020018083116104df57829003601f168201915b50505050509050919050565b610511816112d9565b6105555760405162461bcd60e51b8152602060048201526015602482015274092e8cada74409cdee840e0c2d2c840cadcdeeaced605b1b604482015260640161037c565b6000610561601961133e565b116105ae5760405162461bcd60e51b815260206004820152601860248201527f4974656d3a204e6f206974656d7320617661696c61626c650000000000000000604482015260640161037c565b600f54601054600a546040805160008152602081019091526001600160a01b03938416936339255d5b93811692635a5999e360e11b926105f992909116908790309060448101612e43565b60408051601f198184030181529181526020820180516001600160e01b03166001600160e01b03199485161790525160e085901b909216825261063f9291600401612dfc565b600060405180830381600087803b15801561065957600080fd5b505af115801561066d573d6000803e3d6000fd5b505050506040513d6000823e601f3d908101601f191682016040526106959190810190612793565b506001600160a01b0381166000908152601360205260409020546106b890611348565b50565b60405162461bcd60e51b815260206004820152602e60248201527f556e737570706f727465642063616c6c6261636b202d2041667465722041677260448201526d19595b595b9d08155c19185d195960921b606482015260609060840161037c565b6006546001600160a01b0316336001600160a01b0316146107765760405162461bcd60e51b815260206004820152601360248201527224ba32b69d102737ba103a34329037bbb732b960691b604482015260640161037c565b6040516001600160a01b038216904780156108fc02916000818181858888f193505050501580156107ab573d6000803e3d6000fd5b50806001600160a01b03167fa8841823f7591414a80deddb48af504373043ab5959ceddf527c2215d62cb29b476040516107e791815260200190565b60405180910390a250565b6001600160a01b03851633148061080e575061080e85336102ac565b6108755760405162461bcd60e51b815260206004820152603260248201527f455243313135353a207472616e736665722063616c6c6572206973206e6f74206044820152711bdddb995c881b9bdc88185c1c1c9bdd995960721b606482015260840161037c565b61088285858585856114e9565b5050505050565b600f546060906001600160a01b031633146108b65760405162461bcd60e51b815260040161037c90612f04565b87876108d082600a546001600160a01b0391821691161490565b61091c5760405162461bcd60e51b815260206004820152601860248201527f4974656d3a206e6f7420616363657074656420746f6b656e0000000000000000604482015260640161037c565b610925816116e2565b6109715760405162461bcd60e51b815260206004820152601a60248201527f4974656d3a206f6e6c7920434641763120737570706f72746564000000000000604482015260640161037c565b61097b858561177d565b9a9950505050505050505050565b6001600160a01b038116600090815260136020908152604080832054808452601690925282208054600190910154600160a01b909104600b90810b900b906109d1904261304f565b6109db9190613030565b9392505050565b60608151835114610a475760405162461bcd60e51b815260206004820152602960248201527f455243313135353a206163636f756e747320616e6420696473206c656e677468604482015268040dad2e6dac2e8c6d60bb1b606482015260840161037c565b600083516001600160401b03811115610a7057634e487b7160e01b600052604160045260246000fd5b604051908082528060200260200182016040528015610a99578160200160208202803683370190505b50905060005b8451811015610b3b57610b00858281518110610acb57634e487b7160e01b600052603260045260246000fd5b6020026020010151858381518110610af357634e487b7160e01b600052603260045260246000fd5b60200260200101516103d4565b828281518110610b2057634e487b7160e01b600052603260045260246000fd5b6020908102919091010152610b34816130fd565b9050610a9f565b509392505050565b600f546060906001600160a01b03163314610b705760405162461bcd60e51b815260040161037c90612f04565b6000610b7e85870187612729565b90508015610bc65783838080601f016020809104026020016040519081016040528093929190818152602001838380828437600092019190915250929450610c0a9350505050565b610bcf89611348565b83838080601f016020809104026020016040519081016040528093929190818152602001838380828437600092019190915250929450505050505b9998505050505050505050565b600f546060906001600160a01b03163314610c445760405162461bcd60e51b815260040161037c90612f04565b600a546001600160a01b038981169116141580610c675750610c65876116e2565b155b15610c8e576040805160016020820152016040516020818303038152906040529050610cac565b60408051600060208201520160405160208183030381529060405290505b979650505050505050565b60405162461bcd60e51b815260206004820152602f60248201527f556e737570706f727465642063616c6c6261636b202d204265666f726520416760448201526e1c99595b595b9d081d5c19185d1959608a1b606482015260609060840161037c565b336001600160a01b0383161415610d855760405162461bcd60e51b815260206004820152602960248201527f455243313135353a2073657474696e6720617070726f76616c20737461747573604482015268103337b91039b2b63360b91b606482015260840161037c565b3360008181526001602090815260408083206001600160a01b03871680855290835292819020805460ff191686151590811790915590519081529192917f17307eab39ab6107e8899845ad3d59bd9653f200f220920489ca2b5937696c31910160405180910390a35050565b600f546060906001600160a01b03163314610e1e5760405162461bcd60e51b815260040161037c90612f04565b600a54604051631557a4cd60e31b81526001600160a01b039182166004820152602481018a90526000918b169063aabd26689060440160806040518083038186803b158015610e6c57600080fd5b505afa158015610e80573d6000803e3d6000fd5b505050506040513d601f19601f82011682018060405250810190610ea49190612a9e565b5050600e54909250600b90810b810b9083900b12159050610f075760405162461bcd60e51b815260206004820152601760248201527f4974656d3a20466c6f77207261746520746f6f206c6f77000000000000000000604482015260640161037c565b610f1584848c8c8a8a6118ac565b9b9a5050505050505050505050565b6001600160a01b038516331480610f405750610f4085336102ac565b610f9e5760405162461bcd60e51b815260206004820152602960248201527f455243313135353a2063616c6c6572206973206e6f74206f776e6572206e6f7260448201526808185c1c1c9bdd995960ba1b606482015260840161037c565b6108828585858585611bf6565b6006546001600160a01b0316336001600160a01b0316146110045760405162461bcd60e51b815260206004820152601360248201527224ba32b69d102737ba103a34329037bbb732b960691b604482015260640161037c565b81516110179060079060208501906121b2565b50805161102b9060089060208401906121b2565b506006546040517ff1e140dd045e4105d6296c80c9d27435efdf24668b3691ea586a45d33b31184f9161106f916001600160a01b0390911690600790600890612d5d565b60405180910390a15050565b600654600954600a54600b54600c5460078054600096606096879689968796879687968b966001600160a01b03908116969295600895939491169291600d9087906110c590613096565b80601f01602080910402602001604051908101604052809291908181526020018280546110f190613096565b801561113e5780601f106111135761010080835404028352916020019161113e565b820191906000526020600020905b81548152906001019060200180831161112157829003601f168201915b5050505050965085805461115190613096565b80601f016020809104026020016040519081016040528092919081815260200182805461117d90613096565b80156111ca5780601f1061119f576101008083540402835291602001916111ca565b820191906000526020600020905b8154815290600101906020018083116111ad57829003601f168201915b505050505095508080546111dd90613096565b80601f016020809104026020016040519081016040528092919081815260200182805461120990613096565b80156112565780601f1061122b57610100808354040283529160200191611256565b820191906000526020600020905b81548152906001019060200180831161123957829003601f168201915b50505050509050975097509750975097509750975097509091929394959697565b60006109db8383611d1c565b3b151590565b60006001600160e01b03198216636cdb3d1360e11b14806112ba57506001600160e01b031982166303a24d0760e21b145b8061046357506301ffc9a760e01b6001600160e01b0319831614610463565b60006112e6601183611d6b565b61132a5760405162461bcd60e51b815260206004820152601560248201527424ba32b69d102737ba10313abcb4b733903ab9b2b960591b604482015260640161037c565b60095461133683610989565b101592915050565b6000610463825490565b6000818152601660205260409020546001600160a01b0316611369816112d9565b61139657600061137a601982611d8d565b9050611387601982611d99565b50611393601782611277565b50505b61139f816112d9565b6113e35760405162461bcd60e51b8152602060048201526015602482015274125d195b4e88139bdd08195b9bdd59da081c185a59605a1b604482015260640161037c565b6113ee601182611da5565b506001600160a01b038116600090815260136020526040812055611413601483611d99565b506040805160608101825260008082526020808301828152838501838152878452601690925293822092519351600b0b6001600160601b0316600160a01b026001600160a01b03949094169390931782559151600190910155611477601982611d8d565b9050611484601982611d99565b506114a2308383600160405180602001604052806000815250611bf6565b604080516001600160a01b0384168152602081018390527f8ed9b9c949dff330af22f05a44efa34da599a3e672ac89079f13da0ce789913b910160405180910390a1505050565b815183511461154b5760405162461bcd60e51b815260206004820152602860248201527f455243313135353a2069647320616e6420616d6f756e7473206c656e677468206044820152670dad2e6dac2e8c6d60c31b606482015260840161037c565b6001600160a01b0384166115715760405162461bcd60e51b815260040161037c90612ebf565b3360005b84518110156116745760008582815181106115a057634e487b7160e01b600052603260045260246000fd5b6020026020010151905060008583815181106115cc57634e487b7160e01b600052603260045260246000fd5b602090810291909101810151600084815280835260408082206001600160a01b038e16835290935291909120549091508181101561161c5760405162461bcd60e51b815260040161037c90612f3b565b6000838152602081815260408083206001600160a01b038e8116855292528083208585039055908b16825281208054849290611659908490612ff8565b925050819055505050508061166d906130fd565b9050611575565b50846001600160a01b0316866001600160a01b0316826001600160a01b03167f4a39dc06d4c0dbc64b70af90fd698a233a518aa5d07e595d983b8c0526c8f7fb87876040516116c4929190612db0565b60405180910390a46116da818787878787611dba565b505050505050565b60007fa9214cc96615e0085d3bb077758db69497dc2dce3b2b1e97bc93c3d18d83efd3826001600160a01b0316637730599e6040518163ffffffff1660e01b815260040160206040518083038186803b15801561173e57600080fd5b505afa158015611752573d6000803e3d6000fd5b505050506040513d601f19601f820116820180604052508101906117769190612743565b1492915050565b600f54604051631fb6491d60e11b81526060916000916001600160a01b0390911690633f6c923a906117b59087908790600401612dd5565b60006040518083038186803b1580156117cd57600080fd5b505afa1580156117e1573d6000803e3d6000fd5b505050506040513d6000823e601f3d908101601f191682016040526118099190810190612984565b905061182381606001516011611d6b90919063ffffffff16565b1561187a5760405162461bcd60e51b815260206004820152602160248201527f4974656d3a205573657220616c726561647920627579696e6720616e204974656044820152606d60f81b606482015260840161037c565b6060810151604080516001600160a01b0390921660208301520160405160208183030381529060405291505092915050565b606060006118ba601761133e565b116119075760405162461bcd60e51b815260206004820152601860248201527f4974656d3a204e6f204974656d7320617661696c61626c650000000000000000604482015260640161037c565b600f54604051631fb6491d60e11b81526000916001600160a01b031690633f6c923a9061193a908b908b90600401612dd5565b60006040518083038186803b15801561195257600080fd5b505afa158015611966573d6000803e3d6000fd5b505050506040513d6000823e601f3d908101601f1916820160405261198e9190810190612984565b90506119a881606001516011611f2590919063ffffffff16565b5060608101516001600160a01b031660009081526013602052604090208590556119d3601486611277565b5060006119e1601782611d8d565b90506119ee601782611d99565b506119fa601982611277565b50600a54604051631557a4cd60e31b81526001600160a01b039182166004820152602481018890526000918291908a169063aabd26689060440160806040518083038186803b158015611a4c57600080fd5b505afa158015611a60573d6000803e3d6000fd5b505050506040513d601f19601f82011682018060405250810190611a849190612a9e565b505091509150604051806060016040528085606001516001600160a01b0316815260200182600b0b815260200183815250601660008a815260200190815260200160002060008201518160000160006101000a8154816001600160a01b0302191690836001600160a01b0316021790555060208201518160000160146101000a8154816001600160601b030219169083600b0b6001600160601b0316021790555060408201518160010155905050600081600b0b600760020154611b489190613010565b611b529084612ff8565b606080870151604080516001600160a01b039092168252602082018d9052600b86900b908201529081018290529091507fbe63124fcd6e35a686f207415131db9e0fd573b9fe87911576f7de249417efb39060800160405180910390a18b8b8080601f016020809104026020016040519081016040528093929190818152602001838380828437600092019190915250929f9e505050505050505050505050505050565b6001600160a01b038416611c1c5760405162461bcd60e51b815260040161037c90612ebf565b33611c35818787611c2c88611f3a565b61088288611f3a565b6000848152602081815260408083206001600160a01b038a16845290915290205483811015611c765760405162461bcd60e51b815260040161037c90612f3b565b6000858152602081815260408083206001600160a01b038b8116855292528083208785039055908816825281208054869290611cb3908490612ff8565b909155505060408051868152602081018690526001600160a01b03808916928a821692918616917fc3d58168c5ae7397731d063d5bbf3d657854427343f4c083240f7aacaa2d0f62910160405180910390a4611d13828888888888611f93565b50505050505050565b6000818152600183016020526040812054611d6357508154600181810184556000848152602080822090930184905584548482528286019093526040902091909155610463565b506000610463565b6001600160a01b038116600090815260018301602052604081205415156109db565b60006109db838361205d565b60006109db8383612095565b60006109db836001600160a01b038416612095565b6001600160a01b0384163b156116da5760405163bc197c8160e01b81526001600160a01b0385169063bc197c8190611dfe9089908990889088908890600401612c5c565b602060405180830381600087803b158015611e1857600080fd5b505af1925050508015611e48575060408051601f3d908101601f19168201909252611e4591810190612777565b60015b611ef557611e54613144565b806308c379a01415611e8e5750611e6961315c565b80611e745750611e90565b8060405162461bcd60e51b815260040161037c9190612de9565b505b60405162461bcd60e51b815260206004820152603460248201527f455243313135353a207472616e7366657220746f206e6f6e20455243313135356044820152732932b1b2b4bb32b91034b6b83632b6b2b73a32b960611b606482015260840161037c565b6001600160e01b0319811663bc197c8160e01b14611d135760405162461bcd60e51b815260040161037c90612e77565b60006109db836001600160a01b038416611d1c565b60408051600180825281830190925260609160009190602080830190803683370190505090508281600081518110611f8257634e487b7160e01b600052603260045260246000fd5b602090810291909101015292915050565b6001600160a01b0384163b156116da5760405163f23a6e6160e01b81526001600160a01b0385169063f23a6e6190611fd79089908990889088908890600401612cba565b602060405180830381600087803b158015611ff157600080fd5b505af1925050508015612021575060408051601f3d908101601f1916820190925261201e91810190612777565b60015b61202d57611e54613144565b6001600160e01b0319811663f23a6e6160e01b14611d135760405162461bcd60e51b815260040161037c90612e77565b600082600001828154811061208257634e487b7160e01b600052603260045260246000fd5b9060005260206000200154905092915050565b600081815260018301602052604081205480156121a85760006120b960018361304f565b85549091506000906120cd9060019061304f565b905081811461214e5760008660000182815481106120fb57634e487b7160e01b600052603260045260246000fd5b906000526020600020015490508087600001848154811061212c57634e487b7160e01b600052603260045260246000fd5b6000918252602080832090910192909255918252600188019052604090208390555b855486908061216d57634e487b7160e01b600052603160045260246000fd5b600190038181906000526020600020016000905590558560010160008681526020019081526020016000206000905560019350505050610463565b6000915050610463565b8280546121be90613096565b90600052602060002090601f0160209004810192826121e05760008555612226565b82601f106121f957805160ff1916838001178555612226565b82800160010185558215612226579182015b8281111561222657825182559160200191906001019061220b565b50612232929150612236565b5090565b5b808211156122325760008155600101612237565b8051612256816131e5565b919050565b600082601f83011261226b578081fd5b8135602061227882612fae565b60405161228582826130d1565b8381528281019150858301600585901b870184018810156122a4578586fd5b855b858110156122c2578135845292840192908401906001016122a6565b5090979650505050505050565b8035801515811461225657600080fd5b8051612256816131fa565b60008083601f8401126122fb578182fd5b5081356001600160401b03811115612311578182fd5b60208301915083602082850101111561232957600080fd5b9250929050565b600082601f830112612340578081fd5b813561234b81612fd1565b60405161235882826130d1565b82815285602084870101111561236c578384fd5b82602086016020830137918201602001929092529392505050565b600082601f830112612397578081fd5b81516123a281612fd1565b6040516123af82826130d1565b8281528560208487010111156123c3578384fd5b6123d4836020830160208801613066565b95945050505050565b805160ff8116811461225657600080fd5b6000602082840312156123ff578081fd5b81356109db816131e5565b6000806040838503121561241c578081fd5b8235612427816131e5565b91506020830135612437816131e5565b809150509250929050565b60008060008060008060008060c0898b03121561245d578384fd5b8835612468816131e5565b97506020890135612478816131e5565b96506040890135612488816131e5565b95506060890135945060808901356001600160401b03808211156124aa578586fd5b6124b68c838d016122ea565b909650945060a08b01359150808211156124ce578384fd5b506124db8b828c016122ea565b999c989b5096995094979396929594505050565b600080600080600060a08688031215612506578283fd5b8535612511816131e5565b94506020860135612521816131e5565b935060408601356001600160401b038082111561253c578485fd5b61254889838a0161225b565b9450606088013591508082111561255d578283fd5b61256989838a0161225b565b9350608088013591508082111561257e578283fd5b5061258b88828901612330565b9150509295509295909350565b600080600080600060a086880312156125af578283fd5b85356125ba816131e5565b945060208601356125ca816131e5565b9350604086013592506060860135915060808601356001600160401b038111156125f2578182fd5b61258b88828901612330565b60008060408385031215612610578182fd5b823561261b816131e5565b9150612629602084016122cf565b90509250929050565b60008060408385031215612644578182fd5b823561264f816131e5565b946020939093013593505050565b6000806040838503121561266f578182fd5b82356001600160401b0380821115612685578384fd5b818501915085601f830112612698578384fd5b813560206126a582612fae565b6040516126b282826130d1565b8381528281019150858301600585901b870184018b10156126d1578889fd5b8896505b848710156126fc5780356126e8816131e5565b8352600196909601959183019183016126d5565b5096505086013592505080821115612712578283fd5b5061271f8582860161225b565b9150509250929050565b60006020828403121561273a578081fd5b6109db826122cf565b600060208284031215612754578081fd5b5051919050565b60006020828403121561276c578081fd5b81356109db816131fa565b600060208284031215612788578081fd5b81516109db816131fa565b6000602082840312156127a4578081fd5b81516001600160401b038111156127b9578182fd5b6127c584828501612387565b949350505050565b600080600080600080600060a0888a0312156127e7578081fd5b87356127f2816131e5565b96506020880135612802816131e5565b95506040880135945060608801356001600160401b0380821115612824578283fd5b6128308b838c016122ea565b909650945060808a0135915080821115612848578283fd5b506128558a828b016122ea565b989b979a50959850939692959293505050565b600080600080600080600080600060c08a8c031215612885578283fd5b8935612890816131e5565b985060208a01356128a0816131e5565b975060408a0135965060608a01356001600160401b03808211156128c2578485fd5b6128ce8d838e016122ea565b909850965060808c01359150808211156128e6578485fd5b6128f28d838e016122ea565b909650945060a08c013591508082111561290a578283fd5b506129178c828d016122ea565b915080935050809150509295985092959850929598565b60008060408385031215612940578182fd5b82356001600160401b0380821115612956578384fd5b61296286838701612330565b93506020850135915080821115612977578283fd5b5061271f85828601612330565b600060208284031215612995578081fd5b81516001600160401b03808211156129ab578283fd5b9083019061016082860312156129bf578283fd5b6129c7612f85565b6129d0836123dd565b81526129de602084016123dd565b6020820152604083015160408201526129f96060840161224b565b6060820152612a0a608084016122df565b608082015260a083015182811115612a20578485fd5b612a2c87828601612387565b60a08301525060c083015160c082015260e083015160e0820152610100915081830151828201526101209150612a6382840161224b565b828201526101409150612a7782840161224b565b91810191909152949350505050565b600060208284031215612a97578081fd5b5035919050565b60008060008060808587031215612ab3578182fd5b84519350602085015180600b0b8114612aca578283fd5b6040860151606090960151949790965092505050565b6000815180845260208085019450808401835b83811015612b0f57815187529582019590820190600101612af3565b509495945050505050565b81835281816020850137506000828201602090810191909152601f909101601f19169091010190565b60008151808452612b5b816020860160208601613066565b601f01601f19169290920160200192915050565b8054600090600181811c9080831680612b8957607f831692505b6020808410821415612ba957634e487b7160e01b86526022600452602486fd5b83885260208801828015612bc45760018114612bd557612c00565b60ff19871682528282019750612c00565b60008981526020902060005b87811015612bfa57815484820152908601908401612be1565b83019850505b5050505050505092915050565b6001600160a01b0389811682528881166020830152871660408201526060810186905260c060808201819052600090612c499083018688612b1a565b82810360a0840152610f15818587612b1a565b6001600160a01b0386811682528516602082015260a060408201819052600090612c8890830186612ae0565b8281036060840152612c9a8186612ae0565b90508281036080840152612cae8185612b43565b98975050505050505050565b6001600160a01b03868116825285166020820152604081018490526060810183905260a060808201819052600090610cac90830184612b43565b6001600160a01b03898116825261010060208301819052600091612d1a8483018c612b43565b91508382036040850152612d2e828b612b43565b91508860608501528088166080850152508560a08401528460c084015282810360e0840152610f158185612b43565b6001600160a01b0384168152606060208201819052600090612d8190830185612b6f565b8281036040840152612d938185612b6f565b9695505050505050565b6020815260006109db6020830184612ae0565b604081526000612dc36040830185612ae0565b82810360208401526123d48185612ae0565b6020815260006127c5602083018486612b1a565b6020815260006109db6020830184612b43565b6001600160a01b0383168152606060208201819052600090612e2090830184612b43565b8281036040938401526002815261060f60f31b6020820152919091019392505050565b6001600160a01b038581168252848116602083015283166040820152608060608201819052600090612d9390830184612b43565b60208082526028908201527f455243313135353a204552433131353552656365697665722072656a656374656040820152676420746f6b656e7360c01b606082015260800190565b60208082526025908201527f455243313135353a207472616e7366657220746f20746865207a65726f206164604082015264647265737360d81b606082015260800190565b6020808252601b908201527f4974656d3a20737570706f7274206f6e6c79206f6e6520686f73740000000000604082015260600190565b6020808252602a908201527f455243313135353a20696e73756666696369656e742062616c616e636520666f60408201526939103a3930b739b332b960b11b606082015260800190565b60405161016081016001600160401b0381118282101715612fa857612fa861312e565b60405290565b60006001600160401b03821115612fc757612fc761312e565b5060051b60200190565b60006001600160401b03821115612fea57612fea61312e565b50601f01601f191660200190565b6000821982111561300b5761300b613118565b500190565b60008261302b57634e487b7160e01b81526012600452602481fd5b500490565b600081600019048311821515161561304a5761304a613118565b500290565b60008282101561306157613061613118565b500390565b60005b83811015613081578181015183820152602001613069565b83811115613090576000848401525b50505050565b600181811c908216806130aa57607f821691505b602082108114156130cb57634e487b7160e01b600052602260045260246000fd5b50919050565b601f8201601f191681016001600160401b03811182821017156130f6576130f661312e565b6040525050565b600060001982141561311157613111613118565b5060010190565b634e487b7160e01b600052601160045260246000fd5b634e487b7160e01b600052604160045260246000fd5b600060033d111561315957600481823e5160e01c5b90565b600060443d101561316a5790565b6040516003193d81016004833e81513d6001600160401b03816024840111818411171561319957505050505090565b82850191508151818111156131b15750505050505090565b843d87010160208285010111156131cb5750505050505090565b6131da602082860101876130d1565b509095945050505050565b6001600160a01b03811681146106b857600080fd5b6001600160e01b0319811681146106b857600080fdfea2646970667358221220355f7435a35744c4c2399df62141ed7c4b8cc85f82d2a3f7c1087bf263208a4f64736f6c63430008040033a2646970667358221220b6be292780027c4f340b12de62277ef0c0d97e6432df565544526c7b9ea7623b64736f6c63430008040033",
  "linkReferences": {},
  "deployedLinkReferences": {}
}