{
  "_format": "hh-sol-artifact-1",
  "contractName": "Item",
  "sourceName": "contracts/Item.sol",
  "abi": [
    {
      "inputs": [
        {
          "internalType": "address",
          "name": "owner",
          "type": "address"
        },
        {
          "internalType": "string",
          "name": "title",
          "type": "string"
        },
        {
          "internalType": "string",
          "name": "description",
          "type": "string"
        },
        {
          "internalType": "uint256",
          "name": "price",
          "type": "uint256"
        },
        {
          "internalType": "address",
          "name": "token",
          "type": "address"
        },
        {
          "internalType": "uint256",
          "name": "amount",
          "type": "uint256"
        },
        {
          "internalType": "uint256",
          "name": "endPaymentDate",
          "type": "uint256"
        },
        {
          "internalType": "string",
          "name": "uri",
          "type": "string"
        }
      ],
      "stateMutability": "nonpayable",
      "type": "constructor"
    },
    {
      "anonymous": false,
      "inputs": [
        {
          "indexed": true,
          "internalType": "address",
          "name": "account",
          "type": "address"
        },
        {
          "indexed": true,
          "internalType": "address",
          "name": "operator",
          "type": "address"
        },
        {
          "indexed": false,
          "internalType": "bool",
          "name": "approved",
          "type": "bool"
        }
      ],
      "name": "ApprovalForAll",
      "type": "event"
    },
    {
      "anonymous": false,
      "inputs": [
        {
          "indexed": false,
          "internalType": "address",
          "name": "item",
          "type": "address"
        },
        {
          "indexed": false,
          "internalType": "address",
          "name": "owner",
          "type": "address"
        },
        {
          "indexed": false,
          "internalType": "string",
          "name": "title",
          "type": "string"
        },
        {
          "indexed": false,
          "internalType": "string",
          "name": "description",
          "type": "string"
        },
        {
          "indexed": false,
          "internalType": "uint256",
          "name": "price",
          "type": "uint256"
        },
        {
          "indexed": false,
          "internalType": "address",
          "name": "token",
          "type": "address"
        },
        {
          "indexed": false,
          "internalType": "uint256",
          "name": "amount",
          "type": "uint256"
        },
        {
          "indexed": false,
          "internalType": "uint256",
          "name": "endPaymentDate",
          "type": "uint256"
        },
        {
          "indexed": false,
          "internalType": "string",
          "name": "uri",
          "type": "string"
        }
      ],
      "name": "ItemCreated",
      "type": "event"
    },
    {
      "anonymous": false,
      "inputs": [
        {
          "indexed": false,
          "internalType": "address",
          "name": "item",
          "type": "address"
        },
        {
          "indexed": false,
          "internalType": "address",
          "name": "owner",
          "type": "address"
        },
        {
          "indexed": false,
          "internalType": "string",
          "name": "title",
          "type": "string"
        },
        {
          "indexed": false,
          "internalType": "string",
          "name": "description",
          "type": "string"
        },
        {
          "indexed": false,
          "internalType": "uint256",
          "name": "price",
          "type": "uint256"
        },
        {
          "indexed": false,
          "internalType": "address",
          "name": "token",
          "type": "address"
        },
        {
          "indexed": false,
          "internalType": "uint256",
          "name": "endPaymentDate",
          "type": "uint256"
        },
        {
          "indexed": false,
          "internalType": "string",
          "name": "uri",
          "type": "string"
        }
      ],
      "name": "ItemUpdated",
      "type": "event"
    },
    {
      "anonymous": false,
      "inputs": [
        {
          "indexed": false,
          "internalType": "address",
          "name": "account",
          "type": "address"
        }
      ],
      "name": "Paused",
      "type": "event"
    },
    {
      "anonymous": false,
      "inputs": [
        {
          "indexed": true,
          "internalType": "bytes32",
          "name": "role",
          "type": "bytes32"
        },
        {
          "indexed": true,
          "internalType": "bytes32",
          "name": "previousAdminRole",
          "type": "bytes32"
        },
        {
          "indexed": true,
          "internalType": "bytes32",
          "name": "newAdminRole",
          "type": "bytes32"
        }
      ],
      "name": "RoleAdminChanged",
      "type": "event"
    },
    {
      "anonymous": false,
      "inputs": [
        {
          "indexed": true,
          "internalType": "bytes32",
          "name": "role",
          "type": "bytes32"
        },
        {
          "indexed": true,
          "internalType": "address",
          "name": "account",
          "type": "address"
        },
        {
          "indexed": true,
          "internalType": "address",
          "name": "sender",
          "type": "address"
        }
      ],
      "name": "RoleGranted",
      "type": "event"
    },
    {
      "anonymous": false,
      "inputs": [
        {
          "indexed": true,
          "internalType": "bytes32",
          "name": "role",
          "type": "bytes32"
        },
        {
          "indexed": true,
          "internalType": "address",
          "name": "account",
          "type": "address"
        },
        {
          "indexed": true,
          "internalType": "address",
          "name": "sender",
          "type": "address"
        }
      ],
      "name": "RoleRevoked",
      "type": "event"
    },
    {
      "anonymous": false,
      "inputs": [
        {
          "indexed": true,
          "internalType": "address",
          "name": "operator",
          "type": "address"
        },
        {
          "indexed": true,
          "internalType": "address",
          "name": "from",
          "type": "address"
        },
        {
          "indexed": true,
          "internalType": "address",
          "name": "to",
          "type": "address"
        },
        {
          "indexed": false,
          "internalType": "uint256[]",
          "name": "ids",
          "type": "uint256[]"
        },
        {
          "indexed": false,
          "internalType": "uint256[]",
          "name": "values",
          "type": "uint256[]"
        }
      ],
      "name": "TransferBatch",
      "type": "event"
    },
    {
      "anonymous": false,
      "inputs": [
        {
          "indexed": true,
          "internalType": "address",
          "name": "operator",
          "type": "address"
        },
        {
          "indexed": true,
          "internalType": "address",
          "name": "from",
          "type": "address"
        },
        {
          "indexed": true,
          "internalType": "address",
          "name": "to",
          "type": "address"
        },
        {
          "indexed": false,
          "internalType": "uint256",
          "name": "id",
          "type": "uint256"
        },
        {
          "indexed": false,
          "internalType": "uint256",
          "name": "value",
          "type": "uint256"
        }
      ],
      "name": "TransferSingle",
      "type": "event"
    },
    {
      "anonymous": false,
      "inputs": [
        {
          "indexed": false,
          "internalType": "string",
          "name": "value",
          "type": "string"
        },
        {
          "indexed": true,
          "internalType": "uint256",
          "name": "id",
          "type": "uint256"
        }
      ],
      "name": "URI",
      "type": "event"
    },
    {
      "anonymous": false,
      "inputs": [
        {
          "indexed": false,
          "internalType": "address",
          "name": "account",
          "type": "address"
        }
      ],
      "name": "Unpaused",
      "type": "event"
    },
    {
      "inputs": [],
      "name": "DEFAULT_ADMIN_ROLE",
      "outputs": [
        {
          "internalType": "bytes32",
          "name": "",
          "type": "bytes32"
        }
      ],
      "stateMutability": "view",
      "type": "function"
    },
    {
      "inputs": [],
      "name": "MINTER_ROLE",
      "outputs": [
        {
          "internalType": "bytes32",
          "name": "",
          "type": "bytes32"
        }
      ],
      "stateMutability": "view",
      "type": "function"
    },
    {
      "inputs": [],
      "name": "PAUSER_ROLE",
      "outputs": [
        {
          "internalType": "bytes32",
          "name": "",
          "type": "bytes32"
        }
      ],
      "stateMutability": "view",
      "type": "function"
    },
    {
      "inputs": [
        {
          "internalType": "address",
          "name": "account",
          "type": "address"
        },
        {
          "internalType": "uint256",
          "name": "id",
          "type": "uint256"
        }
      ],
      "name": "balanceOf",
      "outputs": [
        {
          "internalType": "uint256",
          "name": "",
          "type": "uint256"
        }
      ],
      "stateMutability": "view",
      "type": "function"
    },
    {
      "inputs": [
        {
          "internalType": "address[]",
          "name": "accounts",
          "type": "address[]"
        },
        {
          "internalType": "uint256[]",
          "name": "ids",
          "type": "uint256[]"
        }
      ],
      "name": "balanceOfBatch",
      "outputs": [
        {
          "internalType": "uint256[]",
          "name": "",
          "type": "uint256[]"
        }
      ],
      "stateMutability": "view",
      "type": "function"
    },
    {
      "inputs": [
        {
          "internalType": "address",
          "name": "account",
          "type": "address"
        },
        {
          "internalType": "uint256",
          "name": "id",
          "type": "uint256"
        },
        {
          "internalType": "uint256",
          "name": "value",
          "type": "uint256"
        }
      ],
      "name": "burn",
      "outputs": [],
      "stateMutability": "nonpayable",
      "type": "function"
    },
    {
      "inputs": [
        {
          "internalType": "address",
          "name": "account",
          "type": "address"
        },
        {
          "internalType": "uint256[]",
          "name": "ids",
          "type": "uint256[]"
        },
        {
          "internalType": "uint256[]",
          "name": "values",
          "type": "uint256[]"
        }
      ],
      "name": "burnBatch",
      "outputs": [],
      "stateMutability": "nonpayable",
      "type": "function"
    },
    {
      "inputs": [],
      "name": "getDetails",
      "outputs": [
        {
          "internalType": "address",
          "name": "",
          "type": "address"
        },
        {
          "internalType": "string",
          "name": "",
          "type": "string"
        },
        {
          "internalType": "string",
          "name": "",
          "type": "string"
        },
        {
          "internalType": "uint256",
          "name": "",
          "type": "uint256"
        },
        {
          "internalType": "address",
          "name": "",
          "type": "address"
        },
        {
          "internalType": "uint256",
          "name": "",
          "type": "uint256"
        },
        {
          "internalType": "uint256",
          "name": "",
          "type": "uint256"
        },
        {
          "internalType": "string",
          "name": "",
          "type": "string"
        }
      ],
      "stateMutability": "view",
      "type": "function"
    },
    {
      "inputs": [
        {
          "internalType": "bytes32",
          "name": "role",
          "type": "bytes32"
        }
      ],
      "name": "getRoleAdmin",
      "outputs": [
        {
          "internalType": "bytes32",
          "name": "",
          "type": "bytes32"
        }
      ],
      "stateMutability": "view",
      "type": "function"
    },
    {
      "inputs": [
        {
          "internalType": "bytes32",
          "name": "role",
          "type": "bytes32"
        },
        {
          "internalType": "uint256",
          "name": "index",
          "type": "uint256"
        }
      ],
      "name": "getRoleMember",
      "outputs": [
        {
          "internalType": "address",
          "name": "",
          "type": "address"
        }
      ],
      "stateMutability": "view",
      "type": "function"
    },
    {
      "inputs": [
        {
          "internalType": "bytes32",
          "name": "role",
          "type": "bytes32"
        }
      ],
      "name": "getRoleMemberCount",
      "outputs": [
        {
          "internalType": "uint256",
          "name": "",
          "type": "uint256"
        }
      ],
      "stateMutability": "view",
      "type": "function"
    },
    {
      "inputs": [
        {
          "internalType": "bytes32",
          "name": "role",
          "type": "bytes32"
        },
        {
          "internalType": "address",
          "name": "account",
          "type": "address"
        }
      ],
      "name": "grantRole",
      "outputs": [],
      "stateMutability": "nonpayable",
      "type": "function"
    },
    {
      "inputs": [
        {
          "internalType": "bytes32",
          "name": "role",
          "type": "bytes32"
        },
        {
          "internalType": "address",
          "name": "account",
          "type": "address"
        }
      ],
      "name": "hasRole",
      "outputs": [
        {
          "internalType": "bool",
          "name": "",
          "type": "bool"
        }
      ],
      "stateMutability": "view",
      "type": "function"
    },
    {
      "inputs": [
        {
          "internalType": "address",
          "name": "account",
          "type": "address"
        },
        {
          "internalType": "address",
          "name": "operator",
          "type": "address"
        }
      ],
      "name": "isApprovedForAll",
      "outputs": [
        {
          "internalType": "bool",
          "name": "",
          "type": "bool"
        }
      ],
      "stateMutability": "view",
      "type": "function"
    },
    {
      "inputs": [
        {
          "internalType": "address",
          "name": "to",
          "type": "address"
        },
        {
          "internalType": "uint256",
          "name": "id",
          "type": "uint256"
        },
        {
          "internalType": "uint256",
          "name": "amount",
          "type": "uint256"
        },
        {
          "internalType": "bytes",
          "name": "data",
          "type": "bytes"
        }
      ],
      "name": "mint",
      "outputs": [],
      "stateMutability": "nonpayable",
      "type": "function"
    },
    {
      "inputs": [
        {
          "internalType": "address",
          "name": "to",
          "type": "address"
        },
        {
          "internalType": "uint256[]",
          "name": "ids",
          "type": "uint256[]"
        },
        {
          "internalType": "uint256[]",
          "name": "amounts",
          "type": "uint256[]"
        },
        {
          "internalType": "bytes",
          "name": "data",
          "type": "bytes"
        }
      ],
      "name": "mintBatch",
      "outputs": [],
      "stateMutability": "nonpayable",
      "type": "function"
    },
    {
      "inputs": [
        {
          "internalType": "address",
          "name": "",
          "type": "address"
        },
        {
          "internalType": "address",
          "name": "",
          "type": "address"
        },
        {
          "internalType": "uint256[]",
          "name": "",
          "type": "uint256[]"
        },
        {
          "internalType": "uint256[]",
          "name": "",
          "type": "uint256[]"
        },
        {
          "internalType": "bytes",
          "name": "",
          "type": "bytes"
        }
      ],
      "name": "onERC1155BatchReceived",
      "outputs": [
        {
          "internalType": "bytes4",
          "name": "",
          "type": "bytes4"
        }
      ],
      "stateMutability": "nonpayable",
      "type": "function"
    },
    {
      "inputs": [
        {
          "internalType": "address",
          "name": "",
          "type": "address"
        },
        {
          "internalType": "address",
          "name": "",
          "type": "address"
        },
        {
          "internalType": "uint256",
          "name": "",
          "type": "uint256"
        },
        {
          "internalType": "uint256",
          "name": "",
          "type": "uint256"
        },
        {
          "internalType": "bytes",
          "name": "",
          "type": "bytes"
        }
      ],
      "name": "onERC1155Received",
      "outputs": [
        {
          "internalType": "bytes4",
          "name": "",
          "type": "bytes4"
        }
      ],
      "stateMutability": "nonpayable",
      "type": "function"
    },
    {
      "inputs": [],
      "name": "pause",
      "outputs": [],
      "stateMutability": "nonpayable",
      "type": "function"
    },
    {
      "inputs": [],
      "name": "paused",
      "outputs": [
        {
          "internalType": "bool",
          "name": "",
          "type": "bool"
        }
      ],
      "stateMutability": "view",
      "type": "function"
    },
    {
      "inputs": [
        {
          "internalType": "bytes32",
          "name": "role",
          "type": "bytes32"
        },
        {
          "internalType": "address",
          "name": "account",
          "type": "address"
        }
      ],
      "name": "renounceRole",
      "outputs": [],
      "stateMutability": "nonpayable",
      "type": "function"
    },
    {
      "inputs": [
        {
          "internalType": "bytes32",
          "name": "role",
          "type": "bytes32"
        },
        {
          "internalType": "address",
          "name": "account",
          "type": "address"
        }
      ],
      "name": "revokeRole",
      "outputs": [],
      "stateMutability": "nonpayable",
      "type": "function"
    },
    {
      "inputs": [
        {
          "internalType": "address",
          "name": "from",
          "type": "address"
        },
        {
          "internalType": "address",
          "name": "to",
          "type": "address"
        },
        {
          "internalType": "uint256[]",
          "name": "ids",
          "type": "uint256[]"
        },
        {
          "internalType": "uint256[]",
          "name": "amounts",
          "type": "uint256[]"
        },
        {
          "internalType": "bytes",
          "name": "data",
          "type": "bytes"
        }
      ],
      "name": "safeBatchTransferFrom",
      "outputs": [],
      "stateMutability": "nonpayable",
      "type": "function"
    },
    {
      "inputs": [
        {
          "internalType": "address",
          "name": "from",
          "type": "address"
        },
        {
          "internalType": "address",
          "name": "to",
          "type": "address"
        },
        {
          "internalType": "uint256",
          "name": "id",
          "type": "uint256"
        },
        {
          "internalType": "uint256",
          "name": "amount",
          "type": "uint256"
        },
        {
          "internalType": "bytes",
          "name": "data",
          "type": "bytes"
        }
      ],
      "name": "safeTransferFrom",
      "outputs": [],
      "stateMutability": "nonpayable",
      "type": "function"
    },
    {
      "inputs": [
        {
          "internalType": "address",
          "name": "operator",
          "type": "address"
        },
        {
          "internalType": "bool",
          "name": "approved",
          "type": "bool"
        }
      ],
      "name": "setApprovalForAll",
      "outputs": [],
      "stateMutability": "nonpayable",
      "type": "function"
    },
    {
      "inputs": [
        {
          "internalType": "bytes4",
          "name": "interfaceId",
          "type": "bytes4"
        }
      ],
      "name": "supportsInterface",
      "outputs": [
        {
          "internalType": "bool",
          "name": "",
          "type": "bool"
        }
      ],
      "stateMutability": "view",
      "type": "function"
    },
    {
      "inputs": [],
      "name": "unpause",
      "outputs": [],
      "stateMutability": "nonpayable",
      "type": "function"
    },
    {
      "inputs": [
        {
          "internalType": "string",
          "name": "title",
          "type": "string"
        },
        {
          "internalType": "string",
          "name": "description",
          "type": "string"
        },
        {
          "internalType": "uint256",
          "name": "price",
          "type": "uint256"
        },
        {
          "internalType": "address",
          "name": "token",
          "type": "address"
        },
        {
          "internalType": "uint256",
          "name": "endPaymentDate",
          "type": "uint256"
        },
        {
          "internalType": "string",
          "name": "uri",
          "type": "string"
        }
      ],
      "name": "update",
      "outputs": [],
      "stateMutability": "nonpayable",
      "type": "function"
    },
    {
      "inputs": [
        {
          "internalType": "uint256",
          "name": "",
          "type": "uint256"
        }
      ],
      "name": "uri",
      "outputs": [
        {
          "internalType": "string",
          "name": "",
          "type": "string"
        }
      ],
      "stateMutability": "view",
      "type": "function"
    }
  ],
  "bytecode": "0x60806040523480156200001157600080fd5b506040516200401738038062004017833981016040819052620000349162000a4a565b8080620000418162000384565b506005805460ff19169055620000596000336200039d565b620000857f9f2df0fed2c77648de5860a4cc508cd0818c85b8b8a1ab4ceeef8d981c8956a6336200039d565b620000b17f65d7a28e3265b37a6474929f336521b332c1681b933f6cb9f3376673440d862a336200039d565b506001600160a01b0388166200010e5760405162461bcd60e51b815260206004820152601f60248201527f4974656d3a204f776e657220416464726573732063616e27742062652030780060448201526064015b60405180910390fd5b60008511620001605760405162461bcd60e51b815260206004820152601760248201527f4974656d3a205072696365206d757374206265203e2030000000000000000000604482015260640162000105565b6001600160a01b038416620001b85760405162461bcd60e51b815260206004820152601f60248201527f4974656d3a20546f6b656e20416464726573732063616e277420626520307800604482015260640162000105565b600083116200020a5760405162461bcd60e51b815260206004820152601860248201527f4974656d3a20416d6f756e74206d757374206265203e20300000000000000000604482015260640162000105565b600082116200025c5760405162461bcd60e51b815260206004820181905260248201527f4974656d3a20456e645061796d656e7444617465206d757374206265203e2030604482015260640162000105565b60058054610100600160a81b0319166101006001600160a01b038b16021790558651620002919060069060208a019062000911565b508551620002a790600790602089019062000911565b506008859055600980546001600160a01b0319166001600160a01b038616179055600a839055600b8290558051620002e790600c90602084019062000911565b5060015b8381116200032c57620003173082600160405180602001604052806000815250620003e060201b60201c565b80620003238162000d18565b915050620002eb565b507f7141f591b60c586cf546b56c1243a5a2585882c5539e0196f3ae01308cf50c573089898989898989896040516200036e9998979695949392919062000b7a565b60405180910390a1505050505050505062000e0a565b80516200039990600490602084019062000911565b5050565b620003b482826200050560201b620010ea1760201c565b6000828152600160209081526040909120620003db918390620010f862000511821b17901c565b505050565b6001600160a01b038416620004425760405162461bcd60e51b815260206004820152602160248201527f455243313135353a206d696e7420746f20746865207a65726f206164647265736044820152607360f81b606482015260840162000105565b336200046881600087620004568862000531565b620004618862000531565b876200058b565b60008481526002602090815260408083206001600160a01b0389168452909152812080548592906200049c90849062000c5e565b909155505060408051858152602081018590526001600160a01b0380881692600092918516917fc3d58168c5ae7397731d063d5bbf3d657854427343f4c083240f7aacaa2d0f62910160405180910390a4620004fe81600087878787620005ae565b5050505050565b62000399828262000794565b600062000528836001600160a01b03841662000834565b90505b92915050565b604080516001808252818301909252606091600091906020808301908036833701905050905082816000815181106200057a57634e487b7160e01b600052603260045260246000fd5b602090810291909101015292915050565b620005a68686868686866200088660201b6200110d1760201c565b505050505050565b620005cd846001600160a01b03166200090b60201b6200117d1760201c565b15620005a65760405163f23a6e6160e01b81526001600160a01b0385169063f23a6e619062000609908990899088908890889060040162000c02565b602060405180830381600087803b1580156200062457600080fd5b505af192505050801562000657575060408051601f3d908101601f19168201909252620006549181019062000b1b565b60015b62000718576200066662000d62565b806308c379a01415620006a757506200067e62000d7b565b806200068b5750620006a9565b8060405162461bcd60e51b815260040162000105919062000c49565b505b60405162461bcd60e51b815260206004820152603460248201527f455243313135353a207472616e7366657220746f206e6f6e204552433131353560448201527f526563656976657220696d706c656d656e746572000000000000000000000000606482015260840162000105565b6001600160e01b0319811663f23a6e6160e01b146200078b5760405162461bcd60e51b815260206004820152602860248201527f455243313135353a204552433131353552656365697665722072656a656374656044820152676420746f6b656e7360c01b606482015260840162000105565b50505050505050565b6000828152602081815260408083206001600160a01b038516845290915290205460ff1662000399576000828152602081815260408083206001600160a01b03851684529091529020805460ff19166001179055620007f03390565b6001600160a01b0316816001600160a01b0316837f2f8788117e7eff1d82e926ec794901d17c78024a50270940304540a733656f0d60405160405180910390a45050565b60008181526001830160205260408120546200087d575081546001818101845560008481526020808220909301849055845484825282860190935260409020919091556200052b565b5060006200052b565b620008a1868686868686620005a660201b620011751760201c565b60055460ff1615620005a65760405162461bcd60e51b815260206004820152602c60248201527f455243313135355061757361626c653a20746f6b656e207472616e736665722060448201526b1dda1a5b19481c185d5cd95960a21b606482015260840162000105565b3b151590565b8280546200091f9062000cac565b90600052602060002090601f0160209004810192826200094357600085556200098e565b82601f106200095e57805160ff19168380011785556200098e565b828001600101855582156200098e579182015b828111156200098e57825182559160200191906001019062000971565b506200099c929150620009a0565b5090565b5b808211156200099c5760008155600101620009a1565b80516001600160a01b0381168114620009cf57600080fd5b919050565b600082601f830112620009e5578081fd5b81516001600160401b0381111562000a015762000a0162000d4c565b60405162000a1a601f8301601f19166020018262000ce9565b81815284602083860101111562000a2f578283fd5b62000a4282602083016020870162000c79565b949350505050565b600080600080600080600080610100898b03121562000a67578384fd5b62000a7289620009b7565b60208a01519098506001600160401b038082111562000a8f578586fd5b62000a9d8c838d01620009d4565b985060408b015191508082111562000ab3578586fd5b62000ac18c838d01620009d4565b975060608b0151965062000ad860808c01620009b7565b955060a08b0151945060c08b0151935060e08b015191508082111562000afc578283fd5b5062000b0b8b828c01620009d4565b9150509295985092959890939650565b60006020828403121562000b2d578081fd5b81516001600160e01b03198116811462000b45578182fd5b9392505050565b6000815180845262000b6681602086016020860162000c79565b601f01601f19169290920160200192915050565b6001600160a01b038a8116825289811660208301526101206040830181905260009162000baa8483018c62000b4c565b9150838203606085015262000bc0828b62000b4c565b915088608085015280881660a0850152508560c08401528460e084015282810361010084015262000bf2818562000b4c565b9c9b505050505050505050505050565b6001600160a01b03868116825285166020820152604081018490526060810183905260a06080820181905260009062000c3e9083018462000b4c565b979650505050505050565b60208152600062000528602083018462000b4c565b6000821982111562000c745762000c7462000d36565b500190565b60005b8381101562000c9657818101518382015260200162000c7c565b8381111562000ca6576000848401525b50505050565b600181811c9082168062000cc157607f821691505b6020821081141562000ce357634e487b7160e01b600052602260045260246000fd5b50919050565b601f8201601f191681016001600160401b038111828210171562000d115762000d1162000d4c565b6040525050565b600060001982141562000d2f5762000d2f62000d36565b5060010190565b634e487b7160e01b600052601160045260246000fd5b634e487b7160e01b600052604160045260246000fd5b600060033d111562000d7857600481823e5160e01c5b90565b600060443d101562000d8a5790565b6040516003193d81016004833e81513d6001600160401b03808311602484018310171562000dba57505050505090565b828501915081518181111562000dd35750505050505090565b843d870101602082850101111562000dee5750505050505090565b62000dff6020828601018762000ce9565b509095945050505050565b6131fd8062000e1a6000396000f3fe608060405234801561001057600080fd5b50600436106101ce5760003560e01c80638456cb5911610104578063d5391393116100a2578063f23a6e6111610071578063f23a6e6114610462578063f242432a14610481578063f5298aca14610494578063fbbf93a0146104a757600080fd5b8063d5391393146103c5578063d547741f146103ec578063e63ab1e9146103ff578063e985e9c51461042657600080fd5b8063a217fddf116100de578063a217fddf1461035f578063a22cb46514610367578063bc197c811461037a578063ca15c873146103b257600080fd5b80638456cb59146103195780639010d07c1461032157806391d148541461034c57600080fd5b806336568abe116101715780635c975abb1161014b5780635c975abb146102d55780636b20c454146102e05780636da6a438146102f3578063731133e91461030657600080fd5b806336568abe1461029a5780633f4ba83a146102ad5780634e1273f4146102b557600080fd5b80631f7fdffa116101ad5780631f7fdffa1461023c578063248a9ca3146102515780632eb2c2d6146102745780632f2ff15d1461028757600080fd5b8062fdd58e146101d357806301ffc9a7146101f95780630e89341c1461021c575b600080fd5b6101e66101e13660046127b9565b6104c3565b6040519081526020015b60405180910390f35b61020c61020736600461298b565b61055f565b60405190151581526020016101f0565b61022f61022a366004612930565b61056a565b6040516101f09190612d0b565b61024f61024a3660046126eb565b6105fe565b005b6101e661025f366004612930565b60009081526020819052604090206001015490565b61024f610282366004612574565b610656565b61024f610295366004612948565b6106ed565b61024f6102a8366004612948565b610714565b61024f610736565b6102c86102c3366004612866565b6107dc565b6040516101f09190612cca565b60055460ff1661020c565b61024f6102ee36600461267b565b61093d565b61024f6103013660046129c3565b610980565b61024f610314366004612814565b610c26565b61024f610c78565b61033461032f36600461296a565b610d1c565b6040516001600160a01b0390911681526020016101f0565b61020c61035a366004612948565b610d3b565b6101e6600081565b61024f61037536600461277f565b610d64565b610399610388366004612574565b63bc197c8160e01b95945050505050565b6040516001600160e01b031990911681526020016101f0565b6101e66103c0366004612930565b610e3b565b6101e67f9f2df0fed2c77648de5860a4cc508cd0818c85b8b8a1ab4ceeef8d981c8956a681565b61024f6103fa366004612948565b610e52565b6101e67f65d7a28e3265b37a6474929f336521b332c1681b933f6cb9f3376673440d862a81565b61020c610434366004612542565b6001600160a01b03918216600090815260036020908152604080832093909416825291909152205460ff1690565b610399610470366004612619565b63f23a6e6160e01b95945050505050565b61024f61048f366004612619565b610e5c565b61024f6104a23660046127e2565b610ea1565b6104af610ee4565b6040516101f0989796959493929190612c61565b60006001600160a01b0383166105345760405162461bcd60e51b815260206004820152602b60248201527f455243313135353a2062616c616e636520717565727920666f7220746865207a60448201526a65726f206164647265737360a81b60648201526084015b60405180910390fd5b5060008181526002602090815260408083206001600160a01b03861684529091529020545b92915050565b600061055982611183565b6060600480546105799061305f565b80601f01602080910402602001604051908101604052809291908181526020018280546105a59061305f565b80156105f25780601f106105c7576101008083540402835291602001916105f2565b820191906000526020600020905b8154815290600101906020018083116105d557829003601f168201915b50505050509050919050565b6106287f9f2df0fed2c77648de5860a4cc508cd0818c85b8b8a1ab4ceeef8d981c8956a633610d3b565b6106445760405162461bcd60e51b815260040161052b90612e7b565b610650848484846111a8565b50505050565b6001600160a01b03851633148061067257506106728533610434565b6106d95760405162461bcd60e51b815260206004820152603260248201527f455243313135353a207472616e736665722063616c6c6572206973206e6f74206044820152711bdddb995c881b9bdc88185c1c1c9bdd995960721b606482015260840161052b565b6106e6858585858561131f565b5050505050565b6106f782826114e0565b600082815260016020526040902061070f90826110f8565b505050565b61071e8282611506565b600082815260016020526040902061070f9082611580565b6107607f65d7a28e3265b37a6474929f336521b332c1681b933f6cb9f3376673440d862a33610d3b565b6107d25760405162461bcd60e51b815260206004820152603b60248201527f455243313135355072657365744d696e7465725061757365723a206d7573742060448201527f686176652070617573657220726f6c6520746f20756e70617573650000000000606482015260840161052b565b6107da611595565b565b606081518351146108415760405162461bcd60e51b815260206004820152602960248201527f455243313135353a206163636f756e747320616e6420696473206c656e677468604482015268040dad2e6dac2e8c6d60bb1b606482015260840161052b565b600083516001600160401b0381111561086a57634e487b7160e01b600052604160045260246000fd5b604051908082528060200260200182016040528015610893578160200160208202803683370190505b50905060005b8451811015610935576108fa8582815181106108c557634e487b7160e01b600052603260045260246000fd5b60200260200101518583815181106108ed57634e487b7160e01b600052603260045260246000fd5b60200260200101516104c3565b82828151811061091a57634e487b7160e01b600052603260045260246000fd5b602090810291909101015261092e816130c6565b9050610899565b509392505050565b6001600160a01b03831633148061095957506109598333610434565b6109755760405162461bcd60e51b815260040161052b90612daa565b61070f838383611628565b60055461010090046001600160a01b0316336001600160a01b0316146109de5760405162461bcd60e51b81526020600482015260136024820152722ab9b2b91d102737ba103a34329037bbb732b960691b604482015260640161052b565b60008411610a2e5760405162461bcd60e51b815260206004820152601760248201527f4974656d3a205072696365206d757374206265203e2030000000000000000000604482015260640161052b565b6001600160a01b038316610a845760405162461bcd60e51b815260206004820152601f60248201527f4974656d3a20546f6b656e20416464726573732063616e277420626520307800604482015260640161052b565b60008211610ad45760405162461bcd60e51b815260206004820181905260248201527f4974656d3a20456e645061796d656e7444617465206d757374206265203e2030604482015260640161052b565b8551610ae79060069060208901906123ab565b508451610afb9060079060208801906123ab565b506008849055600980546001600160a01b0319166001600160a01b038516179055600b8290558051610b3490600c9060208401906123ab565b50610bc8600c8054610b459061305f565b80601f0160208091040260200160405190810160405280929190818152602001828054610b719061305f565b8015610bbe5780601f10610b9357610100808354040283529160200191610bbe565b820191906000526020600020905b815481529060010190602001808311610ba157829003601f168201915b50505050506117d5565b6005546040517ffb7fb68dc6cb2782dcf1d12cf6f4edd1169ab123e9ad0a582c3eee9f2c499f4091610c1691309161010090046001600160a01b0316908a908a908a908a908a908a90612ba2565b60405180910390a1505050505050565b610c507f9f2df0fed2c77648de5860a4cc508cd0818c85b8b8a1ab4ceeef8d981c8956a633610d3b565b610c6c5760405162461bcd60e51b815260040161052b90612e7b565b610650848484846117e8565b610ca27f65d7a28e3265b37a6474929f336521b332c1681b933f6cb9f3376673440d862a33610d3b565b610d145760405162461bcd60e51b815260206004820152603960248201527f455243313135355072657365744d696e7465725061757365723a206d7573742060448201527f686176652070617573657220726f6c6520746f20706175736500000000000000606482015260840161052b565b6107da6118c0565b6000828152600160205260408120610d34908361193b565b9392505050565b6000918252602082815260408084206001600160a01b0393909316845291905290205460ff1690565b336001600160a01b0383161415610dcf5760405162461bcd60e51b815260206004820152602960248201527f455243313135353a2073657474696e6720617070726f76616c20737461747573604482015268103337b91039b2b63360b91b606482015260840161052b565b3360008181526003602090815260408083206001600160a01b03871680855290835292819020805460ff191686151590811790915590519081529192917f17307eab39ab6107e8899845ad3d59bd9653f200f220920489ca2b5937696c31910160405180910390a35050565b600081815260016020526040812061055990611947565b61071e8282611951565b6001600160a01b038516331480610e785750610e788533610434565b610e945760405162461bcd60e51b815260040161052b90612daa565b6106e68585858585611977565b6001600160a01b038316331480610ebd5750610ebd8333610434565b610ed95760405162461bcd60e51b815260040161052b90612daa565b61070f838383611a98565b60006060806000806000806060600560019054906101000a90046001600160a01b031660066007600854600960009054906101000a90046001600160a01b0316600a54600b54600c868054610f389061305f565b80601f0160208091040260200160405190810160405280929190818152602001828054610f649061305f565b8015610fb15780601f10610f8657610100808354040283529160200191610fb1565b820191906000526020600020905b815481529060010190602001808311610f9457829003601f168201915b50505050509650858054610fc49061305f565b80601f0160208091040260200160405190810160405280929190818152602001828054610ff09061305f565b801561103d5780601f106110125761010080835404028352916020019161103d565b820191906000526020600020905b81548152906001019060200180831161102057829003601f168201915b505050505095508080546110509061305f565b80601f016020809104026020016040519081016040528092919081815260200182805461107c9061305f565b80156110c95780601f1061109e576101008083540402835291602001916110c9565b820191906000526020600020905b8154815290600101906020018083116110ac57829003601f168201915b50505050509050975097509750975097509750975097509091929394959697565b6110f48282611b9d565b5050565b6000610d34836001600160a01b038416611c21565b60055460ff16156111755760405162461bcd60e51b815260206004820152602c60248201527f455243313135355061757361626c653a20746f6b656e207472616e736665722060448201526b1dda1a5b19481c185d5cd95960a21b606482015260840161052b565b505050505050565b3b151590565b60006001600160e01b03198216630271189760e51b1480610559575061055982611c70565b6001600160a01b0384166111ce5760405162461bcd60e51b815260040161052b90612f6a565b81518351146111ef5760405162461bcd60e51b815260040161052b90612f22565b336111ff81600087878787611c7b565b60005b84518110156112b75783818151811061122b57634e487b7160e01b600052603260045260246000fd5b60200260200101516002600087848151811061125757634e487b7160e01b600052603260045260246000fd5b602002602001015181526020019081526020016000206000886001600160a01b03166001600160a01b03168152602001908152602001600020600082825461129f9190612fce565b909155508190506112af816130c6565b915050611202565b50846001600160a01b031660006001600160a01b0316826001600160a01b03167f4a39dc06d4c0dbc64b70af90fd698a233a518aa5d07e595d983b8c0526c8f7fb8787604051611308929190612cdd565b60405180910390a46106e681600087878787611c89565b81518351146113405760405162461bcd60e51b815260040161052b90612f22565b6001600160a01b0384166113665760405162461bcd60e51b815260040161052b90612df3565b33611375818787878787611c7b565b60005b845181101561147a5760008582815181106113a357634e487b7160e01b600052603260045260246000fd5b6020026020010151905060008583815181106113cf57634e487b7160e01b600052603260045260246000fd5b60209081029190910181015160008481526002835260408082206001600160a01b038e1683529093529190912054909150818110156114205760405162461bcd60e51b815260040161052b90612ed8565b60008381526002602090815260408083206001600160a01b038e8116855292528083208585039055908b1682528120805484929061145f908490612fce565b9250508190555050505080611473906130c6565b9050611378565b50846001600160a01b0316866001600160a01b0316826001600160a01b03167f4a39dc06d4c0dbc64b70af90fd698a233a518aa5d07e595d983b8c0526c8f7fb87876040516114ca929190612cdd565b60405180910390a4611175818787878787611c89565b6000828152602081905260409020600101546114fc8133611df4565b61070f8383611b9d565b6001600160a01b03811633146115765760405162461bcd60e51b815260206004820152602f60248201527f416363657373436f6e74726f6c3a2063616e206f6e6c792072656e6f756e636560448201526e103937b632b9903337b91039b2b63360891b606482015260840161052b565b6110f48282611e58565b6000610d34836001600160a01b038416611ebd565b60055460ff166115de5760405162461bcd60e51b815260206004820152601460248201527314185d5cd8589b194e881b9bdd081c185d5cd95960621b604482015260640161052b565b6005805460ff191690557f5db9ee0a495bf2e6ff9c91a7834c1ba4fdd244a5e8aa4e537bd38aeae4b073aa335b6040516001600160a01b03909116815260200160405180910390a1565b6001600160a01b03831661164e5760405162461bcd60e51b815260040161052b90612e38565b805182511461166f5760405162461bcd60e51b815260040161052b90612f22565b600033905061169281856000868660405180602001604052806000815250611c7b565b60005b83518110156117765760008482815181106116c057634e487b7160e01b600052603260045260246000fd5b6020026020010151905060008483815181106116ec57634e487b7160e01b600052603260045260246000fd5b60209081029190910181015160008481526002835260408082206001600160a01b038c16835290935291909120549091508181101561173d5760405162461bcd60e51b815260040161052b90612d66565b60009283526002602090815260408085206001600160a01b038b168652909152909220910390558061176e816130c6565b915050611695565b5060006001600160a01b0316846001600160a01b0316826001600160a01b03167f4a39dc06d4c0dbc64b70af90fd698a233a518aa5d07e595d983b8c0526c8f7fb86866040516117c7929190612cdd565b60405180910390a450505050565b80516110f49060049060208401906123ab565b6001600160a01b03841661180e5760405162461bcd60e51b815260040161052b90612f6a565b3361182e8160008761181f88611fda565b61182888611fda565b87611c7b565b60008481526002602090815260408083206001600160a01b038916845290915281208054859290611860908490612fce565b909155505060408051858152602081018590526001600160a01b0380881692600092918516917fc3d58168c5ae7397731d063d5bbf3d657854427343f4c083240f7aacaa2d0f62910160405180910390a46106e681600087878787612033565b60055460ff16156119065760405162461bcd60e51b815260206004820152601060248201526f14185d5cd8589b194e881c185d5cd95960821b604482015260640161052b565b6005805460ff191660011790557f62e78cea01bee320cd4e420270b5ea74000d11b0c9f74754ebdbfc544b05a25861160b3390565b6000610d3483836120fd565b6000610559825490565b60008281526020819052604090206001015461196d8133611df4565b61070f8383611e58565b6001600160a01b03841661199d5760405162461bcd60e51b815260040161052b90612df3565b336119ad81878761181f88611fda565b60008481526002602090815260408083206001600160a01b038a168452909152902054838110156119f05760405162461bcd60e51b815260040161052b90612ed8565b60008581526002602090815260408083206001600160a01b038b8116855292528083208785039055908816825281208054869290611a2f908490612fce565b909155505060408051868152602081018690526001600160a01b03808916928a821692918616917fc3d58168c5ae7397731d063d5bbf3d657854427343f4c083240f7aacaa2d0f62910160405180910390a4611a8f828888888888612033565b50505050505050565b6001600160a01b038316611abe5760405162461bcd60e51b815260040161052b90612e38565b33611aed81856000611acf87611fda565b611ad887611fda565b60405180602001604052806000815250611c7b565b60008381526002602090815260408083206001600160a01b038816845290915290205482811015611b305760405162461bcd60e51b815260040161052b90612d66565b60008481526002602090815260408083206001600160a01b03898116808652918452828520888703905582518981529384018890529092908616917fc3d58168c5ae7397731d063d5bbf3d657854427343f4c083240f7aacaa2d0f62910160405180910390a45050505050565b611ba78282610d3b565b6110f4576000828152602081815260408083206001600160a01b03851684529091529020805460ff19166001179055611bdd3390565b6001600160a01b0316816001600160a01b0316837f2f8788117e7eff1d82e926ec794901d17c78024a50270940304540a733656f0d60405160405180910390a45050565b6000818152600183016020526040812054611c6857508154600181810184556000848152602080822090930184905584548482528286019093526040902091909155610559565b506000610559565b600061055982612135565b61117586868686868661110d565b6001600160a01b0384163b156111755760405163bc197c8160e01b81526001600160a01b0385169063bc197c8190611ccd9089908990889088908890600401612b44565b602060405180830381600087803b158015611ce757600080fd5b505af1925050508015611d17575060408051601f3d908101601f19168201909252611d14918101906129a7565b60015b611dc457611d2361310d565b806308c379a01415611d5d5750611d38613125565b80611d435750611d5f565b8060405162461bcd60e51b815260040161052b9190612d0b565b505b60405162461bcd60e51b815260206004820152603460248201527f455243313135353a207472616e7366657220746f206e6f6e20455243313135356044820152732932b1b2b4bb32b91034b6b83632b6b2b73a32b960611b606482015260840161052b565b6001600160e01b0319811663bc197c8160e01b14611a8f5760405162461bcd60e51b815260040161052b90612d1e565b611dfe8282610d3b565b6110f457611e16816001600160a01b03166014612175565b611e21836020612175565b604051602001611e32929190612acf565b60408051601f198184030181529082905262461bcd60e51b825261052b91600401612d0b565b611e628282610d3b565b156110f4576000828152602081815260408083206001600160a01b0385168085529252808320805460ff1916905551339285917ff6391f5c32d9c69d2a47ea670b442974b53935d1edc7fd64eb21e047a839171b9190a45050565b60008181526001830160205260408120548015611fd0576000611ee1600183613005565b8554909150600090611ef590600190613005565b9050818114611f76576000866000018281548110611f2357634e487b7160e01b600052603260045260246000fd5b9060005260206000200154905080876000018481548110611f5457634e487b7160e01b600052603260045260246000fd5b6000918252602080832090910192909255918252600188019052604090208390555b8554869080611f9557634e487b7160e01b600052603160045260246000fd5b600190038181906000526020600020016000905590558560010160008681526020019081526020016000206000905560019350505050610559565b6000915050610559565b6040805160018082528183019092526060916000919060208083019080368337019050509050828160008151811061202257634e487b7160e01b600052603260045260246000fd5b602090810291909101015292915050565b6001600160a01b0384163b156111755760405163f23a6e6160e01b81526001600160a01b0385169063f23a6e61906120779089908990889088908890600401612c1c565b602060405180830381600087803b15801561209157600080fd5b505af19250505080156120c1575060408051601f3d908101601f191682019092526120be918101906129a7565b60015b6120cd57611d2361310d565b6001600160e01b0319811663f23a6e6160e01b14611a8f5760405162461bcd60e51b815260040161052b90612d1e565b600082600001828154811061212257634e487b7160e01b600052603260045260246000fd5b9060005260206000200154905092915050565b60006001600160e01b03198216636cdb3d1360e11b148061216657506001600160e01b031982166303a24d0760e21b145b80610559575061055982612356565b60606000612184836002612fe6565b61218f906002612fce565b6001600160401b038111156121b457634e487b7160e01b600052604160045260246000fd5b6040519080825280601f01601f1916602001820160405280156121de576020820181803683370190505b509050600360fc1b8160008151811061220757634e487b7160e01b600052603260045260246000fd5b60200101906001600160f81b031916908160001a905350600f60fb1b8160018151811061224457634e487b7160e01b600052603260045260246000fd5b60200101906001600160f81b031916908160001a9053506000612268846002612fe6565b612273906001612fce565b90505b6001811115612307576f181899199a1a9b1b9c1cb0b131b232b360811b85600f16601081106122b557634e487b7160e01b600052603260045260246000fd5b1a60f81b8282815181106122d957634e487b7160e01b600052603260045260246000fd5b60200101906001600160f81b031916908160001a90535060049490941c9361230081613048565b9050612276565b508315610d345760405162461bcd60e51b815260206004820181905260248201527f537472696e67733a20686578206c656e67746820696e73756666696369656e74604482015260640161052b565b60006001600160e01b03198216635a05180f60e01b148061055957506105598260006001600160e01b03198216637965db0b60e01b148061055957506301ffc9a760e01b6001600160e01b0319831614610559565b8280546123b79061305f565b90600052602060002090601f0160209004810192826123d9576000855561241f565b82601f106123f257805160ff191683800117855561241f565b8280016001018555821561241f579182015b8281111561241f578251825591602001919060010190612404565b5061242b92915061242f565b5090565b5b8082111561242b5760008155600101612430565b80356001600160a01b038116811461245b57600080fd5b919050565b600082601f830112612470578081fd5b8135602061247d82612fab565b60405161248a828261309a565b8381528281019150858301600585901b870184018810156124a9578586fd5b855b858110156124c7578135845292840192908401906001016124ab565b5090979650505050505050565b600082601f8301126124e4578081fd5b81356001600160401b038111156124fd576124fd6130f7565b604051612514601f8301601f19166020018261309a565b818152846020838601011115612528578283fd5b816020850160208301379081016020019190915292915050565b60008060408385031215612554578182fd5b61255d83612444565b915061256b60208401612444565b90509250929050565b600080600080600060a0868803121561258b578081fd5b61259486612444565b94506125a260208701612444565b935060408601356001600160401b03808211156125bd578283fd5b6125c989838a01612460565b945060608801359150808211156125de578283fd5b6125ea89838a01612460565b935060808801359150808211156125ff578283fd5b5061260c888289016124d4565b9150509295509295909350565b600080600080600060a08688031215612630578081fd5b61263986612444565b945061264760208701612444565b9350604086013592506060860135915060808601356001600160401b0381111561266f578182fd5b61260c888289016124d4565b60008060006060848603121561268f578283fd5b61269884612444565b925060208401356001600160401b03808211156126b3578384fd5b6126bf87838801612460565b935060408601359150808211156126d4578283fd5b506126e186828701612460565b9150509250925092565b60008060008060808587031215612700578384fd5b61270985612444565b935060208501356001600160401b0380821115612724578485fd5b61273088838901612460565b94506040870135915080821115612745578384fd5b61275188838901612460565b93506060870135915080821115612766578283fd5b50612773878288016124d4565b91505092959194509250565b60008060408385031215612791578182fd5b61279a83612444565b9150602083013580151581146127ae578182fd5b809150509250929050565b600080604083850312156127cb578182fd5b6127d483612444565b946020939093013593505050565b6000806000606084860312156127f6578081fd5b6127ff84612444565b95602085013595506040909401359392505050565b60008060008060808587031215612829578182fd5b61283285612444565b9350602085013592506040850135915060608501356001600160401b0381111561285a578182fd5b612773878288016124d4565b60008060408385031215612878578182fd5b82356001600160401b038082111561288e578384fd5b818501915085601f8301126128a1578384fd5b813560206128ae82612fab565b6040516128bb828261309a565b8381528281019150858301600585901b870184018b10156128da578889fd5b8896505b84871015612903576128ef81612444565b8352600196909601959183019183016128de565b5096505086013592505080821115612919578283fd5b5061292685828601612460565b9150509250929050565b600060208284031215612941578081fd5b5035919050565b6000806040838503121561295a578182fd5b8235915061256b60208401612444565b6000806040838503121561297c578182fd5b50508035926020909101359150565b60006020828403121561299c578081fd5b8135610d34816131ae565b6000602082840312156129b8578081fd5b8151610d34816131ae565b60008060008060008060c087890312156129db578384fd5b86356001600160401b03808211156129f1578586fd5b6129fd8a838b016124d4565b97506020890135915080821115612a12578586fd5b612a1e8a838b016124d4565b965060408901359550612a3360608a01612444565b94506080890135935060a0890135915080821115612a4f578283fd5b50612a5c89828a016124d4565b9150509295509295509295565b6000815180845260208085019450808401835b83811015612a9857815187529582019590820190600101612a7c565b509495945050505050565b60008151808452612abb81602086016020860161301c565b601f01601f19169290920160200192915050565b7f416363657373436f6e74726f6c3a206163636f756e7420000000000000000000815260008351612b0781601785016020880161301c565b7001034b99036b4b9b9b4b733903937b6329607d1b6017918401918201528351612b3881602884016020880161301c565b01602801949350505050565b6001600160a01b0386811682528516602082015260a060408201819052600090612b7090830186612a69565b8281036060840152612b828186612a69565b90508281036080840152612b968185612aa3565b98975050505050505050565b6001600160a01b038981168252888116602083015261010060408301819052600091612bd08483018b612aa3565b91508382036060850152612be4828a612aa3565b915087608085015280871660a0850152508460c084015282810360e0840152612c0d8185612aa3565b9b9a5050505050505050505050565b6001600160a01b03868116825285166020820152604081018490526060810183905260a060808201819052600090612c5690830184612aa3565b979650505050505050565b6001600160a01b03898116825261010060208301819052600091612c878483018c612aa3565b91508382036040850152612c9b828b612aa3565b91508860608501528088166080850152508560a08401528460c084015282810360e0840152612c0d8185612aa3565b602081526000610d346020830184612a69565b604081526000612cf06040830185612a69565b8281036020840152612d028185612a69565b95945050505050565b602081526000610d346020830184612aa3565b60208082526028908201527f455243313135353a204552433131353552656365697665722072656a656374656040820152676420746f6b656e7360c01b606082015260800190565b60208082526024908201527f455243313135353a206275726e20616d6f756e7420657863656564732062616c604082015263616e636560e01b606082015260800190565b60208082526029908201527f455243313135353a2063616c6c6572206973206e6f74206f776e6572206e6f7260408201526808185c1c1c9bdd995960ba1b606082015260800190565b60208082526025908201527f455243313135353a207472616e7366657220746f20746865207a65726f206164604082015264647265737360d81b606082015260800190565b60208082526023908201527f455243313135353a206275726e2066726f6d20746865207a65726f206164647260408201526265737360e81b606082015260800190565b60208082526038908201527f455243313135355072657365744d696e7465725061757365723a206d7573742060408201527f68617665206d696e74657220726f6c6520746f206d696e740000000000000000606082015260800190565b6020808252602a908201527f455243313135353a20696e73756666696369656e742062616c616e636520666f60408201526939103a3930b739b332b960b11b606082015260800190565b60208082526028908201527f455243313135353a2069647320616e6420616d6f756e7473206c656e677468206040820152670dad2e6dac2e8c6d60c31b606082015260800190565b60208082526021908201527f455243313135353a206d696e7420746f20746865207a65726f206164647265736040820152607360f81b606082015260800190565b60006001600160401b03821115612fc457612fc46130f7565b5060051b60200190565b60008219821115612fe157612fe16130e1565b500190565b6000816000190483118215151615613000576130006130e1565b500290565b600082821015613017576130176130e1565b500390565b60005b8381101561303757818101518382015260200161301f565b838111156106505750506000910152565b600081613057576130576130e1565b506000190190565b600181811c9082168061307357607f821691505b6020821081141561309457634e487b7160e01b600052602260045260246000fd5b50919050565b601f8201601f191681016001600160401b03811182821017156130bf576130bf6130f7565b6040525050565b60006000198214156130da576130da6130e1565b5060010190565b634e487b7160e01b600052601160045260246000fd5b634e487b7160e01b600052604160045260246000fd5b600060033d111561312257600481823e5160e01c5b90565b600060443d10156131335790565b6040516003193d81016004833e81513d6001600160401b03816024840111818411171561316257505050505090565b828501915081518181111561317a5750505050505090565b843d87010160208285010111156131945750505050505090565b6131a36020828601018761309a565b509095945050505050565b6001600160e01b0319811681146131c457600080fd5b5056fea264697066735822122063070129945e8e4e4f7d2ee593fa4155dd44436d7a16b6e722d14302621655ef64736f6c63430008040033",
  "linkReferences": {},
  "deployedLinkReferences": {}
}