{
  "_format": "hh-sol-artifact-1",
  "contractName": "Item",
  "sourceName": "contracts/Item.sol",
  "abi": [
    {
      "inputs": [
        {
          "internalType": "address",
          "name": "main",
          "type": "address"
        },
        {
          "internalType": "address",
          "name": "owner",
          "type": "address"
        },
        {
          "internalType": "string",
          "name": "title",
          "type": "string"
        },
        {
          "internalType": "string",
          "name": "description",
          "type": "string"
        },
        {
          "internalType": "uint256",
          "name": "price",
          "type": "uint256"
        },
        {
          "internalType": "address",
          "name": "token",
          "type": "address"
        },
        {
          "internalType": "uint256",
          "name": "amount",
          "type": "uint256"
        },
        {
          "internalType": "uint256",
          "name": "endPaymentDate",
          "type": "uint256"
        },
        {
          "internalType": "string",
          "name": "uri",
          "type": "string"
        }
      ],
      "stateMutability": "nonpayable",
      "type": "constructor"
    },
    {
      "anonymous": false,
      "inputs": [
        {
          "indexed": true,
          "internalType": "address",
          "name": "account",
          "type": "address"
        },
        {
          "indexed": true,
          "internalType": "address",
          "name": "operator",
          "type": "address"
        },
        {
          "indexed": false,
          "internalType": "bool",
          "name": "approved",
          "type": "bool"
        }
      ],
      "name": "ApprovalForAll",
      "type": "event"
    },
    {
      "anonymous": false,
      "inputs": [
        {
          "indexed": false,
          "internalType": "address",
          "name": "operator",
          "type": "address"
        },
        {
          "indexed": false,
          "internalType": "address",
          "name": "from",
          "type": "address"
        },
        {
          "indexed": false,
          "internalType": "address",
          "name": "to",
          "type": "address"
        },
        {
          "indexed": false,
          "internalType": "uint256",
          "name": "amount",
          "type": "uint256"
        },
        {
          "indexed": false,
          "internalType": "bytes",
          "name": "userData",
          "type": "bytes"
        },
        {
          "indexed": false,
          "internalType": "bytes",
          "name": "operatorData",
          "type": "bytes"
        }
      ],
      "name": "DoneStuff",
      "type": "event"
    },
    {
      "anonymous": false,
      "inputs": [
        {
          "indexed": false,
          "internalType": "address",
          "name": "buyer",
          "type": "address"
        },
        {
          "indexed": false,
          "internalType": "uint256",
          "name": "nftId",
          "type": "uint256"
        }
      ],
      "name": "FinishedPurchasing",
      "type": "event"
    },
    {
      "anonymous": false,
      "inputs": [
        {
          "indexed": false,
          "internalType": "address",
          "name": "item",
          "type": "address"
        },
        {
          "indexed": false,
          "internalType": "address",
          "name": "owner",
          "type": "address"
        },
        {
          "indexed": false,
          "internalType": "string",
          "name": "title",
          "type": "string"
        },
        {
          "indexed": false,
          "internalType": "string",
          "name": "description",
          "type": "string"
        },
        {
          "indexed": false,
          "internalType": "uint256",
          "name": "price",
          "type": "uint256"
        },
        {
          "indexed": false,
          "internalType": "address",
          "name": "token",
          "type": "address"
        },
        {
          "indexed": false,
          "internalType": "uint256",
          "name": "amount",
          "type": "uint256"
        },
        {
          "indexed": false,
          "internalType": "uint256",
          "name": "endPaymentDate",
          "type": "uint256"
        },
        {
          "indexed": false,
          "internalType": "string",
          "name": "uri",
          "type": "string"
        }
      ],
      "name": "ItemCreated",
      "type": "event"
    },
    {
      "anonymous": false,
      "inputs": [
        {
          "indexed": false,
          "internalType": "address",
          "name": "owner",
          "type": "address"
        },
        {
          "indexed": false,
          "internalType": "string",
          "name": "title",
          "type": "string"
        },
        {
          "indexed": false,
          "internalType": "string",
          "name": "description",
          "type": "string"
        }
      ],
      "name": "ItemUpdated",
      "type": "event"
    },
    {
      "anonymous": false,
      "inputs": [
        {
          "indexed": false,
          "internalType": "address",
          "name": "buyer",
          "type": "address"
        },
        {
          "indexed": false,
          "internalType": "bytes32",
          "name": "agreementId",
          "type": "bytes32"
        },
        {
          "indexed": false,
          "internalType": "int96",
          "name": "flowRate",
          "type": "int96"
        },
        {
          "indexed": false,
          "internalType": "uint256",
          "name": "endPaymentDate",
          "type": "uint256"
        }
      ],
      "name": "StartedPurchasing",
      "type": "event"
    },
    {
      "anonymous": false,
      "inputs": [
        {
          "indexed": true,
          "internalType": "address",
          "name": "operator",
          "type": "address"
        },
        {
          "indexed": true,
          "internalType": "address",
          "name": "from",
          "type": "address"
        },
        {
          "indexed": true,
          "internalType": "address",
          "name": "to",
          "type": "address"
        },
        {
          "indexed": false,
          "internalType": "uint256[]",
          "name": "ids",
          "type": "uint256[]"
        },
        {
          "indexed": false,
          "internalType": "uint256[]",
          "name": "values",
          "type": "uint256[]"
        }
      ],
      "name": "TransferBatch",
      "type": "event"
    },
    {
      "anonymous": false,
      "inputs": [
        {
          "indexed": true,
          "internalType": "address",
          "name": "operator",
          "type": "address"
        },
        {
          "indexed": true,
          "internalType": "address",
          "name": "from",
          "type": "address"
        },
        {
          "indexed": true,
          "internalType": "address",
          "name": "to",
          "type": "address"
        },
        {
          "indexed": false,
          "internalType": "uint256",
          "name": "id",
          "type": "uint256"
        },
        {
          "indexed": false,
          "internalType": "uint256",
          "name": "value",
          "type": "uint256"
        }
      ],
      "name": "TransferSingle",
      "type": "event"
    },
    {
      "anonymous": false,
      "inputs": [
        {
          "indexed": false,
          "internalType": "string",
          "name": "value",
          "type": "string"
        },
        {
          "indexed": true,
          "internalType": "uint256",
          "name": "id",
          "type": "uint256"
        }
      ],
      "name": "URI",
      "type": "event"
    },
    {
      "anonymous": false,
      "inputs": [
        {
          "indexed": true,
          "internalType": "address",
          "name": "recipient",
          "type": "address"
        },
        {
          "indexed": false,
          "internalType": "uint256",
          "name": "amount",
          "type": "uint256"
        }
      ],
      "name": "WithdrawnEth",
      "type": "event"
    },
    {
      "inputs": [
        {
          "internalType": "contract ISuperToken",
          "name": "",
          "type": "address"
        },
        {
          "internalType": "address",
          "name": "agreementClass",
          "type": "address"
        },
        {
          "internalType": "bytes32",
          "name": "agreementId",
          "type": "bytes32"
        },
        {
          "internalType": "bytes",
          "name": "",
          "type": "bytes"
        },
        {
          "internalType": "bytes",
          "name": "cbdata",
          "type": "bytes"
        },
        {
          "internalType": "bytes",
          "name": "ctx",
          "type": "bytes"
        }
      ],
      "name": "afterAgreementCreated",
      "outputs": [
        {
          "internalType": "bytes",
          "name": "newCtx",
          "type": "bytes"
        }
      ],
      "stateMutability": "nonpayable",
      "type": "function"
    },
    {
      "inputs": [
        {
          "internalType": "contract ISuperToken",
          "name": "",
          "type": "address"
        },
        {
          "internalType": "address",
          "name": "",
          "type": "address"
        },
        {
          "internalType": "bytes32",
          "name": "agreementId",
          "type": "bytes32"
        },
        {
          "internalType": "bytes",
          "name": "",
          "type": "bytes"
        },
        {
          "internalType": "bytes",
          "name": "cbdata",
          "type": "bytes"
        },
        {
          "internalType": "bytes",
          "name": "ctx",
          "type": "bytes"
        }
      ],
      "name": "afterAgreementTerminated",
      "outputs": [
        {
          "internalType": "bytes",
          "name": "newCtx",
          "type": "bytes"
        }
      ],
      "stateMutability": "nonpayable",
      "type": "function"
    },
    {
      "inputs": [
        {
          "internalType": "contract ISuperToken",
          "name": "",
          "type": "address"
        },
        {
          "internalType": "address",
          "name": "",
          "type": "address"
        },
        {
          "internalType": "bytes32",
          "name": "",
          "type": "bytes32"
        },
        {
          "internalType": "bytes",
          "name": "",
          "type": "bytes"
        },
        {
          "internalType": "bytes",
          "name": "",
          "type": "bytes"
        },
        {
          "internalType": "bytes",
          "name": "",
          "type": "bytes"
        }
      ],
      "name": "afterAgreementUpdated",
      "outputs": [
        {
          "internalType": "bytes",
          "name": "",
          "type": "bytes"
        }
      ],
      "stateMutability": "nonpayable",
      "type": "function"
    },
    {
      "inputs": [],
      "name": "availableAmount",
      "outputs": [
        {
          "internalType": "uint256",
          "name": "",
          "type": "uint256"
        }
      ],
      "stateMutability": "view",
      "type": "function"
    },
    {
      "inputs": [
        {
          "internalType": "address",
          "name": "account",
          "type": "address"
        },
        {
          "internalType": "uint256",
          "name": "id",
          "type": "uint256"
        }
      ],
      "name": "balanceOf",
      "outputs": [
        {
          "internalType": "uint256",
          "name": "",
          "type": "uint256"
        }
      ],
      "stateMutability": "view",
      "type": "function"
    },
    {
      "inputs": [
        {
          "internalType": "address[]",
          "name": "accounts",
          "type": "address[]"
        },
        {
          "internalType": "uint256[]",
          "name": "ids",
          "type": "uint256[]"
        }
      ],
      "name": "balanceOfBatch",
      "outputs": [
        {
          "internalType": "uint256[]",
          "name": "",
          "type": "uint256[]"
        }
      ],
      "stateMutability": "view",
      "type": "function"
    },
    {
      "inputs": [
        {
          "internalType": "contract ISuperToken",
          "name": "superToken",
          "type": "address"
        },
        {
          "internalType": "address",
          "name": "agreementClass",
          "type": "address"
        },
        {
          "internalType": "bytes32",
          "name": "",
          "type": "bytes32"
        },
        {
          "internalType": "bytes",
          "name": "",
          "type": "bytes"
        },
        {
          "internalType": "bytes",
          "name": "ctx",
          "type": "bytes"
        }
      ],
      "name": "beforeAgreementCreated",
      "outputs": [
        {
          "internalType": "bytes",
          "name": "cbdata",
          "type": "bytes"
        }
      ],
      "stateMutability": "view",
      "type": "function"
    },
    {
      "inputs": [
        {
          "internalType": "contract ISuperToken",
          "name": "superToken",
          "type": "address"
        },
        {
          "internalType": "address",
          "name": "agreementClass",
          "type": "address"
        },
        {
          "internalType": "bytes32",
          "name": "",
          "type": "bytes32"
        },
        {
          "internalType": "bytes",
          "name": "",
          "type": "bytes"
        },
        {
          "internalType": "bytes",
          "name": "",
          "type": "bytes"
        }
      ],
      "name": "beforeAgreementTerminated",
      "outputs": [
        {
          "internalType": "bytes",
          "name": "cbdata",
          "type": "bytes"
        }
      ],
      "stateMutability": "view",
      "type": "function"
    },
    {
      "inputs": [
        {
          "internalType": "contract ISuperToken",
          "name": "",
          "type": "address"
        },
        {
          "internalType": "address",
          "name": "",
          "type": "address"
        },
        {
          "internalType": "bytes32",
          "name": "",
          "type": "bytes32"
        },
        {
          "internalType": "bytes",
          "name": "",
          "type": "bytes"
        },
        {
          "internalType": "bytes",
          "name": "",
          "type": "bytes"
        }
      ],
      "name": "beforeAgreementUpdated",
      "outputs": [
        {
          "internalType": "bytes",
          "name": "",
          "type": "bytes"
        }
      ],
      "stateMutability": "view",
      "type": "function"
    },
    {
      "inputs": [
        {
          "internalType": "bytes",
          "name": "",
          "type": "bytes"
        }
      ],
      "name": "checkUpkeep",
      "outputs": [
        {
          "internalType": "bool",
          "name": "upkeepNeeded",
          "type": "bool"
        },
        {
          "internalType": "bytes",
          "name": "",
          "type": "bytes"
        }
      ],
      "stateMutability": "nonpayable",
      "type": "function"
    },
    {
      "inputs": [
        {
          "internalType": "address",
          "name": "userAddress",
          "type": "address"
        }
      ],
      "name": "claim",
      "outputs": [],
      "stateMutability": "nonpayable",
      "type": "function"
    },
    {
      "inputs": [],
      "name": "getDetails",
      "outputs": [
        {
          "internalType": "address",
          "name": "",
          "type": "address"
        },
        {
          "internalType": "string",
          "name": "",
          "type": "string"
        },
        {
          "internalType": "string",
          "name": "",
          "type": "string"
        },
        {
          "internalType": "uint256",
          "name": "",
          "type": "uint256"
        },
        {
          "internalType": "address",
          "name": "",
          "type": "address"
        },
        {
          "internalType": "uint256",
          "name": "",
          "type": "uint256"
        },
        {
          "internalType": "uint256",
          "name": "",
          "type": "uint256"
        },
        {
          "internalType": "string",
          "name": "",
          "type": "string"
        },
        {
          "internalType": "int96",
          "name": "",
          "type": "int96"
        }
      ],
      "stateMutability": "view",
      "type": "function"
    },
    {
      "inputs": [
        {
          "internalType": "address",
          "name": "account",
          "type": "address"
        },
        {
          "internalType": "address",
          "name": "operator",
          "type": "address"
        }
      ],
      "name": "isApprovedForAll",
      "outputs": [
        {
          "internalType": "bool",
          "name": "",
          "type": "bool"
        }
      ],
      "stateMutability": "view",
      "type": "function"
    },
    {
      "inputs": [
        {
          "internalType": "bytes",
          "name": "",
          "type": "bytes"
        }
      ],
      "name": "performUpkeep",
      "outputs": [],
      "stateMutability": "nonpayable",
      "type": "function"
    },
    {
      "inputs": [
        {
          "internalType": "address",
          "name": "from",
          "type": "address"
        },
        {
          "internalType": "address",
          "name": "to",
          "type": "address"
        },
        {
          "internalType": "uint256[]",
          "name": "ids",
          "type": "uint256[]"
        },
        {
          "internalType": "uint256[]",
          "name": "amounts",
          "type": "uint256[]"
        },
        {
          "internalType": "bytes",
          "name": "data",
          "type": "bytes"
        }
      ],
      "name": "safeBatchTransferFrom",
      "outputs": [],
      "stateMutability": "nonpayable",
      "type": "function"
    },
    {
      "inputs": [
        {
          "internalType": "address",
          "name": "from",
          "type": "address"
        },
        {
          "internalType": "address",
          "name": "to",
          "type": "address"
        },
        {
          "internalType": "uint256",
          "name": "id",
          "type": "uint256"
        },
        {
          "internalType": "uint256",
          "name": "amount",
          "type": "uint256"
        },
        {
          "internalType": "bytes",
          "name": "data",
          "type": "bytes"
        }
      ],
      "name": "safeTransferFrom",
      "outputs": [],
      "stateMutability": "nonpayable",
      "type": "function"
    },
    {
      "inputs": [
        {
          "internalType": "address",
          "name": "operator",
          "type": "address"
        },
        {
          "internalType": "bool",
          "name": "approved",
          "type": "bool"
        }
      ],
      "name": "setApprovalForAll",
      "outputs": [],
      "stateMutability": "nonpayable",
      "type": "function"
    },
    {
      "inputs": [
        {
          "internalType": "bytes4",
          "name": "interfaceId",
          "type": "bytes4"
        }
      ],
      "name": "supportsInterface",
      "outputs": [
        {
          "internalType": "bool",
          "name": "",
          "type": "bool"
        }
      ],
      "stateMutability": "view",
      "type": "function"
    },
    {
      "inputs": [
        {
          "internalType": "address",
          "name": "operator",
          "type": "address"
        },
        {
          "internalType": "address",
          "name": "from",
          "type": "address"
        },
        {
          "internalType": "address",
          "name": "to",
          "type": "address"
        },
        {
          "internalType": "uint256",
          "name": "amount",
          "type": "uint256"
        },
        {
          "internalType": "bytes",
          "name": "userData",
          "type": "bytes"
        },
        {
          "internalType": "bytes",
          "name": "operatorData",
          "type": "bytes"
        }
      ],
      "name": "tokensReceived",
      "outputs": [],
      "stateMutability": "nonpayable",
      "type": "function"
    },
    {
      "inputs": [
        {
          "internalType": "address",
          "name": "user",
          "type": "address"
        }
      ],
      "name": "totalPaid",
      "outputs": [
        {
          "internalType": "uint256",
          "name": "",
          "type": "uint256"
        }
      ],
      "stateMutability": "view",
      "type": "function"
    },
    {
      "inputs": [
        {
          "internalType": "string",
          "name": "title",
          "type": "string"
        },
        {
          "internalType": "string",
          "name": "description",
          "type": "string"
        }
      ],
      "name": "update",
      "outputs": [],
      "stateMutability": "nonpayable",
      "type": "function"
    },
    {
      "inputs": [
        {
          "internalType": "uint256",
          "name": "",
          "type": "uint256"
        }
      ],
      "name": "uri",
      "outputs": [
        {
          "internalType": "string",
          "name": "",
          "type": "string"
        }
      ],
      "stateMutability": "view",
      "type": "function"
    },
    {
      "inputs": [
        {
          "internalType": "address payable",
          "name": "_to",
          "type": "address"
        }
      ],
      "name": "withdrawEth",
      "outputs": [],
      "stateMutability": "nonpayable",
      "type": "function"
    }
  ],
  "bytecode": "0x6080604052600380546001600160a01b031916731820a4b7618bde71dce8cdc73aab6c95905fad241790553480156200003757600080fd5b5060405162004495380380620044958339810160408190526200005a9162000b86565b838162000067816200066c565b50600480546001600160a01b0319166001600160a01b038381169190911782556003546040516329965a1d60e01b8152309381018490527fb281fc8c12954d22544db45de3159a39272895b169a852b314f9cc762e44c53b6024820152604481019390935216906329965a1d90606401600060405180830381600087803b158015620000f257600080fd5b505af115801562000107573d6000803e3d6000fd5b50505050506001600160a01b038816620001685760405162461bcd60e51b815260206004820152601f60248201527f4974656d3a204f776e657220416464726573732063616e27742062652030780060448201526064015b60405180910390fd5b60008511620001ba5760405162461bcd60e51b815260206004820152601760248201527f4974656d3a205072696365206d757374206265203e203000000000000000000060448201526064016200015f565b6001600160a01b038416620002125760405162461bcd60e51b815260206004820152601f60248201527f4974656d3a20546f6b656e20416464726573732063616e27742062652030780060448201526064016200015f565b60008311620002645760405162461bcd60e51b815260206004820152601860248201527f4974656d3a20416d6f756e74206d757374206265203e2030000000000000000060448201526064016200015f565b428211620002c85760405162461bcd60e51b815260206004820152602a60248201527f4974656d3a20456e645061796d656e7444617465206d75737420626520696e206044820152697468652066757475726560b01b60648201526084016200015f565b600580546001600160a01b03199081166001600160a01b038c8116918217909355600680549092168b84161790915560405163ce69fd6f60e01b81529186166004830152859163ce69fd6f9060240160206040518083038186803b1580156200033057600080fd5b505afa15801562000345573d6000803e3d6000fd5b505050506040513d601f19601f820116820180604052508101906200036b919062000c6a565b620003b95760405162461bcd60e51b815260206004820152601960248201527f4974656d3a205375706572546f6b656e2072657175697265640000000000000060448201526064016200015f565b604051806101000160405280898152602001888152602001878152602001866001600160a01b03168152602001858152602001848152602001838152602001428562000406919062000f30565b62000412908962000f0f565b600b0b9052805180516007916200042f9183916020019062000a58565b5060208281015180516200044a926001850192019062000a58565b506040820151600282015560608201516003820180546001600160a01b0319166001600160a01b039092169190911790556080820151600482015560a0820151600582015560c08201518051620004ac91600684019160209091019062000a58565b5060e0919091015160079091018054600b9290920b6001600160601b03166001600160601b031990921691909117905560015b8481116200053c576200050b30826001604051806020016040528060008152506200068560201b60201c565b62000526816017620007a160201b6200134d1790919060201c565b5080620005338162000fe9565b915050620004df565b50600560009054906101000a90046001600160a01b03166001600160a01b031663f66705456040518163ffffffff1660e01b815260040160006040518083038186803b1580156200058c57600080fd5b505afa158015620005a1573d6000803e3d6000fd5b505050506040513d6000823e601f3d908101601f19168201604052620005cb919081019062000cbd565b5050601080546001600160a01b03199081166001600160a01b0393841617909155600f805490911692821692909217909155600654600954600a54600b54600c546040517f7141f591b60c586cf546b56c1243a5a2585882c5539e0196f3ae01308cf50c57966200065496309690821695600795600895929491909316929190600d9062000e10565b60405180910390a150505050505050505050620010f4565b80516200068190600290602084019062000a58565b5050565b6001600160a01b038416620006e75760405162461bcd60e51b815260206004820152602160248201527f455243313135353a206d696e7420746f20746865207a65726f206164647265736044820152607360f81b60648201526084016200015f565b336200070d81600087620006fb88620007b8565b6200070688620007b8565b5050505050565b6000848152602081815260408083206001600160a01b0389168452909152812080548592906200073f90849062000ef4565b909155505060408051858152602081018590526001600160a01b0380881692600092918516917fc3d58168c5ae7397731d063d5bbf3d657854427343f4c083240f7aacaa2d0f62910160405180910390a462000706816000878787876200081a565b6000620007af838362000a00565b90505b92915050565b604080516001808252818301909252606091600091906020808301908036833701905050905082816000815181106200080157634e487b7160e01b600052603260045260246000fd5b602090810291909101015292915050565b505050505050565b62000839846001600160a01b031662000a5260201b620013591760201c565b15620008125760405163f23a6e6160e01b81526001600160a01b0385169063f23a6e619062000875908990899088908890889060040162000e98565b602060405180830381600087803b1580156200089057600080fd5b505af1925050508015620008c3575060408051601f3d908101601f19168201909252620008c09181019062000c93565b60015b6200098457620008d262001033565b806308c379a01415620009135750620008ea6200104c565b80620008f7575062000915565b8060405162461bcd60e51b81526004016200015f919062000edf565b505b60405162461bcd60e51b815260206004820152603460248201527f455243313135353a207472616e7366657220746f206e6f6e204552433131353560448201527f526563656976657220696d706c656d656e74657200000000000000000000000060648201526084016200015f565b6001600160e01b0319811663f23a6e6160e01b14620009f75760405162461bcd60e51b815260206004820152602860248201527f455243313135353a204552433131353552656365697665722072656a656374656044820152676420746f6b656e7360c01b60648201526084016200015f565b50505050505050565b600081815260018301602052604081205462000a4957508154600181810184556000848152602080822090930184905584548482528286019093526040902091909155620007b2565b506000620007b2565b3b151590565b82805462000a669062000f7d565b90600052602060002090601f01602090048101928262000a8a576000855562000ad5565b82601f1062000aa557805160ff191683800117855562000ad5565b8280016001018555821562000ad5579182015b8281111562000ad557825182559160200191906001019062000ab8565b5062000ae392915062000ae7565b5090565b5b8082111562000ae3576000815560010162000ae8565b805162000b0b81620010db565b919050565b600082601f83011262000b21578081fd5b81516001600160401b0381111562000b3d5762000b3d6200101d565b60405162000b56601f8301601f19166020018262000fba565b81815284602083860101111562000b6b578283fd5b62000b7e82602083016020870162000f4a565b949350505050565b60008060008060008060008060006101208a8c03121562000ba5578485fd5b62000bb08a62000afe565b985062000bc060208b0162000afe565b60408b01519098506001600160401b038082111562000bdd578687fd5b62000beb8d838e0162000b10565b985060608c015191508082111562000c01578687fd5b62000c0f8d838e0162000b10565b975060808c0151965062000c2660a08d0162000afe565b955060c08c0151945060e08c015193506101008c015191508082111562000c4b578283fd5b5062000c5a8c828d0162000b10565b9150509295985092959850929598565b60006020828403121562000c7c578081fd5b8151801515811462000c8c578182fd5b9392505050565b60006020828403121562000ca5578081fd5b81516001600160e01b03198116811462000c8c578182fd5b6000806000806080858703121562000cd3578384fd5b845162000ce081620010db565b602086015190945062000cf381620010db565b604086015190935062000d0681620010db565b60608601519092506001600160401b0381111562000d22578182fd5b62000d308782880162000b10565b91505092959194509250565b6000815180845262000d5681602086016020860162000f4a565b601f01601f19169290920160200192915050565b8054600090600181811c908083168062000d8557607f831692505b602080841082141562000da657634e487b7160e01b86526022600452602486fd5b8388526020880182801562000dc4576001811462000dd65762000e03565b60ff1987168252828201975062000e03565b60008981526020902060005b8781101562000dfd5781548482015290860190840162000de2565b83019850505b5050505050505092915050565b6001600160a01b038a8116825289811660208301526101206040830181905260009162000e408483018c62000d6a565b9150838203606085015262000e56828b62000d6a565b915088608085015280881660a0850152508560c08401528460e084015282810361010084015262000e88818562000d6a565b9c9b505050505050505050505050565b6001600160a01b03868116825285166020820152604081018490526060810183905260a06080820181905260009062000ed49083018462000d3c565b979650505050505050565b602081526000620007af602083018462000d3c565b6000821982111562000f0a5762000f0a62001007565b500190565b60008262000f2b57634e487b7160e01b81526012600452602481fd5b500490565b60008282101562000f455762000f4562001007565b500390565b60005b8381101562000f6757818101518382015260200162000f4d565b8381111562000f77576000848401525b50505050565b600181811c9082168062000f9257607f821691505b6020821081141562000fb457634e487b7160e01b600052602260045260246000fd5b50919050565b601f8201601f191681016001600160401b038111828210171562000fe25762000fe26200101d565b6040525050565b600060001982141562001000576200100062001007565b5060010190565b634e487b7160e01b600052601160045260246000fd5b634e487b7160e01b600052604160045260246000fd5b600060033d11156200104957600481823e5160e01c5b90565b600060443d10156200105b5790565b6040516003193d81016004833e81513d6001600160401b0380831160248401831017156200108b57505050505090565b8285019150815181811115620010a45750505050505090565b843d8701016020828501011115620010bf5750505050505090565b620010d06020828601018762000fba565b509095945050505050565b6001600160a01b0381168114620010f157600080fd5b50565b61339180620011046000396000f3fe608060405234801561001057600080fd5b506004361061014b5760003560e01c80634e1273f4116100c3578063a22cb4651161007c578063a22cb465146102d5578063d86ed3e5146102e8578063e985e9c5146102fb578063f242432a14610337578063f4c84d191461034a578063fbbf93a01461035d57600080fd5b80634e1273f41461025357806353c11f99146102735780635f9e7d77146102865780636e04ff0d14610299578063884d1f40146102ba57806391f7cfb9146102cd57600080fd5b8063230dbd2911610115578063230dbd29146101e157806325e16063146101f45780632eb2c2d61461020757806330d9c9151461021a5780633dd6d5331461022d5780634585e33b1461024057600080fd5b806223de2914610150578062fdd58e1461016557806301ffc9a71461018b5780630e89341c146101ae5780631e83409a146101ce575b600080fd5b61016361015e366004612518565b61037a565b005b610178610173366004612708565b610432565b6040519081526020015b60405180910390f35b61019e610199366004612831565b6104c7565b6040519015158152602001610182565b6101c16101bc366004612b9b565b6104d2565b6040516101829190612f34565b6101636101dc3660046124c4565b610566565b6101c16101ef36600461297d565b610719565b6101636102023660046124c4565b61077b565b6101636102153660046125c5565b610850565b6101c16102283660046128e2565b6108e7565b61017861023b3660046124c4565b6109e7565b61016361024e366004612869565b610a40565b610266610261366004612733565b610a71565b6040516101829190612ecd565b6101c161028136600461297d565b610bd2565b6101c16102943660046128e2565b610ca6565b6102ac6102a7366004612869565b610d46565b604051610182929190612f05565b6101c16102c83660046128e2565b610d70565b610178610dd3565b6101636102e33660046126d4565b610de4565b6101c16102f636600461297d565b610ebb565b61019e6103093660046124e0565b6001600160a01b03918216600090815260016020908152604080832093909416825291909152205460ff1690565b61016361034536600461266e565b610fee565b610163610358366004612a43565b611075565b610365611145565b60405161018299989796959493929190612e09565b6004546001600160a01b031633146103e35760405162461bcd60e51b815260206004820152602160248201527f53696d706c65373737526563697069656e743a20496e76616c696420746f6b656044820152603760f91b60648201526084015b60405180910390fd5b7fa0a5a35754b3519ae614f00422ac62a6bc4608ccb722963aab00cb48c588ad728888888888888888604051610420989796959493929190612d22565b60405180910390a15050505050505050565b60006001600160a01b03831661049e5760405162461bcd60e51b815260206004820152602b60248201527f455243313135353a2062616c616e636520717565727920666f7220746865207a60448201526a65726f206164647265737360a81b60648201526084016103da565b506000818152602081815260408083206001600160a01b03861684529091529020545b92915050565b60006104c18261135f565b6060600280546104e1906131e1565b80601f016020809104026020016040519081016040528092919081815260200182805461050d906131e1565b801561055a5780601f1061052f5761010080835404028352916020019161055a565b820191906000526020600020905b81548152906001019060200180831161053d57829003601f168201915b50505050509050919050565b61056f816113af565b6105b35760405162461bcd60e51b8152602060048201526015602482015274092e8cada74409cdee840e0c2d2c840cadcdeeaced605b1b60448201526064016103da565b60006105bf6019611414565b1161060c5760405162461bcd60e51b815260206004820152601860248201527f4974656d3a204e6f206974656d7320617661696c61626c65000000000000000060448201526064016103da565b600f54601054600a546040805160008152602081019091526001600160a01b03938416936339255d5b93811692635a5999e360e11b9261065792909116908790309060448101612f8e565b60408051601f198184030181529181526020820180516001600160e01b03166001600160e01b03199485161790525160e085901b909216825261069d9291600401612f47565b600060405180830381600087803b1580156106b757600080fd5b505af11580156106cb573d6000803e3d6000fd5b505050506040513d6000823e601f3d908101601f191682016040526106f391908101906128a8565b506001600160a01b0381166000908152601360205260409020546107169061141e565b50565b60405162461bcd60e51b815260206004820152602e60248201527f556e737570706f727465642063616c6c6261636b202d2041667465722041677260448201526d19595b595b9d08155c19185d195960921b60648201526060906084016103da565b6006546001600160a01b0316336001600160a01b0316146107d45760405162461bcd60e51b815260206004820152601360248201527224ba32b69d102737ba103a34329037bbb732b960691b60448201526064016103da565b6040516001600160a01b038216904780156108fc02916000818181858888f19350505050158015610809573d6000803e3d6000fd5b50806001600160a01b03167fa8841823f7591414a80deddb48af504373043ab5959ceddf527c2215d62cb29b4760405161084591815260200190565b60405180910390a250565b6001600160a01b03851633148061086c575061086c8533610309565b6108d35760405162461bcd60e51b815260206004820152603260248201527f455243313135353a207472616e736665722063616c6c6572206973206e6f74206044820152711bdddb995c881b9bdc88185c1c1c9bdd995960721b60648201526084016103da565b6108e085858585856115bf565b5050505050565b600f546060906001600160a01b031633146109145760405162461bcd60e51b81526004016103da9061304f565b878761092e82600a546001600160a01b0391821691161490565b61097a5760405162461bcd60e51b815260206004820152601860248201527f4974656d3a206e6f7420616363657074656420746f6b656e000000000000000060448201526064016103da565b610983816117b8565b6109cf5760405162461bcd60e51b815260206004820152601a60248201527f4974656d3a206f6e6c7920434641763120737570706f7274656400000000000060448201526064016103da565b6109d98585611853565b9a9950505050505050505050565b6001600160a01b038116600090815260136020908152604080832054808452601690925282208054600190910154600160a01b909104600b90810b900b90610a2f904261319a565b610a39919061317b565b9392505050565b60005b6032811015610a6c57610a5a6101dc601183611982565b80610a6481613248565b915050610a43565b505050565b60608151835114610ad65760405162461bcd60e51b815260206004820152602960248201527f455243313135353a206163636f756e747320616e6420696473206c656e677468604482015268040dad2e6dac2e8c6d60bb1b60648201526084016103da565b600083516001600160401b03811115610aff57634e487b7160e01b600052604160045260246000fd5b604051908082528060200260200182016040528015610b28578160200160208202803683370190505b50905060005b8451811015610bca57610b8f858281518110610b5a57634e487b7160e01b600052603260045260246000fd5b6020026020010151858381518110610b8257634e487b7160e01b600052603260045260246000fd5b6020026020010151610432565b828281518110610baf57634e487b7160e01b600052603260045260246000fd5b6020908102919091010152610bc381613248565b9050610b2e565b509392505050565b600f546060906001600160a01b03163314610bff5760405162461bcd60e51b81526004016103da9061304f565b6000610c0d858701876127ff565b90508015610c555783838080601f016020809104026020016040519081016040528093929190818152602001838380828437600092019190915250929450610c999350505050565b610c5e8961141e565b83838080601f016020809104026020016040519081016040528093929190818152602001838380828437600092019190915250929450505050505b9998505050505050505050565b600f546060906001600160a01b03163314610cd35760405162461bcd60e51b81526004016103da9061304f565b600a546001600160a01b038981169116141580610cf65750610cf4876117b8565b155b15610d1d576040805160016020820152016040516020818303038152906040529050610d3b565b60408051600060208201520160405160208183030381529060405290505b979650505050505050565b6000606042600760050154108015610d6757506000610d656011611414565b115b91509250929050565b60405162461bcd60e51b815260206004820152602f60248201527f556e737570706f727465642063616c6c6261636b202d204265666f726520416760448201526e1c99595b595b9d081d5c19185d1959608a1b60648201526060906084016103da565b6000610ddf6017611414565b905090565b336001600160a01b0383161415610e4f5760405162461bcd60e51b815260206004820152602960248201527f455243313135353a2073657474696e6720617070726f76616c20737461747573604482015268103337b91039b2b63360b91b60648201526084016103da565b3360008181526001602090815260408083206001600160a01b03871680855290835292819020805460ff191686151590811790915590519081529192917f17307eab39ab6107e8899845ad3d59bd9653f200f220920489ca2b5937696c31910160405180910390a35050565b600f546060906001600160a01b03163314610ee85760405162461bcd60e51b81526004016103da9061304f565b600a54604051631557a4cd60e31b81526001600160a01b039182166004820152602481018a90526000918b169063aabd26689060440160806040518083038186803b158015610f3657600080fd5b505afa158015610f4a573d6000803e3d6000fd5b505050506040513d601f19601f82011682018060405250810190610f6e9190612bb3565b5050600e54909250600b90810b810b9083900b12159050610fd15760405162461bcd60e51b815260206004820152601760248201527f4974656d3a20466c6f77207261746520746f6f206c6f7700000000000000000060448201526064016103da565b610fdf84848c8c8a8a61198e565b9b9a5050505050505050505050565b6001600160a01b03851633148061100a575061100a8533610309565b6110685760405162461bcd60e51b815260206004820152602960248201527f455243313135353a2063616c6c6572206973206e6f74206f776e6572206e6f7260448201526808185c1c1c9bdd995960ba1b60648201526084016103da565b6108e08585858585611cd8565b6006546001600160a01b0316336001600160a01b0316146110ce5760405162461bcd60e51b815260206004820152601360248201527224ba32b69d102737ba103a34329037bbb732b960691b60448201526064016103da565b81516110e1906007906020850190612288565b5080516110f5906008906020840190612288565b506006546040517ff1e140dd045e4105d6296c80c9d27435efdf24668b3691ea586a45d33b31184f91611139916001600160a01b0390911690600790600890612e8d565b60405180910390a15050565b600654600954600a54600b8054600c54600e546007805460009860609889988b988998899889988d988a986001600160a01b0398891698919760089790969216949392600d920b908890611198906131e1565b80601f01602080910402602001604051908101604052809291908181526020018280546111c4906131e1565b80156112115780601f106111e657610100808354040283529160200191611211565b820191906000526020600020905b8154815290600101906020018083116111f457829003601f168201915b50505050509750868054611224906131e1565b80601f0160208091040260200160405190810160405280929190818152602001828054611250906131e1565b801561129d5780601f106112725761010080835404028352916020019161129d565b820191906000526020600020905b81548152906001019060200180831161128057829003601f168201915b505050505096508180546112b0906131e1565b80601f01602080910402602001604051908101604052809291908181526020018280546112dc906131e1565b80156113295780601f106112fe57610100808354040283529160200191611329565b820191906000526020600020905b81548152906001019060200180831161130c57829003601f168201915b50505050509150985098509850985098509850985098509850909192939495969798565b6000610a398383611dfe565b3b151590565b60006001600160e01b03198216636cdb3d1360e11b148061139057506001600160e01b031982166303a24d0760e21b145b806104c157506301ffc9a760e01b6001600160e01b03198316146104c1565b60006113bc601183611e4d565b6114005760405162461bcd60e51b815260206004820152601560248201527424ba32b69d102737ba10313abcb4b733903ab9b2b960591b60448201526064016103da565b60095461140c836109e7565b101592915050565b60006104c1825490565b6000818152601660205260409020546001600160a01b031661143f816113af565b61146c576000611450601982611982565b905061145d601982611e6f565b5061146960178261134d565b50505b611475816113af565b6114b95760405162461bcd60e51b8152602060048201526015602482015274125d195b4e88139bdd08195b9bdd59da081c185a59605a1b60448201526064016103da565b6114c4601182611e7b565b506001600160a01b0381166000908152601360205260408120556114e9601483611e6f565b506040805160608101825260008082526020808301828152838501838152878452601690925293822092519351600b0b6001600160601b0316600160a01b026001600160a01b0394909416939093178255915160019091015561154d601982611982565b905061155a601982611e6f565b50611578308383600160405180602001604052806000815250611cd8565b604080516001600160a01b0384168152602081018390527f8ed9b9c949dff330af22f05a44efa34da599a3e672ac89079f13da0ce789913b910160405180910390a1505050565b81518351146116215760405162461bcd60e51b815260206004820152602860248201527f455243313135353a2069647320616e6420616d6f756e7473206c656e677468206044820152670dad2e6dac2e8c6d60c31b60648201526084016103da565b6001600160a01b0384166116475760405162461bcd60e51b81526004016103da9061300a565b3360005b845181101561174a57600085828151811061167657634e487b7160e01b600052603260045260246000fd5b6020026020010151905060008583815181106116a257634e487b7160e01b600052603260045260246000fd5b602090810291909101810151600084815280835260408082206001600160a01b038e1683529093529190912054909150818110156116f25760405162461bcd60e51b81526004016103da90613086565b6000838152602081815260408083206001600160a01b038e8116855292528083208585039055908b1682528120805484929061172f908490613143565b925050819055505050508061174390613248565b905061164b565b50846001600160a01b0316866001600160a01b0316826001600160a01b03167f4a39dc06d4c0dbc64b70af90fd698a233a518aa5d07e595d983b8c0526c8f7fb878760405161179a929190612ee0565b60405180910390a46117b0818787878787611e90565b505050505050565b60007fa9214cc96615e0085d3bb077758db69497dc2dce3b2b1e97bc93c3d18d83efd3826001600160a01b0316637730599e6040518163ffffffff1660e01b815260040160206040518083038186803b15801561181457600080fd5b505afa158015611828573d6000803e3d6000fd5b505050506040513d601f19601f8201168201806040525081019061184c9190612819565b1492915050565b600f54604051631fb6491d60e11b81526060916000916001600160a01b0390911690633f6c923a9061188b9087908790600401612f20565b60006040518083038186803b1580156118a357600080fd5b505afa1580156118b7573d6000803e3d6000fd5b505050506040513d6000823e601f3d908101601f191682016040526118df9190810190612a99565b90506118f981606001516011611e4d90919063ffffffff16565b156119505760405162461bcd60e51b815260206004820152602160248201527f4974656d3a205573657220616c726561647920627579696e6720616e204974656044820152606d60f81b60648201526084016103da565b6060810151604080516001600160a01b0390921660208301520160405160208183030381529060405291505092915050565b6000610a398383611ffb565b6060600061199c6017611414565b116119e95760405162461bcd60e51b815260206004820152601860248201527f4974656d3a204e6f204974656d7320617661696c61626c65000000000000000060448201526064016103da565b600f54604051631fb6491d60e11b81526000916001600160a01b031690633f6c923a90611a1c908b908b90600401612f20565b60006040518083038186803b158015611a3457600080fd5b505afa158015611a48573d6000803e3d6000fd5b505050506040513d6000823e601f3d908101601f19168201604052611a709190810190612a99565b9050611a8a8160600151601161203390919063ffffffff16565b5060608101516001600160a01b03166000908152601360205260409020859055611ab560148661134d565b506000611ac3601782611982565b9050611ad0601782611e6f565b50611adc60198261134d565b50600a54604051631557a4cd60e31b81526001600160a01b039182166004820152602481018890526000918291908a169063aabd26689060440160806040518083038186803b158015611b2e57600080fd5b505afa158015611b42573d6000803e3d6000fd5b505050506040513d601f19601f82011682018060405250810190611b669190612bb3565b505091509150604051806060016040528085606001516001600160a01b0316815260200182600b0b815260200183815250601660008a815260200190815260200160002060008201518160000160006101000a8154816001600160a01b0302191690836001600160a01b0316021790555060208201518160000160146101000a8154816001600160601b030219169083600b0b6001600160601b0316021790555060408201518160010155905050600081600b0b600760020154611c2a919061315b565b611c349084613143565b606080870151604080516001600160a01b039092168252602082018d9052600b86900b908201529081018290529091507fbe63124fcd6e35a686f207415131db9e0fd573b9fe87911576f7de249417efb39060800160405180910390a18b8b8080601f016020809104026020016040519081016040528093929190818152602001838380828437600092019190915250929f9e505050505050505050505050505050565b6001600160a01b038416611cfe5760405162461bcd60e51b81526004016103da9061300a565b33611d17818787611d0e88612048565b6108e088612048565b6000848152602081815260408083206001600160a01b038a16845290915290205483811015611d585760405162461bcd60e51b81526004016103da90613086565b6000858152602081815260408083206001600160a01b038b8116855292528083208785039055908816825281208054869290611d95908490613143565b909155505060408051868152602081018690526001600160a01b03808916928a821692918616917fc3d58168c5ae7397731d063d5bbf3d657854427343f4c083240f7aacaa2d0f62910160405180910390a4611df58288888888886120a1565b50505050505050565b6000818152600183016020526040812054611e45575081546001818101845560008481526020808220909301849055845484825282860190935260409020919091556104c1565b5060006104c1565b6001600160a01b03811660009081526001830160205260408120541515610a39565b6000610a39838361216b565b6000610a39836001600160a01b03841661216b565b6001600160a01b0384163b156117b05760405163bc197c8160e01b81526001600160a01b0385169063bc197c8190611ed49089908990889088908890600401612d71565b602060405180830381600087803b158015611eee57600080fd5b505af1925050508015611f1e575060408051601f3d908101601f19168201909252611f1b9181019061284d565b60015b611fcb57611f2a61328f565b806308c379a01415611f645750611f3f6132a7565b80611f4a5750611f66565b8060405162461bcd60e51b81526004016103da9190612f34565b505b60405162461bcd60e51b815260206004820152603460248201527f455243313135353a207472616e7366657220746f206e6f6e20455243313135356044820152732932b1b2b4bb32b91034b6b83632b6b2b73a32b960611b60648201526084016103da565b6001600160e01b0319811663bc197c8160e01b14611df55760405162461bcd60e51b81526004016103da90612fc2565b600082600001828154811061202057634e487b7160e01b600052603260045260246000fd5b9060005260206000200154905092915050565b6000610a39836001600160a01b038416611dfe565b6040805160018082528183019092526060916000919060208083019080368337019050509050828160008151811061209057634e487b7160e01b600052603260045260246000fd5b602090810291909101015292915050565b6001600160a01b0384163b156117b05760405163f23a6e6160e01b81526001600160a01b0385169063f23a6e61906120e59089908990889088908890600401612dcf565b602060405180830381600087803b1580156120ff57600080fd5b505af192505050801561212f575060408051601f3d908101601f1916820190925261212c9181019061284d565b60015b61213b57611f2a61328f565b6001600160e01b0319811663f23a6e6160e01b14611df55760405162461bcd60e51b81526004016103da90612fc2565b6000818152600183016020526040812054801561227e57600061218f60018361319a565b85549091506000906121a39060019061319a565b90508181146122245760008660000182815481106121d157634e487b7160e01b600052603260045260246000fd5b906000526020600020015490508087600001848154811061220257634e487b7160e01b600052603260045260246000fd5b6000918252602080832090910192909255918252600188019052604090208390555b855486908061224357634e487b7160e01b600052603160045260246000fd5b6001900381819060005260206000200160009055905585600101600086815260200190815260200160002060009055600193505050506104c1565b60009150506104c1565b828054612294906131e1565b90600052602060002090601f0160209004810192826122b657600085556122fc565b82601f106122cf57805160ff19168380011785556122fc565b828001600101855582156122fc579182015b828111156122fc5782518255916020019190600101906122e1565b5061230892915061230c565b5090565b5b80821115612308576000815560010161230d565b805161232c81613330565b919050565b600082601f830112612341578081fd5b8135602061234e826130f9565b60405161235b828261321c565b8381528281019150858301600585901b8701840188101561237a578586fd5b855b858110156123985781358452928401929084019060010161237c565b5090979650505050505050565b8035801515811461232c57600080fd5b805161232c81613345565b60008083601f8401126123d1578182fd5b5081356001600160401b038111156123e7578182fd5b6020830191508360208285010111156123ff57600080fd5b9250929050565b600082601f830112612416578081fd5b81356124218161311c565b60405161242e828261321c565b828152856020848701011115612442578384fd5b82602086016020830137918201602001929092529392505050565b600082601f83011261246d578081fd5b81516124788161311c565b604051612485828261321c565b828152856020848701011115612499578384fd5b6124aa8360208301602088016131b1565b95945050505050565b805160ff8116811461232c57600080fd5b6000602082840312156124d5578081fd5b8135610a3981613330565b600080604083850312156124f2578081fd5b82356124fd81613330565b9150602083013561250d81613330565b809150509250929050565b60008060008060008060008060c0898b031215612533578384fd5b883561253e81613330565b9750602089013561254e81613330565b9650604089013561255e81613330565b95506060890135945060808901356001600160401b0380821115612580578586fd5b61258c8c838d016123c0565b909650945060a08b01359150808211156125a4578384fd5b506125b18b828c016123c0565b999c989b5096995094979396929594505050565b600080600080600060a086880312156125dc578283fd5b85356125e781613330565b945060208601356125f781613330565b935060408601356001600160401b0380821115612612578485fd5b61261e89838a01612331565b94506060880135915080821115612633578283fd5b61263f89838a01612331565b93506080880135915080821115612654578283fd5b5061266188828901612406565b9150509295509295909350565b600080600080600060a08688031215612685578283fd5b853561269081613330565b945060208601356126a081613330565b9350604086013592506060860135915060808601356001600160401b038111156126c8578182fd5b61266188828901612406565b600080604083850312156126e6578182fd5b82356126f181613330565b91506126ff602084016123a5565b90509250929050565b6000806040838503121561271a578182fd5b823561272581613330565b946020939093013593505050565b60008060408385031215612745578182fd5b82356001600160401b038082111561275b578384fd5b818501915085601f83011261276e578384fd5b8135602061277b826130f9565b604051612788828261321c565b8381528281019150858301600585901b870184018b10156127a7578889fd5b8896505b848710156127d25780356127be81613330565b8352600196909601959183019183016127ab565b50965050860135925050808211156127e8578283fd5b506127f585828601612331565b9150509250929050565b600060208284031215612810578081fd5b610a39826123a5565b60006020828403121561282a578081fd5b5051919050565b600060208284031215612842578081fd5b8135610a3981613345565b60006020828403121561285e578081fd5b8151610a3981613345565b6000806020838503121561287b578182fd5b82356001600160401b03811115612890578283fd5b61289c858286016123c0565b90969095509350505050565b6000602082840312156128b9578081fd5b81516001600160401b038111156128ce578182fd5b6128da8482850161245d565b949350505050565b600080600080600080600060a0888a0312156128fc578081fd5b873561290781613330565b9650602088013561291781613330565b95506040880135945060608801356001600160401b0380821115612939578283fd5b6129458b838c016123c0565b909650945060808a013591508082111561295d578283fd5b5061296a8a828b016123c0565b989b979a50959850939692959293505050565b600080600080600080600080600060c08a8c03121561299a578283fd5b89356129a581613330565b985060208a01356129b581613330565b975060408a0135965060608a01356001600160401b03808211156129d7578485fd5b6129e38d838e016123c0565b909850965060808c01359150808211156129fb578485fd5b612a078d838e016123c0565b909650945060a08c0135915080821115612a1f578283fd5b50612a2c8c828d016123c0565b915080935050809150509295985092959850929598565b60008060408385031215612a55578182fd5b82356001600160401b0380821115612a6b578384fd5b612a7786838701612406565b93506020850135915080821115612a8c578283fd5b506127f585828601612406565b600060208284031215612aaa578081fd5b81516001600160401b0380821115612ac0578283fd5b908301906101608286031215612ad4578283fd5b612adc6130d0565b612ae5836124b3565b8152612af3602084016124b3565b602082015260408301516040820152612b0e60608401612321565b6060820152612b1f608084016123b5565b608082015260a083015182811115612b35578485fd5b612b418782860161245d565b60a08301525060c083015160c082015260e083015160e0820152610100915081830151828201526101209150612b78828401612321565b828201526101409150612b8c828401612321565b91810191909152949350505050565b600060208284031215612bac578081fd5b5035919050565b60008060008060808587031215612bc8578182fd5b84519350602085015180600b0b8114612bdf578283fd5b6040860151606090960151949790965092505050565b6000815180845260208085019450808401835b83811015612c2457815187529582019590820190600101612c08565b509495945050505050565b81835281816020850137506000828201602090810191909152601f909101601f19169091010190565b60008151808452612c708160208601602086016131b1565b601f01601f19169290920160200192915050565b8054600090600181811c9080831680612c9e57607f831692505b6020808410821415612cbe57634e487b7160e01b86526022600452602486fd5b83885260208801828015612cd95760018114612cea57612d15565b60ff19871682528282019750612d15565b60008981526020902060005b87811015612d0f57815484820152908601908401612cf6565b83019850505b5050505050505092915050565b6001600160a01b0389811682528881166020830152871660408201526060810186905260c060808201819052600090612d5e9083018688612c2f565b82810360a0840152610fdf818587612c2f565b6001600160a01b0386811682528516602082015260a060408201819052600090612d9d90830186612bf5565b8281036060840152612daf8186612bf5565b90508281036080840152612dc38185612c58565b98975050505050505050565b6001600160a01b03868116825285166020820152604081018490526060810183905260a060808201819052600090610d3b90830184612c58565b6001600160a01b038a8116825261012060208301819052600091612e2f8483018d612c58565b91508382036040850152612e43828c612c58565b91508960608501528089166080850152508660a08401528560c084015282810360e0840152612e728186612c58565b91505082600b0b6101008301529a9950505050505050505050565b6001600160a01b0384168152606060208201819052600090612eb190830185612c84565b8281036040840152612ec38185612c84565b9695505050505050565b602081526000610a396020830184612bf5565b604081526000612ef36040830185612bf5565b82810360208401526124aa8185612bf5565b82151581526040602082015260006128da6040830184612c58565b6020815260006128da602083018486612c2f565b602081526000610a396020830184612c58565b6001600160a01b0383168152606060208201819052600090612f6b90830184612c58565b8281036040938401526002815261060f60f31b6020820152919091019392505050565b6001600160a01b038581168252848116602083015283166040820152608060608201819052600090612ec390830184612c58565b60208082526028908201527f455243313135353a204552433131353552656365697665722072656a656374656040820152676420746f6b656e7360c01b606082015260800190565b60208082526025908201527f455243313135353a207472616e7366657220746f20746865207a65726f206164604082015264647265737360d81b606082015260800190565b6020808252601b908201527f4974656d3a20737570706f7274206f6e6c79206f6e6520686f73740000000000604082015260600190565b6020808252602a908201527f455243313135353a20696e73756666696369656e742062616c616e636520666f60408201526939103a3930b739b332b960b11b606082015260800190565b60405161016081016001600160401b03811182821017156130f3576130f3613279565b60405290565b60006001600160401b0382111561311257613112613279565b5060051b60200190565b60006001600160401b0382111561313557613135613279565b50601f01601f191660200190565b6000821982111561315657613156613263565b500190565b60008261317657634e487b7160e01b81526012600452602481fd5b500490565b600081600019048311821515161561319557613195613263565b500290565b6000828210156131ac576131ac613263565b500390565b60005b838110156131cc5781810151838201526020016131b4565b838111156131db576000848401525b50505050565b600181811c908216806131f557607f821691505b6020821081141561321657634e487b7160e01b600052602260045260246000fd5b50919050565b601f8201601f191681016001600160401b038111828210171561324157613241613279565b6040525050565b600060001982141561325c5761325c613263565b5060010190565b634e487b7160e01b600052601160045260246000fd5b634e487b7160e01b600052604160045260246000fd5b600060033d11156132a457600481823e5160e01c5b90565b600060443d10156132b55790565b6040516003193d81016004833e81513d6001600160401b0381602484011181841117156132e457505050505090565b82850191508151818111156132fc5750505050505090565b843d87010160208285010111156133165750505050505090565b6133256020828601018761321c565b509095945050505050565b6001600160a01b038116811461071657600080fd5b6001600160e01b03198116811461071657600080fdfea2646970667358221220e303a6fd61391b62dd025a074630d41d2c7290c643b816a58646e3bdbd0a9bd064736f6c63430008040033",
  "linkReferences": {},
  "deployedLinkReferences": {}
}